{
  "_format": "hh-sol-artifact-1",
  "contractName": "BanterFantasySports",
  "sourceName": "contracts/Main.sol",
  "abi": [
    {
      "inputs": [
        {
          "internalType": "address",
          "name": "_baseTokenAddress",
          "type": "address"
        },
        {
          "internalType": "address",
          "name": "_playerTokenAMMAddress",
          "type": "address"
        },
        {
          "internalType": "address",
          "name": "_owner",
          "type": "address"
        }
      ],
      "stateMutability": "nonpayable",
      "type": "constructor"
    },
    {
      "inputs": [],
      "name": "ReentrancyGuardReentrantCall",
      "type": "error"
    },
    {
      "anonymous": false,
      "inputs": [
        {
          "indexed": true,
          "internalType": "uint256",
          "name": "leagueId",
          "type": "uint256"
        },
        {
          "indexed": false,
          "internalType": "string",
          "name": "description",
          "type": "string"
        }
      ],
      "name": "LeagueCreated",
      "type": "event"
    },
    {
      "anonymous": false,
      "inputs": [
        {
          "indexed": true,
          "internalType": "address",
          "name": "tokenAddress",
          "type": "address"
        },
        {
          "indexed": false,
          "internalType": "string",
          "name": "name",
          "type": "string"
        },
        {
          "indexed": false,
          "internalType": "uint256",
          "name": "position",
          "type": "uint256"
        },
        {
          "indexed": false,
          "internalType": "uint256",
          "name": "team",
          "type": "uint256"
        },
        {
          "indexed": false,
          "internalType": "uint256",
          "name": "price",
          "type": "uint256"
        }
      ],
      "name": "PlayerAdded",
      "type": "event"
    },
    {
      "anonymous": false,
      "inputs": [
        {
          "indexed": true,
          "internalType": "address",
          "name": "player",
          "type": "address"
        },
        {
          "indexed": false,
          "internalType": "address",
          "name": "owner",
          "type": "address"
        },
        {
          "indexed": false,
          "internalType": "uint256",
          "name": "buyPrice",
          "type": "uint256"
        },
        {
          "indexed": false,
          "internalType": "uint256",
          "name": "leagueId",
          "type": "uint256"
        }
      ],
      "name": "PlayerBought",
      "type": "event"
    },
    {
      "anonymous": false,
      "inputs": [
        {
          "indexed": true,
          "internalType": "address",
          "name": "player",
          "type": "address"
        },
        {
          "indexed": false,
          "internalType": "address",
          "name": "owner",
          "type": "address"
        },
        {
          "indexed": false,
          "internalType": "uint256",
          "name": "soldPrice",
          "type": "uint256"
        },
        {
          "indexed": false,
          "internalType": "uint256",
          "name": "leagueId",
          "type": "uint256"
        }
      ],
      "name": "PlayerSold",
      "type": "event"
    },
    {
      "anonymous": false,
      "inputs": [
        {
          "indexed": false,
          "internalType": "address",
          "name": "user",
          "type": "address"
        }
      ],
      "name": "RewardsClaimed",
      "type": "event"
    },
    {
      "anonymous": false,
      "inputs": [
        {
          "indexed": true,
          "internalType": "address",
          "name": "user",
          "type": "address"
        },
        {
          "indexed": false,
          "internalType": "address[]",
          "name": "playyerTokens",
          "type": "address[]"
        },
        {
          "indexed": false,
          "internalType": "uint256",
          "name": "leagueId",
          "type": "uint256"
        }
      ],
      "name": "TeamCreated",
      "type": "event"
    },
    {
      "inputs": [
        {
          "internalType": "string",
          "name": "_name",
          "type": "string"
        },
        {
          "internalType": "string",
          "name": "_symbol",
          "type": "string"
        },
        {
          "internalType": "uint256",
          "name": "_position",
          "type": "uint256"
        },
        {
          "internalType": "uint256",
          "name": "_team",
          "type": "uint256"
        },
        {
          "internalType": "uint256",
          "name": "_price",
          "type": "uint256"
        },
        {
          "internalType": "uint256",
          "name": "_initialSupply",
          "type": "uint256"
        },
        {
          "internalType": "uint256",
          "name": "_poolSupply",
          "type": "uint256"
        }
      ],
      "name": "addPlayer",
      "outputs": [],
      "stateMutability": "nonpayable",
      "type": "function"
    },
    {
      "inputs": [],
      "name": "baseToken",
      "outputs": [
        {
          "internalType": "contract IERC20",
          "name": "",
          "type": "address"
        }
      ],
      "stateMutability": "view",
      "type": "function"
    },
    {
      "inputs": [
        {
          "internalType": "address",
          "name": "_buyPlayerToken",
          "type": "address"
        },
        {
          "internalType": "uint256",
          "name": "_leagueId",
          "type": "uint256"
        }
      ],
      "name": "buyPLayer",
      "outputs": [],
      "stateMutability": "payable",
      "type": "function"
    },
    {
      "inputs": [
        {
          "internalType": "uint256",
          "name": "_leagueId",
          "type": "uint256"
        }
      ],
      "name": "claimRewards",
      "outputs": [],
      "stateMutability": "nonpayable",
      "type": "function"
    },
    {
      "inputs": [
        {
          "internalType": "string",
          "name": "_description",
          "type": "string"
        },
        {
          "internalType": "uint256",
          "name": "_resolveTime",
          "type": "uint256"
        }
      ],
      "name": "createLeagues",
      "outputs": [],
      "stateMutability": "nonpayable",
      "type": "function"
    },
    {
      "inputs": [
        {
          "internalType": "address[]",
          "name": "_playerTokens",
          "type": "address[]"
        },
        {
          "internalType": "uint256",
          "name": "_leagueId",
          "type": "uint256"
        }
      ],
      "name": "createTeam",
      "outputs": [],
      "stateMutability": "payable",
      "type": "function"
    },
    {
      "inputs": [
        {
          "internalType": "uint256",
          "name": "_leagueId",
          "type": "uint256"
        }
      ],
      "name": "getTopUser",
      "outputs": [
        {
          "internalType": "address",
          "name": "",
          "type": "address"
        }
      ],
      "stateMutability": "view",
      "type": "function"
    },
    {
      "inputs": [
        {
          "internalType": "uint256",
          "name": "_leagueId",
          "type": "uint256"
        },
        {
          "internalType": "address",
          "name": "user",
          "type": "address"
        }
      ],
      "name": "getUserPlayers",
      "outputs": [
        {
          "internalType": "uint256",
          "name": "",
          "type": "uint256"
        }
      ],
      "stateMutability": "view",
      "type": "function"
    },
    {
      "inputs": [
        {
          "internalType": "uint256",
          "name": "_leagueId",
          "type": "uint256"
        }
      ],
      "name": "getUsers",
      "outputs": [
        {
          "internalType": "address[]",
          "name": "",
          "type": "address[]"
        }
      ],
      "stateMutability": "view",
      "type": "function"
    },
    {
      "inputs": [
        {
          "internalType": "uint256",
          "name": "",
          "type": "uint256"
        },
        {
          "internalType": "address",
          "name": "",
          "type": "address"
        }
      ],
      "name": "leagueTeams",
      "outputs": [
        {
          "internalType": "uint256",
          "name": "allotedBalance",
          "type": "uint256"
        },
        {
          "internalType": "uint256",
          "name": "totalValue",
          "type": "uint256"
        }
      ],
      "stateMutability": "view",
      "type": "function"
    },
    {
      "inputs": [
        {
          "internalType": "uint256",
          "name": "",
          "type": "uint256"
        }
      ],
      "name": "leagues",
      "outputs": [
        {
          "internalType": "string",
          "name": "description",
          "type": "string"
        },
        {
          "internalType": "uint256",
          "name": "totalStakes",
          "type": "uint256"
        },
        {
          "internalType": "uint256",
          "name": "resolveTime",
          "type": "uint256"
        },
        {
          "internalType": "uint256",
          "name": "gameWeek",
          "type": "uint256"
        },
        {
          "internalType": "uint256",
          "name": "gameWeekDuration",
          "type": "uint256"
        },
        {
          "internalType": "bool",
          "name": "resolved",
          "type": "bool"
        }
      ],
      "stateMutability": "view",
      "type": "function"
    },
    {
      "inputs": [],
      "name": "owner",
      "outputs": [
        {
          "internalType": "address",
          "name": "",
          "type": "address"
        }
      ],
      "stateMutability": "view",
      "type": "function"
    },
    {
      "inputs": [],
      "name": "playerTokenAMM",
      "outputs": [
        {
          "internalType": "contract IPlayerTokenAMM",
          "name": "",
          "type": "address"
        }
      ],
      "stateMutability": "view",
      "type": "function"
    },
    {
      "inputs": [
        {
          "internalType": "address",
          "name": "",
          "type": "address"
        }
      ],
      "name": "players",
      "outputs": [
        {
          "internalType": "contract PlayerToken",
          "name": "token",
          "type": "address"
        },
        {
          "internalType": "uint256",
          "name": "price",
          "type": "uint256"
        }
      ],
      "stateMutability": "view",
      "type": "function"
    },
    {
      "inputs": [
        {
          "internalType": "address",
          "name": "_sellPlayerToken",
          "type": "address"
        },
        {
          "internalType": "uint256",
          "name": "_leagueId",
          "type": "uint256"
        }
      ],
      "name": "sellPLayer",
      "outputs": [],
      "stateMutability": "payable",
      "type": "function"
    },
    {
      "inputs": [],
      "name": "virtualBalance",
      "outputs": [
        {
          "internalType": "uint256",
          "name": "",
          "type": "uint256"
        }
      ],
      "stateMutability": "view",
      "type": "function"
    }
  ],
  "bytecode": "0x60806040526001600455678ac7230489e800006005553480156200002257600080fd5b50604051620060b9380380620060b9833981810160405281019062000048919062000186565b600160008190555082600360006101000a81548173ffffffffffffffffffffffffffffffffffffffff021916908373ffffffffffffffffffffffffffffffffffffffff16021790555081600260006101000a81548173ffffffffffffffffffffffffffffffffffffffff021916908373ffffffffffffffffffffffffffffffffffffffff16021790555080600160006101000a81548173ffffffffffffffffffffffffffffffffffffffff021916908373ffffffffffffffffffffffffffffffffffffffff160217905550505050620001e2565b600080fd5b600073ffffffffffffffffffffffffffffffffffffffff82169050919050565b60006200014e8262000121565b9050919050565b620001608162000141565b81146200016c57600080fd5b50565b600081519050620001808162000155565b92915050565b600080600060608486031215620001a257620001a16200011c565b5b6000620001b2868287016200016f565b9350506020620001c5868287016200016f565b9250506040620001d8868287016200016f565b9150509250925092565b615ec780620001f26000396000f3fe6080604052600436106200010a5760003560e01c806393b6a5731162000097578063dcd2af171162000061578063dcd2af171462000370578063e2769ca414620003a0578063e2eb41ff14620003e5578063f5a973e8146200042a576200010a565b806393b6a57314620002a9578063a3c6eb7914620002c9578063c55dae6314620002f7578063c648fefe1462000327576200010a565b8063641c498411620000d9578063641c498414620001e5578063694688de14620002295780638418992014620002495780638da5cb5b1462000279576200010a565b80630962ef79146200010f578063103492da146200013d57806336944db914620001815780635d73ab9a14620001a1575b600080fd5b3480156200011c57600080fd5b506200013b600480360381019062000135919062002dc2565b62000458565b005b3480156200014a57600080fd5b5062000169600480360381019062000163919062002dc2565b620008ab565b60405162000178919062002e39565b60405180910390f35b6200019f600480360381019062000199919062002e87565b620009ff565b005b348015620001ae57600080fd5b50620001cd6004803603810190620001c7919062002dc2565b6200117b565b604051620001dc919062002f9c565b60405180910390f35b348015620001f257600080fd5b506200021160048036038101906200020b919062002fc0565b6200121e565b60405162000220919062003018565b60405180910390f35b620002476004803603810190620002419190620030a3565b6200127f565b005b3480156200025657600080fd5b506200026162001a05565b60405162000270919062003178565b60405180910390f35b3480156200028657600080fd5b506200029162001a2b565b604051620002a0919062002e39565b60405180910390f35b620002c76004803603810190620002c1919062002e87565b62001a51565b005b348015620002d657600080fd5b50620002f56004803603810190620002ef9190620032f2565b620021f9565b005b3480156200030457600080fd5b506200030f620026d7565b6040516200031e919062003408565b60405180910390f35b3480156200033457600080fd5b506200035360048036038101906200034d919062002dc2565b620026fd565b6040516200036796959493929190620034cb565b60405180910390f35b3480156200037d57600080fd5b5062000388620027d6565b60405162000397919062003018565b60405180910390f35b348015620003ad57600080fd5b50620003cc6004803603810190620003c6919062002fc0565b620027dc565b604051620003dc9291906200353f565b60405180910390f35b348015620003f257600080fd5b506200041160048036038101906200040b91906200356c565b6200280d565b60405162000421929190620035c3565b60405180910390f35b3480156200043757600080fd5b50620004566004803603810190620004509190620035f0565b62002851565b005b8060006008600083815260200190815260200160002060003373ffffffffffffffffffffffffffffffffffffffff1673ffffffffffffffffffffffffffffffffffffffff1681526020019081526020016000206001018054905003620004f5576040517f08c379a0000000000000000000000000000000000000000000000000000000008152600401620004ec90620036a6565b60405180910390fd5b6004548210801562000508575060008214155b6200054a576040517f08c379a0000000000000000000000000000000000000000000000000000000008152600401620005419062003718565b60405180910390fd5b6005600760008481526020019081526020016000206003015410620005a6576040517f08c379a00000000000000000000000000000000000000000000000000000000081526004016200059d906200378a565b60405180910390fd5b600060076000848152602001908152602001600020600301546005620005cd9190620037db565b6007600085815260200190815260200160002060040154620005f0919062003816565b6007600085815260200190815260200160002060020154620006139190620037db565b9050804210156200065b576040517f08c379a00000000000000000000000000000000000000000000000000000000081526004016200065290620038d7565b60405180910390fd5b3373ffffffffffffffffffffffffffffffffffffffff166200067d84620008ab565b73ffffffffffffffffffffffffffffffffffffffff1614620006d6576040517f08c379a0000000000000000000000000000000000000000000000000000000008152600401620006cd9062003949565b60405180910390fd5b60006007600085815260200190815260200160002060010154905060003373ffffffffffffffffffffffffffffffffffffffff16826040516200071990620039a0565b60006040518083038185875af1925050503d806000811462000758576040519150601f19603f3d011682016040523d82523d6000602084013e6200075d565b606091505b505090506001151581151514620007ab576040517f08c379a0000000000000000000000000000000000000000000000000000000008152600401620007a29062003a07565b60405180910390fd5b6008600086815260200190815260200160002060003373ffffffffffffffffffffffffffffffffffffffff1673ffffffffffffffffffffffffffffffffffffffff16815260200190815260200160002060006001820160006200080f919062002d23565b6002820160009055600382016000905550506007600086815260200190815260200160002060030160008154809291906200084a9062003a29565b9190505550600060076000878152602001908152602001600020600101819055507ffec02445b4dcb9e977f70b2966aab1907694acaa22a61ef1ff7d6ee2cb8ed780336040516200089c919062002e39565b60405180910390a15050505050565b60008060009050600080600090505b6009600086815260200190815260200160002080549050811015620009f457600060086000878152602001908152602001600020600060096000898152602001908152602001600020848154811062000918576200091762003a76565b5b9060005260206000200160009054906101000a900473ffffffffffffffffffffffffffffffffffffffff1673ffffffffffffffffffffffffffffffffffffffff1673ffffffffffffffffffffffffffffffffffffffff16815260200190815260200160002060030154905083811115620009e557809350600960008781526020019081526020016000208281548110620009b757620009b662003a76565b5b9060005260206000200160009054906101000a900473ffffffffffffffffffffffffffffffffffffffff1692505b508080600101915050620008ba565b508092505050919050565b8060006008600083815260200190815260200160002060003373ffffffffffffffffffffffffffffffffffffffff1673ffffffffffffffffffffffffffffffffffffffff168152602001908152602001600020600101805490500362000a9c576040517f08c379a000000000000000000000000000000000000000000000000000000000815260040162000a9390620036a6565b60405180910390fd5b6004548210801562000aaf575060008214155b62000af1576040517f08c379a000000000000000000000000000000000000000000000000000000000815260040162000ae89062003718565b60405180910390fd5b60006008600084815260200190815260200160002060003373ffffffffffffffffffffffffffffffffffffffff1673ffffffffffffffffffffffffffffffffffffffff16815260200190815260200160002060000160008573ffffffffffffffffffffffffffffffffffffffff1673ffffffffffffffffffffffffffffffffffffffff168152602001908152602001600020541462000bc7576040517f08c379a000000000000000000000000000000000000000000000000000000000815260040162000bbe9062003af5565b60405180910390fd5b6706f05b59d3b20000341462000c14576040517f08c379a000000000000000000000000000000000000000000000000000000000815260040162000c0b9062003b67565b60405180910390fd5b6000600260009054906101000a900473ffffffffffffffffffffffffffffffffffffffff1673ffffffffffffffffffffffffffffffffffffffff16638b232511856040518263ffffffff1660e01b815260040162000c73919062002e39565b602060405180830381865afa15801562000c91573d6000803e3d6000fd5b505050506040513d601f19601f8201168201806040525081019062000cb7919062003ba0565b905060006008600085815260200190815260200160002060003373ffffffffffffffffffffffffffffffffffffffff1673ffffffffffffffffffffffffffffffffffffffff168152602001908152602001600020600301549050816008600086815260200190815260200160002060003373ffffffffffffffffffffffffffffffffffffffff1673ffffffffffffffffffffffffffffffffffffffff16815260200190815260200160002060020154101562000daa576040517f08c379a000000000000000000000000000000000000000000000000000000000815260040162000da19062003c48565b60405180910390fd5b818162000db8919062003c6a565b9050806008600086815260200190815260200160002060003373ffffffffffffffffffffffffffffffffffffffff1673ffffffffffffffffffffffffffffffffffffffff16815260200190815260200160002060030181905550600360009054906101000a900473ffffffffffffffffffffffffffffffffffffffff1673ffffffffffffffffffffffffffffffffffffffff1663095ea7b3600260009054906101000a900473ffffffffffffffffffffffffffffffffffffffff16846040518363ffffffff1660e01b815260040162000e9392919062003ca5565b6020604051808303816000875af115801562000eb3573d6000803e3d6000fd5b505050506040513d601f19601f8201168201806040525081019062000ed9919062003d03565b50600260009054906101000a900473ffffffffffffffffffffffffffffffffffffffff1673ffffffffffffffffffffffffffffffffffffffff16631abde1fc866040518263ffffffff1660e01b815260040162000f37919062002e39565b600060405180830381600087803b15801562000f5257600080fd5b505af115801562000f67573d6000803e3d6000fd5b505050506008600085815260200190815260200160002060003373ffffffffffffffffffffffffffffffffffffffff1673ffffffffffffffffffffffffffffffffffffffff168152602001908152602001600020600101859080600181540180825580915050600190039060005260206000200160009091909190916101000a81548173ffffffffffffffffffffffffffffffffffffffff021916908373ffffffffffffffffffffffffffffffffffffffff160217905550816008600086815260200190815260200160002060003373ffffffffffffffffffffffffffffffffffffffff1673ffffffffffffffffffffffffffffffffffffffff16815260200190815260200160002060000160008773ffffffffffffffffffffffffffffffffffffffff1673ffffffffffffffffffffffffffffffffffffffff16815260200190815260200160002081905550816008600086815260200190815260200160002060003373ffffffffffffffffffffffffffffffffffffffff1673ffffffffffffffffffffffffffffffffffffffff1681526020019081526020016000206002016000828254620011199190620037db565b925050819055508473ffffffffffffffffffffffffffffffffffffffff167fa1e60355d160a01c592376fde5eef7bfa4aaccb2730c65225c30bd4307265fe93384876040516200116c9392919062003d35565b60405180910390a25050505050565b6060600960008381526020019081526020016000208054806020026020016040519081016040528092919081815260200182805480156200121257602002820191906000526020600020905b8160009054906101000a900473ffffffffffffffffffffffffffffffffffffffff1673ffffffffffffffffffffffffffffffffffffffff1681526020019060010190808311620011c7575b50505050509050919050565b60006008600084815260200190815260200160002060008373ffffffffffffffffffffffffffffffffffffffff1673ffffffffffffffffffffffffffffffffffffffff16815260200190815260200160002060010180549050905092915050565b600b838390501115620012c9576040517f08c379a0000000000000000000000000000000000000000000000000000000008152600401620012c09062003de8565b60405180910390fd5b60045481108015620012dc575060008114155b6200131e576040517f08c379a0000000000000000000000000000000000000000000000000000000008152600401620013159062003718565b60405180910390fd5b60006008600083815260200190815260200160002060003373ffffffffffffffffffffffffffffffffffffffff1673ffffffffffffffffffffffffffffffffffffffff1681526020019081526020016000206001018054905014620013ba576040517f08c379a0000000000000000000000000000000000000000000000000000000008152600401620013b19062003e5a565b60405180910390fd5b678ac7230489e80000341462001407576040517f08c379a0000000000000000000000000000000000000000000000000000000008152600401620013fe9062003ecc565b60405180910390fd5b678ac7230489e8000060076000838152602001908152602001600020600101600082825462001437919062003c6a565b9250508190555060096000828152602001908152602001600020339080600181540180825580915050600190039060005260206000200160009091909190916101000a81548173ffffffffffffffffffffffffffffffffffffffff021916908373ffffffffffffffffffffffffffffffffffffffff1602179055506005546008600083815260200190815260200160002060003373ffffffffffffffffffffffffffffffffffffffff1673ffffffffffffffffffffffffffffffffffffffff168152602001908152602001600020600201819055506005546200155b848480806020026020016040519081016040528093929190818152602001838360200280828437600081840152601f19601f82011690508083019250505050505050620029e9565b11156200159f576040517f08c379a0000000000000000000000000000000000000000000000000000000008152600401620015969062003f64565b60405180910390fd5b6000805b84849050811015620018e6576000858583818110620015c757620015c662003a76565b5b9050602002016020810190620015de91906200356c565b90506000600660008373ffffffffffffffffffffffffffffffffffffffff1673ffffffffffffffffffffffffffffffffffffffff168152602001908152602001600020600101541162001668576040517f08c379a00000000000000000000000000000000000000000000000000000000081526004016200165f9062003fd6565b60405180910390fd5b600660008273ffffffffffffffffffffffffffffffffffffffff1673ffffffffffffffffffffffffffffffffffffffff168152602001908152602001600020600101546008600086815260200190815260200160002060003373ffffffffffffffffffffffffffffffffffffffff1673ffffffffffffffffffffffffffffffffffffffff16815260200190815260200160002060000160008373ffffffffffffffffffffffffffffffffffffffff1673ffffffffffffffffffffffffffffffffffffffff168152602001908152602001600020819055506008600085815260200190815260200160002060003373ffffffffffffffffffffffffffffffffffffffff1673ffffffffffffffffffffffffffffffffffffffff168152602001908152602001600020600101819080600181540180825580915050600190039060005260206000200160009091909190916101000a81548173ffffffffffffffffffffffffffffffffffffffff021916908373ffffffffffffffffffffffffffffffffffffffff16021790555060008190508073ffffffffffffffffffffffffffffffffffffffff1663a9059cbb33670de0b6b3a76400006040518363ffffffff1660e01b81526004016200183d9291906200403b565b6020604051808303816000875af11580156200185d573d6000803e3d6000fd5b505050506040513d601f19601f8201168201806040525081019062001883919062003d03565b50600660008373ffffffffffffffffffffffffffffffffffffffff1673ffffffffffffffffffffffffffffffffffffffff1681526020019081526020016000206001015484620018d4919062003c6a565b935050508080600101915050620015a3565b50806008600084815260200190815260200160002060003373ffffffffffffffffffffffffffffffffffffffff1673ffffffffffffffffffffffffffffffffffffffff16815260200190815260200160002060030181905550806008600084815260200190815260200160002060003373ffffffffffffffffffffffffffffffffffffffff1673ffffffffffffffffffffffffffffffffffffffff1681526020019081526020016000206002016000828254620019a49190620037db565b925050819055503373ffffffffffffffffffffffffffffffffffffffff167fc3b3ba29b15ce32797443d535d5a1caf347575b868d4a816f749dfb61e603612858585604051620019f79392919062004101565b60405180910390a250505050565b600260009054906101000a900473ffffffffffffffffffffffffffffffffffffffff1681565b600160009054906101000a900473ffffffffffffffffffffffffffffffffffffffff1681565b8060006008600083815260200190815260200160002060003373ffffffffffffffffffffffffffffffffffffffff1673ffffffffffffffffffffffffffffffffffffffff168152602001908152602001600020600101805490500362001aee576040517f08c379a000000000000000000000000000000000000000000000000000000000815260040162001ae590620036a6565b60405180910390fd5b60006008600084815260200190815260200160002060003373ffffffffffffffffffffffffffffffffffffffff1673ffffffffffffffffffffffffffffffffffffffff16815260200190815260200160002060000160008573ffffffffffffffffffffffffffffffffffffffff1673ffffffffffffffffffffffffffffffffffffffff168152602001908152602001600020540362001bc4576040517f08c379a000000000000000000000000000000000000000000000000000000000815260040162001bbb9062004187565b60405180910390fd5b6004548210801562001bd7575060008214155b62001c19576040517f08c379a000000000000000000000000000000000000000000000000000000000815260040162001c109062003718565b60405180910390fd5b6706f05b59d3b20000341462001c66576040517f08c379a000000000000000000000000000000000000000000000000000000000815260040162001c5d9062003b67565b60405180910390fd5b6000600260009054906101000a900473ffffffffffffffffffffffffffffffffffffffff1673ffffffffffffffffffffffffffffffffffffffff16638b232511856040518263ffffffff1660e01b815260040162001cc5919062002e39565b602060405180830381865afa15801562001ce3573d6000803e3d6000fd5b505050506040513d601f19601f8201168201806040525081019062001d09919062003ba0565b9050600062001da9826008600087815260200190815260200160002060003373ffffffffffffffffffffffffffffffffffffffff1673ffffffffffffffffffffffffffffffffffffffff16815260200190815260200160002060000160008873ffffffffffffffffffffffffffffffffffffffff1673ffffffffffffffffffffffffffffffffffffffff1681526020019081526020016000205462002b29565b905060006008600086815260200190815260200160002060003373ffffffffffffffffffffffffffffffffffffffff1673ffffffffffffffffffffffffffffffffffffffff1681526020019081526020016000206003015490506008600086815260200190815260200160002060003373ffffffffffffffffffffffffffffffffffffffff1673ffffffffffffffffffffffffffffffffffffffff16815260200190815260200160002060000160008773ffffffffffffffffffffffffffffffffffffffff1673ffffffffffffffffffffffffffffffffffffffff168152602001908152602001600020548162001ea19190620037db565b9050806008600087815260200190815260200160002060003373ffffffffffffffffffffffffffffffffffffffff1673ffffffffffffffffffffffffffffffffffffffff1681526020019081526020016000206003018190555060008690508073ffffffffffffffffffffffffffffffffffffffff1663095ea7b3600260009054906101000a900473ffffffffffffffffffffffffffffffffffffffff16670de0b6b3a76400006040518363ffffffff1660e01b815260040162001f679291906200403b565b6020604051808303816000875af115801562001f87573d6000803e3d6000fd5b505050506040513d601f19601f8201168201806040525081019062001fad919062003d03565b50600260009054906101000a900473ffffffffffffffffffffffffffffffffffffffff1673ffffffffffffffffffffffffffffffffffffffff16635e30d9c288856040518363ffffffff1660e01b81526004016200200d92919062003ca5565b600060405180830381600087803b1580156200202857600080fd5b505af11580156200203d573d6000803e3d6000fd5b50505050826008600088815260200190815260200160002060003373ffffffffffffffffffffffffffffffffffffffff1673ffffffffffffffffffffffffffffffffffffffff1681526020019081526020016000206002016000828254620020a6919062003c6a565b925050819055506008600087815260200190815260200160002060003373ffffffffffffffffffffffffffffffffffffffff1673ffffffffffffffffffffffffffffffffffffffff16815260200190815260200160002060000160008873ffffffffffffffffffffffffffffffffffffffff1673ffffffffffffffffffffffffffffffffffffffff168152602001908152602001600020600090556200219c6008600088815260200190815260200160002060003373ffffffffffffffffffffffffffffffffffffffff1673ffffffffffffffffffffffffffffffffffffffff1681526020019081526020016000208862002b7b565b8673ffffffffffffffffffffffffffffffffffffffff167f4562c6fa7a49a234abe2ae8f10320911cbf02c687f41c77d034934340f6de5c1338589604051620021e89392919062003d35565b60405180910390a250505050505050565b3373ffffffffffffffffffffffffffffffffffffffff16600160009054906101000a900473ffffffffffffffffffffffffffffffffffffffff1673ffffffffffffffffffffffffffffffffffffffff16146200228c576040517f08c379a00000000000000000000000000000000000000000000000000000000081526004016200228390620041f9565b60405180910390fd5b600087878787604051620022a09062002d46565b620022af94939291906200421b565b604051809103906000f080158015620022cc573d6000803e3d6000fd5b50905060405180604001604052808273ffffffffffffffffffffffffffffffffffffffff168152602001670de0b6b3a7640000866200230c919062003816565b815250600660008373ffffffffffffffffffffffffffffffffffffffff1673ffffffffffffffffffffffffffffffffffffffff16815260200190815260200160002060008201518160000160006101000a81548173ffffffffffffffffffffffffffffffffffffffff021916908373ffffffffffffffffffffffffffffffffffffffff160217905550602082015181600101559050508073ffffffffffffffffffffffffffffffffffffffff166340c10f1930856040518363ffffffff1660e01b8152600401620023df92919062003ca5565b600060405180830381600087803b158015620023fa57600080fd5b505af11580156200240f573d6000803e3d6000fd5b50505050600360009054906101000a900473ffffffffffffffffffffffffffffffffffffffff1673ffffffffffffffffffffffffffffffffffffffff1663095ea7b3600260009054906101000a900473ffffffffffffffffffffffffffffffffffffffff16670de0b6b3a764000085886200248b919062003816565b62002497919062003816565b6040518363ffffffff1660e01b8152600401620024b692919062003ca5565b6020604051808303816000875af1158015620024d6573d6000803e3d6000fd5b505050506040513d601f19601f82011682018060405250810190620024fc919062003d03565b508073ffffffffffffffffffffffffffffffffffffffff1663095ea7b3600260009054906101000a900473ffffffffffffffffffffffffffffffffffffffff16670de0b6b3a76400008562002552919062003816565b6040518363ffffffff1660e01b81526004016200257192919062003ca5565b6020604051808303816000875af115801562002591573d6000803e3d6000fd5b505050506040513d601f19601f82011682018060405250810190620025b7919062003d03565b50600260009054906101000a900473ffffffffffffffffffffffffffffffffffffffff1673ffffffffffffffffffffffffffffffffffffffff1663b039ddf682670de0b6b3a7640000856200260d919062003816565b876040518463ffffffff1660e01b81526004016200262e9392919062003d35565b600060405180830381600087803b1580156200264957600080fd5b505af11580156200265e573d6000803e3d6000fd5b505050508073ffffffffffffffffffffffffffffffffffffffff167f9a2cd5f74d0cdfb2a81e76ec4d47d9a7f5d7451e797a8262443095b582651bcb898888670de0b6b3a764000089620026b3919062003816565b604051620026c5949392919062004276565b60405180910390a25050505050505050565b600360009054906101000a900473ffffffffffffffffffffffffffffffffffffffff1681565b60076020528060005260406000206000915090508060000180546200272290620042f9565b80601f01602080910402602001604051908101604052809291908181526020018280546200275090620042f9565b8015620027a15780601f106200277557610100808354040283529160200191620027a1565b820191906000526020600020905b8154815290600101906020018083116200278357829003601f168201915b5050505050908060010154908060020154908060030154908060040154908060050160009054906101000a900460ff16905086565b60055481565b6008602052816000526040600020602052806000526040600020600091509150508060020154908060030154905082565b60066020528060005260406000206000915090508060000160009054906101000a900473ffffffffffffffffffffffffffffffffffffffff16908060010154905082565b3373ffffffffffffffffffffffffffffffffffffffff16600160009054906101000a900473ffffffffffffffffffffffffffffffffffffffff1673ffffffffffffffffffffffffffffffffffffffff1614620028e4576040517f08c379a0000000000000000000000000000000000000000000000000000000008152600401620028db90620041f9565b60405180910390fd5b428110156200292a576040517f08c379a000000000000000000000000000000000000000000000000000000000815260040162002921906200437e565b60405180910390fd5b600060076000600454815260200190815260200160002090508281600001908162002956919062004568565b5081816002018190555060054283620029709190620037db565b6200297c91906200467e565b8160040181905550600181600301819055506004547f063ae728261729160bd0109310040eb89b5ba66e3d576209032151332e1fcfc284604051620029c29190620046b6565b60405180910390a260046000815480929190620029df9062003a29565b9190505550505050565b6000806000905060005b835181101562002b1f5760006006600086848151811062002a195762002a1862003a76565b5b602002602001015173ffffffffffffffffffffffffffffffffffffffff1673ffffffffffffffffffffffffffffffffffffffff168152602001908152602001600020600101541162002aa2576040517f08c379a000000000000000000000000000000000000000000000000000000000815260040162002a999062003fd6565b60405180910390fd5b6006600085838151811062002abc5762002abb62003a76565b5b602002602001015173ffffffffffffffffffffffffffffffffffffffff1673ffffffffffffffffffffffffffffffffffffffff168152602001908152602001600020600101548262002b0f919062003c6a565b91508080600101915050620029f3565b5080915050919050565b60008183111562002b71576000828462002b449190620037db565b9050600060028262002b5791906200467e565b8462002b64919062003c6a565b9050809250505062002b75565b8290505b92915050565b60008260010180549050905060005b8181101562002d1d578273ffffffffffffffffffffffffffffffffffffffff1684600101828154811062002bc35762002bc262003a76565b5b9060005260206000200160009054906101000a900473ffffffffffffffffffffffffffffffffffffffff1673ffffffffffffffffffffffffffffffffffffffff160362002d0f578360010160018362002c1d9190620037db565b8154811062002c315762002c3062003a76565b5b9060005260206000200160009054906101000a900473ffffffffffffffffffffffffffffffffffffffff1684600101828154811062002c755762002c7462003a76565b5b9060005260206000200160006101000a81548173ffffffffffffffffffffffffffffffffffffffff021916908373ffffffffffffffffffffffffffffffffffffffff1602179055508360010180548062002cd45762002cd3620046da565b5b6001900381819060005260206000200160006101000a81549073ffffffffffffffffffffffffffffffffffffffff0219169055905562002d1d565b808060010191505062002b8a565b50505050565b508054600082559060005260206000209081019062002d43919062002d54565b50565b611788806200470a83390190565b5b8082111562002d6f57600081600090555060010162002d55565b5090565b6000604051905090565b600080fd5b600080fd5b6000819050919050565b62002d9c8162002d87565b811462002da857600080fd5b50565b60008135905062002dbc8162002d91565b92915050565b60006020828403121562002ddb5762002dda62002d7d565b5b600062002deb8482850162002dab565b91505092915050565b600073ffffffffffffffffffffffffffffffffffffffff82169050919050565b600062002e218262002df4565b9050919050565b62002e338162002e14565b82525050565b600060208201905062002e50600083018462002e28565b92915050565b62002e618162002e14565b811462002e6d57600080fd5b50565b60008135905062002e818162002e56565b92915050565b6000806040838503121562002ea15762002ea062002d7d565b5b600062002eb18582860162002e70565b925050602062002ec48582860162002dab565b9150509250929050565b600081519050919050565b600082825260208201905092915050565b6000819050602082019050919050565b62002f058162002e14565b82525050565b600062002f19838362002efa565b60208301905092915050565b6000602082019050919050565b600062002f3f8262002ece565b62002f4b818562002ed9565b935062002f588362002eea565b8060005b8381101562002f8f57815162002f73888262002f0b565b975062002f808362002f25565b92505060018101905062002f5c565b5085935050505092915050565b6000602082019050818103600083015262002fb8818462002f32565b905092915050565b6000806040838503121562002fda5762002fd962002d7d565b5b600062002fea8582860162002dab565b925050602062002ffd8582860162002e70565b9150509250929050565b620030128162002d87565b82525050565b60006020820190506200302f600083018462003007565b92915050565b600080fd5b600080fd5b600080fd5b60008083601f8401126200305d576200305c62003035565b5b8235905067ffffffffffffffff8111156200307d576200307c6200303a565b5b6020830191508360208202830111156200309c576200309b6200303f565b5b9250929050565b600080600060408486031215620030bf57620030be62002d7d565b5b600084013567ffffffffffffffff811115620030e057620030df62002d82565b5b620030ee8682870162003044565b93509350506020620031038682870162002dab565b9150509250925092565b6000819050919050565b600062003138620031326200312c8462002df4565b6200310d565b62002df4565b9050919050565b60006200314c8262003117565b9050919050565b600062003160826200313f565b9050919050565b620031728162003153565b82525050565b60006020820190506200318f600083018462003167565b92915050565b600080fd5b6000601f19601f8301169050919050565b7f4e487b7100000000000000000000000000000000000000000000000000000000600052604160045260246000fd5b620031e5826200319a565b810181811067ffffffffffffffff82111715620032075762003206620031ab565b5b80604052505050565b60006200321c62002d73565b90506200322a8282620031da565b919050565b600067ffffffffffffffff8211156200324d576200324c620031ab565b5b62003258826200319a565b9050602081019050919050565b82818337600083830152505050565b60006200328b62003285846200322f565b62003210565b905082815260208101848484011115620032aa57620032a962003195565b5b620032b784828562003265565b509392505050565b600082601f830112620032d757620032d662003035565b5b8135620032e984826020860162003274565b91505092915050565b600080600080600080600060e0888a03121562003314576200331362002d7d565b5b600088013567ffffffffffffffff81111562003335576200333462002d82565b5b620033438a828b01620032bf565b975050602088013567ffffffffffffffff81111562003367576200336662002d82565b5b620033758a828b01620032bf565b9650506040620033888a828b0162002dab565b95505060606200339b8a828b0162002dab565b9450506080620033ae8a828b0162002dab565b93505060a0620033c18a828b0162002dab565b92505060c0620033d48a828b0162002dab565b91505092959891949750929550565b6000620033f0826200313f565b9050919050565b6200340281620033e3565b82525050565b60006020820190506200341f6000830184620033f7565b92915050565b600081519050919050565b600082825260208201905092915050565b60005b838110156200346157808201518184015260208101905062003444565b60008484015250505050565b60006200347a8262003425565b62003486818562003430565b93506200349881856020860162003441565b620034a3816200319a565b840191505092915050565b60008115159050919050565b620034c581620034ae565b82525050565b600060c0820190508181036000830152620034e781896200346d565b9050620034f8602083018862003007565b62003507604083018762003007565b62003516606083018662003007565b62003525608083018562003007565b6200353460a0830184620034ba565b979650505050505050565b600060408201905062003556600083018562003007565b62003565602083018462003007565b9392505050565b60006020828403121562003585576200358462002d7d565b5b6000620035958482850162002e70565b91505092915050565b6000620035ab826200313f565b9050919050565b620035bd816200359e565b82525050565b6000604082019050620035da6000830185620035b2565b620035e9602083018462003007565b9392505050565b600080604083850312156200360a576200360962002d7d565b5b600083013567ffffffffffffffff8111156200362b576200362a62002d82565b5b6200363985828601620032bf565b92505060206200364c8582860162002dab565b9150509250929050565b7f596f75206469646e2774206f776e2061207465616d0000000000000000000000600082015250565b60006200368e60158362003430565b91506200369b8262003656565b602082019050919050565b60006020820190508181036000830152620036c1816200367f565b9050919050565b7f4c656167756520646f65736e2774206578697374000000000000000000000000600082015250565b60006200370060148362003430565b91506200370d82620036c8565b602082019050919050565b600060208201905081810360008301526200373381620036f1565b9050919050565b7f63616e277420636c61696d000000000000000000000000000000000000000000600082015250565b600062003772600b8362003430565b91506200377f826200373a565b602082019050919050565b60006020820190508181036000830152620037a58162003763565b9050919050565b7f4e487b7100000000000000000000000000000000000000000000000000000000600052601160045260246000fd5b6000620037e88262002d87565b9150620037f58362002d87565b925082820390508181111562003810576200380f620037ac565b5b92915050565b6000620038238262002d87565b9150620038308362002d87565b9250828202620038408162002d87565b915082820484148315176200385a5762003859620037ac565b5b5092915050565b7f43616e277420636c61696d20726577617264732079657420666f72207468697360008201527f2067616d65207765656b00000000000000000000000000000000000000000000602082015250565b6000620038bf602a8362003430565b9150620038cc8262003861565b604082019050919050565b60006020820190508181036000830152620038f281620038b0565b9050919050565b7f596f752063616e277420636c61696d2072657761726473000000000000000000600082015250565b60006200393160178362003430565b91506200393e82620038f9565b602082019050919050565b60006020820190508181036000830152620039648162003922565b9050919050565b600081905092915050565b50565b6000620039886000836200396b565b9150620039958262003976565b600082019050919050565b6000620039ad8262003979565b9150819050919050565b7f7472616e73666572206661696c65640000000000000000000000000000000000600082015250565b6000620039ef600f8362003430565b9150620039fc82620039b7565b602082019050919050565b6000602082019050818103600083015262003a2281620039e0565b9050919050565b600062003a368262002d87565b91507fffffffffffffffffffffffffffffffffffffffffffffffffffffffffffffffff820362003a6b5762003a6a620037ac565b5b600182019050919050565b7f4e487b7100000000000000000000000000000000000000000000000000000000600052603260045260246000fd5b7f596f7520616c7265616479206f776e207468697320706c617965720000000000600082015250565b600062003add601b8362003430565b915062003aea8262003aa5565b602082019050919050565b6000602082019050818103600083015262003b108162003ace565b9050919050565b7f4769766520746865206665657320666f72207472616e73666572696e67000000600082015250565b600062003b4f601d8362003430565b915062003b5c8262003b17565b602082019050919050565b6000602082019050818103600083015262003b828162003b40565b9050919050565b60008151905062003b9a8162002d91565b92915050565b60006020828403121562003bb95762003bb862002d7d565b5b600062003bc98482850162003b89565b91505092915050565b7f796f7520646f6e277420686176652062616c616e636520746f2062757920746860008201527f697320706c617965720000000000000000000000000000000000000000000000602082015250565b600062003c3060298362003430565b915062003c3d8262003bd2565b604082019050919050565b6000602082019050818103600083015262003c638162003c21565b9050919050565b600062003c778262002d87565b915062003c848362002d87565b925082820190508082111562003c9f5762003c9e620037ac565b5b92915050565b600060408201905062003cbc600083018562002e28565b62003ccb602083018462003007565b9392505050565b62003cdd81620034ae565b811462003ce957600080fd5b50565b60008151905062003cfd8162003cd2565b92915050565b60006020828403121562003d1c5762003d1b62002d7d565b5b600062003d2c8482850162003cec565b91505092915050565b600060608201905062003d4c600083018662002e28565b62003d5b602083018562003007565b62003d6a604083018462003007565b949350505050565b7f43616e27742073656c656374206d6f7265207468616e20313120706c6179657260008201527f7300000000000000000000000000000000000000000000000000000000000000602082015250565b600062003dd060218362003430565b915062003ddd8262003d72565b604082019050919050565b6000602082019050818103600083015262003e038162003dc1565b9050919050565b7f596f7520616c7265616479206f776e2061207465616d00000000000000000000600082015250565b600062003e4260168362003430565b915062003e4f8262003e0a565b602082019050919050565b6000602082019050818103600083015262003e758162003e33565b9050919050565b7f5374616b652063687a20746f20637265617465207465616d0000000000000000600082015250565b600062003eb460188362003430565b915062003ec18262003e7c565b602082019050919050565b6000602082019050818103600083015262003ee78162003ea5565b9050919050565b7f546f74616c2070726963652065786365656473203130204261736520746f6b6560008201527f6e00000000000000000000000000000000000000000000000000000000000000602082015250565b600062003f4c60218362003430565b915062003f598262003eee565b604082019050919050565b6000602082019050818103600083015262003f7f8162003f3d565b9050919050565b7f496e76616c696420706c61796572000000000000000000000000000000000000600082015250565b600062003fbe600e8362003430565b915062003fcb8262003f86565b602082019050919050565b6000602082019050818103600083015262003ff18162003faf565b9050919050565b6000819050919050565b6000620040236200401d620040178462003ff8565b6200310d565b62002d87565b9050919050565b620040358162004002565b82525050565b600060408201905062004052600083018562002e28565b6200406160208301846200402a565b9392505050565b6000819050919050565b600062004083602084018462002e70565b905092915050565b6000602082019050919050565b6000620040a6838562002ed9565b9350620040b38262004068565b8060005b85811015620040f457620040cc828462004072565b620040d8888262002f0b565b9750620040e5836200408b565b925050600181019050620040b7565b5085925050509392505050565b600060408201905081810360008301526200411e81858762004098565b90506200412f602083018462003007565b949350505050565b7f596f7520646f6e2774206f776e207468697320706c6179657200000000000000600082015250565b60006200416f60198362003430565b91506200417c8262004137565b602082019050919050565b60006020820190508181036000830152620041a28162004160565b9050919050565b7f796f7520617265206e6f7420746865206f776e65720000000000000000000000600082015250565b6000620041e160158362003430565b9150620041ee82620041a9565b602082019050919050565b600060208201905081810360008301526200421481620041d2565b9050919050565b600060808201905081810360008301526200423781876200346d565b905081810360208301526200424d81866200346d565b90506200425e604083018562003007565b6200426d606083018462003007565b95945050505050565b600060808201905081810360008301526200429281876200346d565b9050620042a3602083018662003007565b620042b2604083018562003007565b620042c1606083018462003007565b95945050505050565b7f4e487b7100000000000000000000000000000000000000000000000000000000600052602260045260246000fd5b600060028204905060018216806200431257607f821691505b602082108103620043285762004327620042ca565b5b50919050565b7f496e76616c6964207265736f6c7665642074696d650000000000000000000000600082015250565b60006200436660158362003430565b915062004373826200432e565b602082019050919050565b60006020820190508181036000830152620043998162004357565b9050919050565b60008190508160005260206000209050919050565b60006020601f8301049050919050565b600082821b905092915050565b600060088302620044047fffffffffffffffffffffffffffffffffffffffffffffffffffffffffffffffff82620043c5565b620044108683620043c5565b95508019841693508086168417925050509392505050565b600062004449620044436200443d8462002d87565b6200310d565b62002d87565b9050919050565b6000819050919050565b620044658362004428565b6200447d620044748262004450565b848454620043d2565b825550505050565b600090565b6200449462004485565b620044a18184846200445a565b505050565b5b81811015620044c957620044bd6000826200448a565b600181019050620044a7565b5050565b601f8211156200451857620044e281620043a0565b620044ed84620043b5565b81016020851015620044fd578190505b620045156200450c85620043b5565b830182620044a6565b50505b505050565b600082821c905092915050565b60006200453d600019846008026200451d565b1980831691505092915050565b60006200455883836200452a565b9150826002028217905092915050565b620045738262003425565b67ffffffffffffffff8111156200458f576200458e620031ab565b5b6200459b8254620042f9565b620045a8828285620044cd565b600060209050601f831160018114620045e05760008415620045cb578287015190505b620045d785826200454a565b86555062004647565b601f198416620045f086620043a0565b60005b828110156200461a57848901518255600182019150602085019450602081019050620045f3565b868310156200463a578489015162004636601f8916826200452a565b8355505b6001600288020188555050505b505050505050565b7f4e487b7100000000000000000000000000000000000000000000000000000000600052601260045260246000fd5b60006200468b8262002d87565b9150620046988362002d87565b925082620046ab57620046aa6200464f565b5b828204905092915050565b60006020820190508181036000830152620046d281846200346d565b905092915050565b7f4e487b7100000000000000000000000000000000000000000000000000000000600052603160045260246000fdfe60806040523480156200001157600080fd5b506040516200178838038062001788833981810160405281019062000037919062000286565b838381600390816200004a919062000577565b5080600490816200005c919062000577565b505050816005819055508060068190555033600760006101000a81548173ffffffffffffffffffffffffffffffffffffffff021916908373ffffffffffffffffffffffffffffffffffffffff160217905550505050506200065e565b6000604051905090565b600080fd5b600080fd5b600080fd5b600080fd5b6000601f19601f8301169050919050565b7f4e487b7100000000000000000000000000000000000000000000000000000000600052604160045260246000fd5b6200012182620000d6565b810181811067ffffffffffffffff82111715620001435762000142620000e7565b5b80604052505050565b600062000158620000b8565b905062000166828262000116565b919050565b600067ffffffffffffffff821115620001895762000188620000e7565b5b6200019482620000d6565b9050602081019050919050565b60005b83811015620001c1578082015181840152602081019050620001a4565b60008484015250505050565b6000620001e4620001de846200016b565b6200014c565b905082815260208101848484011115620002035762000202620000d1565b5b62000210848285620001a1565b509392505050565b600082601f83011262000230576200022f620000cc565b5b815162000242848260208601620001cd565b91505092915050565b6000819050919050565b62000260816200024b565b81146200026c57600080fd5b50565b600081519050620002808162000255565b92915050565b60008060008060808587031215620002a357620002a2620000c2565b5b600085015167ffffffffffffffff811115620002c457620002c3620000c7565b5b620002d28782880162000218565b945050602085015167ffffffffffffffff811115620002f657620002f5620000c7565b5b620003048782880162000218565b935050604062000317878288016200026f565b92505060606200032a878288016200026f565b91505092959194509250565b600081519050919050565b7f4e487b7100000000000000000000000000000000000000000000000000000000600052602260045260246000fd5b600060028204905060018216806200038957607f821691505b6020821081036200039f576200039e62000341565b5b50919050565b60008190508160005260206000209050919050565b60006020601f8301049050919050565b600082821b905092915050565b600060088302620004097fffffffffffffffffffffffffffffffffffffffffffffffffffffffffffffffff82620003ca565b620004158683620003ca565b95508019841693508086168417925050509392505050565b6000819050919050565b600062000458620004526200044c846200024b565b6200042d565b6200024b565b9050919050565b6000819050919050565b620004748362000437565b6200048c62000483826200045f565b848454620003d7565b825550505050565b600090565b620004a362000494565b620004b081848462000469565b505050565b5b81811015620004d857620004cc60008262000499565b600181019050620004b6565b5050565b601f8211156200052757620004f181620003a5565b620004fc84620003ba565b810160208510156200050c578190505b620005246200051b85620003ba565b830182620004b5565b50505b505050565b600082821c905092915050565b60006200054c600019846008026200052c565b1980831691505092915050565b600062000567838362000539565b9150826002028217905092915050565b620005828262000336565b67ffffffffffffffff8111156200059e576200059d620000e7565b5b620005aa825462000370565b620005b7828285620004dc565b600060209050601f831160018114620005ef5760008415620005da578287015190505b620005e6858262000559565b86555062000656565b601f198416620005ff86620003a5565b60005b82811015620006295784890151825560018201915060208501945060208101905062000602565b8683101562000649578489015162000645601f89168262000539565b8355505b6001600288020188555050505b505050505050565b61111a806200066e6000396000f3fe608060405234801561001057600080fd5b50600436106100cf5760003560e01c806340c10f191161008c5780638da5cb5b116100665780638da5cb5b1461021657806395d89b4114610234578063a9059cbb14610252578063dd62ed3e14610282576100cf565b806340c10f19146101ac57806370a08231146101c857806385f2aef2146101f8576100cf565b806306fdde03146100d457806309218e91146100f2578063095ea7b31461011057806318160ddd1461014057806323b872dd1461015e578063313ce5671461018e575b600080fd5b6100dc6102b2565b6040516100e99190610cc0565b60405180910390f35b6100fa610344565b6040516101079190610cfb565b60405180910390f35b61012a60048036038101906101259190610da5565b61034a565b6040516101379190610e00565b60405180910390f35b61014861036d565b6040516101559190610cfb565b60405180910390f35b61017860048036038101906101739190610e1b565b610377565b6040516101859190610e00565b60405180910390f35b6101966103a6565b6040516101a39190610e8a565b60405180910390f35b6101c660048036038101906101c19190610da5565b6103af565b005b6101e260048036038101906101dd9190610ea5565b610460565b6040516101ef9190610cfb565b60405180910390f35b6102006104a8565b60405161020d9190610cfb565b60405180910390f35b61021e6104ae565b60405161022b9190610ee1565b60405180910390f35b61023c6104d4565b6040516102499190610cc0565b60405180910390f35b61026c60048036038101906102679190610da5565b610566565b6040516102799190610e00565b60405180910390f35b61029c60048036038101906102979190610efc565b610589565b6040516102a99190610cfb565b60405180910390f35b6060600380546102c190610f6b565b80601f01602080910402602001604051908101604052809291908181526020018280546102ed90610f6b565b801561033a5780601f1061030f5761010080835404028352916020019161033a565b820191906000526020600020905b81548152906001019060200180831161031d57829003601f168201915b5050505050905090565b60055481565b600080610355610610565b9050610362818585610618565b600191505092915050565b6000600254905090565b600080610382610610565b905061038f85828561062a565b61039a8585856106be565b60019150509392505050565b60006012905090565b3373ffffffffffffffffffffffffffffffffffffffff16600760009054906101000a900473ffffffffffffffffffffffffffffffffffffffff1673ffffffffffffffffffffffffffffffffffffffff161461043f576040517f08c379a000000000000000000000000000000000000000000000000000000000815260040161043690610fe8565b60405180910390fd5b61045c82670de0b6b3a7640000836104579190611037565b6107b2565b5050565b60008060008373ffffffffffffffffffffffffffffffffffffffff1673ffffffffffffffffffffffffffffffffffffffff168152602001908152602001600020549050919050565b60065481565b600760009054906101000a900473ffffffffffffffffffffffffffffffffffffffff1681565b6060600480546104e390610f6b565b80601f016020809104026020016040519081016040528092919081815260200182805461050f90610f6b565b801561055c5780601f106105315761010080835404028352916020019161055c565b820191906000526020600020905b81548152906001019060200180831161053f57829003601f168201915b5050505050905090565b600080610571610610565b905061057e8185856106be565b600191505092915050565b6000600160008473ffffffffffffffffffffffffffffffffffffffff1673ffffffffffffffffffffffffffffffffffffffff16815260200190815260200160002060008373ffffffffffffffffffffffffffffffffffffffff1673ffffffffffffffffffffffffffffffffffffffff16815260200190815260200160002054905092915050565b600033905090565b6106258383836001610834565b505050565b60006106368484610589565b90507fffffffffffffffffffffffffffffffffffffffffffffffffffffffffffffffff81146106b857818110156106a8578281836040517ffb8f41b200000000000000000000000000000000000000000000000000000000815260040161069f93929190611079565b60405180910390fd5b6106b784848484036000610834565b5b50505050565b600073ffffffffffffffffffffffffffffffffffffffff168373ffffffffffffffffffffffffffffffffffffffff16036107305760006040517f96c6fd1e0000000000000000000000000000000000000000000000000000000081526004016107279190610ee1565b60405180910390fd5b600073ffffffffffffffffffffffffffffffffffffffff168273ffffffffffffffffffffffffffffffffffffffff16036107a25760006040517fec442f050000000000000000000000000000000000000000000000000000000081526004016107999190610ee1565b60405180910390fd5b6107ad838383610a0b565b505050565b600073ffffffffffffffffffffffffffffffffffffffff168273ffffffffffffffffffffffffffffffffffffffff16036108245760006040517fec442f0500000000000000000000000000000000000000000000000000000000815260040161081b9190610ee1565b60405180910390fd5b61083060008383610a0b565b5050565b600073ffffffffffffffffffffffffffffffffffffffff168473ffffffffffffffffffffffffffffffffffffffff16036108a65760006040517fe602df0500000000000000000000000000000000000000000000000000000000815260040161089d9190610ee1565b60405180910390fd5b600073ffffffffffffffffffffffffffffffffffffffff168373ffffffffffffffffffffffffffffffffffffffff16036109185760006040517f94280d6200000000000000000000000000000000000000000000000000000000815260040161090f9190610ee1565b60405180910390fd5b81600160008673ffffffffffffffffffffffffffffffffffffffff1673ffffffffffffffffffffffffffffffffffffffff16815260200190815260200160002060008573ffffffffffffffffffffffffffffffffffffffff1673ffffffffffffffffffffffffffffffffffffffff168152602001908152602001600020819055508015610a05578273ffffffffffffffffffffffffffffffffffffffff168473ffffffffffffffffffffffffffffffffffffffff167f8c5be1e5ebec7d5bd14f71427d1e84f3dd0314c0f7b2291e5b200ac8c7c3b925846040516109fc9190610cfb565b60405180910390a35b50505050565b600073ffffffffffffffffffffffffffffffffffffffff168373ffffffffffffffffffffffffffffffffffffffff1603610a5d578060026000828254610a5191906110b0565b92505081905550610b30565b60008060008573ffffffffffffffffffffffffffffffffffffffff1673ffffffffffffffffffffffffffffffffffffffff16815260200190815260200160002054905081811015610ae9578381836040517fe450d38c000000000000000000000000000000000000000000000000000000008152600401610ae093929190611079565b60405180910390fd5b8181036000808673ffffffffffffffffffffffffffffffffffffffff1673ffffffffffffffffffffffffffffffffffffffff16815260200190815260200160002081905550505b600073ffffffffffffffffffffffffffffffffffffffff168273ffffffffffffffffffffffffffffffffffffffff1603610b795780600260008282540392505081905550610bc6565b806000808473ffffffffffffffffffffffffffffffffffffffff1673ffffffffffffffffffffffffffffffffffffffff168152602001908152602001600020600082825401925050819055505b8173ffffffffffffffffffffffffffffffffffffffff168373ffffffffffffffffffffffffffffffffffffffff167fddf252ad1be2c89b69c2b068fc378daa952ba7f163c4a11628f55a4df523b3ef83604051610c239190610cfb565b60405180910390a3505050565b600081519050919050565b600082825260208201905092915050565b60005b83811015610c6a578082015181840152602081019050610c4f565b60008484015250505050565b6000601f19601f8301169050919050565b6000610c9282610c30565b610c9c8185610c3b565b9350610cac818560208601610c4c565b610cb581610c76565b840191505092915050565b60006020820190508181036000830152610cda8184610c87565b905092915050565b6000819050919050565b610cf581610ce2565b82525050565b6000602082019050610d106000830184610cec565b92915050565b600080fd5b600073ffffffffffffffffffffffffffffffffffffffff82169050919050565b6000610d4682610d1b565b9050919050565b610d5681610d3b565b8114610d6157600080fd5b50565b600081359050610d7381610d4d565b92915050565b610d8281610ce2565b8114610d8d57600080fd5b50565b600081359050610d9f81610d79565b92915050565b60008060408385031215610dbc57610dbb610d16565b5b6000610dca85828601610d64565b9250506020610ddb85828601610d90565b9150509250929050565b60008115159050919050565b610dfa81610de5565b82525050565b6000602082019050610e156000830184610df1565b92915050565b600080600060608486031215610e3457610e33610d16565b5b6000610e4286828701610d64565b9350506020610e5386828701610d64565b9250506040610e6486828701610d90565b9150509250925092565b600060ff82169050919050565b610e8481610e6e565b82525050565b6000602082019050610e9f6000830184610e7b565b92915050565b600060208284031215610ebb57610eba610d16565b5b6000610ec984828501610d64565b91505092915050565b610edb81610d3b565b82525050565b6000602082019050610ef66000830184610ed2565b92915050565b60008060408385031215610f1357610f12610d16565b5b6000610f2185828601610d64565b9250506020610f3285828601610d64565b9150509250929050565b7f4e487b7100000000000000000000000000000000000000000000000000000000600052602260045260246000fd5b60006002820490506001821680610f8357607f821691505b602082108103610f9657610f95610f3c565b5b50919050565b7f796f7520617265206e6f7420746865206f776e65720000000000000000000000600082015250565b6000610fd2601583610c3b565b9150610fdd82610f9c565b602082019050919050565b6000602082019050818103600083015261100181610fc5565b9050919050565b7f4e487b7100000000000000000000000000000000000000000000000000000000600052601160045260246000fd5b600061104282610ce2565b915061104d83610ce2565b925082820261105b81610ce2565b9150828204841483151761107257611071611008565b5b5092915050565b600060608201905061108e6000830186610ed2565b61109b6020830185610cec565b6110a86040830184610cec565b949350505050565b60006110bb82610ce2565b91506110c683610ce2565b92508282019050808211156110de576110dd611008565b5b9291505056fea264697066735822122058bb8a2e5ef81224123ca98b459bfd798c699ba6cf064c15d68ae13774b23b9c64736f6c63430008180033a26469706673582212208bfdeb930d59aa7862919af0daed3afd4fa7002271729210d85630ccc4638c8464736f6c63430008180033",
  "linkReferences": {},
  "deployedLinkReferences": {}
}