{
  "_format": "hh-sol-artifact-1",
  "contractName": "BanterFantasySports",
  "sourceName": "contracts/Main.sol",
  "abi": [
    {
      "inputs": [
        {
          "internalType": "address",
          "name": "_baseTokenAddress",
          "type": "address"
        },
        {
          "internalType": "address",
          "name": "_playerTokenAMMAddress",
          "type": "address"
        },
        {
          "internalType": "address",
          "name": "_owner",
          "type": "address"
        }
      ],
      "stateMutability": "nonpayable",
      "type": "constructor"
    },
    {
      "inputs": [],
      "name": "ReentrancyGuardReentrantCall",
      "type": "error"
    },
    {
      "anonymous": false,
      "inputs": [
        {
          "indexed": true,
          "internalType": "uint256",
          "name": "leagueId",
          "type": "uint256"
        },
        {
          "indexed": false,
          "internalType": "string",
          "name": "description",
          "type": "string"
        },
        {
          "indexed": false,
          "internalType": "uint256",
          "name": "resolveTime",
          "type": "uint256"
        }
      ],
      "name": "LeagueCreated",
      "type": "event"
    },
    {
      "anonymous": false,
      "inputs": [
        {
          "indexed": true,
          "internalType": "address",
          "name": "tokenAddress",
          "type": "address"
        },
        {
          "indexed": false,
          "internalType": "string",
          "name": "name",
          "type": "string"
        },
        {
          "indexed": false,
          "internalType": "uint256",
          "name": "position",
          "type": "uint256"
        },
        {
          "indexed": false,
          "internalType": "uint256",
          "name": "team",
          "type": "uint256"
        },
        {
          "indexed": false,
          "internalType": "uint256",
          "name": "price",
          "type": "uint256"
        }
      ],
      "name": "PlayerAdded",
      "type": "event"
    },
    {
      "anonymous": false,
      "inputs": [
        {
          "indexed": true,
          "internalType": "address",
          "name": "player",
          "type": "address"
        },
        {
          "indexed": false,
          "internalType": "address",
          "name": "owner",
          "type": "address"
        },
        {
          "indexed": false,
          "internalType": "uint256",
          "name": "buyPrice",
          "type": "uint256"
        },
        {
          "indexed": false,
          "internalType": "uint256",
          "name": "leagueId",
          "type": "uint256"
        }
      ],
      "name": "PlayerBought",
      "type": "event"
    },
    {
      "anonymous": false,
      "inputs": [
        {
          "indexed": true,
          "internalType": "address",
          "name": "player",
          "type": "address"
        },
        {
          "indexed": false,
          "internalType": "address",
          "name": "owner",
          "type": "address"
        },
        {
          "indexed": false,
          "internalType": "uint256",
          "name": "soldPrice",
          "type": "uint256"
        },
        {
          "indexed": false,
          "internalType": "uint256",
          "name": "leagueId",
          "type": "uint256"
        }
      ],
      "name": "PlayerSold",
      "type": "event"
    },
    {
      "anonymous": false,
      "inputs": [
        {
          "indexed": true,
          "internalType": "address",
          "name": "user",
          "type": "address"
        },
        {
          "indexed": false,
          "internalType": "address[]",
          "name": "playyerTokens",
          "type": "address[]"
        },
        {
          "indexed": false,
          "internalType": "uint256",
          "name": "leagueId",
          "type": "uint256"
        }
      ],
      "name": "TeamCreated",
      "type": "event"
    },
    {
      "inputs": [
        {
          "internalType": "string",
          "name": "_name",
          "type": "string"
        },
        {
          "internalType": "string",
          "name": "_symbol",
          "type": "string"
        },
        {
          "internalType": "uint256",
          "name": "_position",
          "type": "uint256"
        },
        {
          "internalType": "uint256",
          "name": "_team",
          "type": "uint256"
        },
        {
          "internalType": "uint256",
          "name": "_price",
          "type": "uint256"
        },
        {
          "internalType": "uint256",
          "name": "_initialSupply",
          "type": "uint256"
        },
        {
          "internalType": "uint256",
          "name": "_poolSupply",
          "type": "uint256"
        }
      ],
      "name": "addPlayer",
      "outputs": [],
      "stateMutability": "nonpayable",
      "type": "function"
    },
    {
      "inputs": [],
      "name": "baseToken",
      "outputs": [
        {
          "internalType": "contract IERC20",
          "name": "",
          "type": "address"
        }
      ],
      "stateMutability": "view",
      "type": "function"
    },
    {
      "inputs": [
        {
          "internalType": "address",
          "name": "_buyPlayerToken",
          "type": "address"
        },
        {
          "internalType": "uint256",
          "name": "_leagueId",
          "type": "uint256"
        }
      ],
      "name": "buyPLayer",
      "outputs": [],
      "stateMutability": "payable",
      "type": "function"
    },
    {
      "inputs": [
        {
          "internalType": "uint256",
          "name": "_leagueId",
          "type": "uint256"
        }
      ],
      "name": "claimRewards",
      "outputs": [],
      "stateMutability": "nonpayable",
      "type": "function"
    },
    {
      "inputs": [
        {
          "internalType": "string",
          "name": "_description",
          "type": "string"
        },
        {
          "internalType": "uint256",
          "name": "_resolveTime",
          "type": "uint256"
        }
      ],
      "name": "createLeagues",
      "outputs": [],
      "stateMutability": "nonpayable",
      "type": "function"
    },
    {
      "inputs": [
        {
          "internalType": "address[]",
          "name": "_playerTokens",
          "type": "address[]"
        },
        {
          "internalType": "uint256",
          "name": "_leagueId",
          "type": "uint256"
        }
      ],
      "name": "createTeam",
      "outputs": [],
      "stateMutability": "payable",
      "type": "function"
    },
    {
      "inputs": [
        {
          "internalType": "uint256",
          "name": "_leagueId",
          "type": "uint256"
        }
      ],
      "name": "getTopUser",
      "outputs": [
        {
          "internalType": "address",
          "name": "",
          "type": "address"
        }
      ],
      "stateMutability": "view",
      "type": "function"
    },
    {
      "inputs": [
        {
          "internalType": "uint256",
          "name": "_leagueId",
          "type": "uint256"
        },
        {
          "internalType": "address",
          "name": "user",
          "type": "address"
        }
      ],
      "name": "getTotalValue",
      "outputs": [
        {
          "internalType": "uint256",
          "name": "",
          "type": "uint256"
        }
      ],
      "stateMutability": "view",
      "type": "function"
    },
    {
      "inputs": [
        {
          "internalType": "uint256",
          "name": "_leagueId",
          "type": "uint256"
        }
      ],
      "name": "getUsers",
      "outputs": [
        {
          "internalType": "address[]",
          "name": "",
          "type": "address[]"
        }
      ],
      "stateMutability": "view",
      "type": "function"
    },
    {
      "inputs": [
        {
          "internalType": "uint256",
          "name": "",
          "type": "uint256"
        },
        {
          "internalType": "address",
          "name": "",
          "type": "address"
        }
      ],
      "name": "leagueTeams",
      "outputs": [
        {
          "internalType": "uint256",
          "name": "allotedBalance",
          "type": "uint256"
        },
        {
          "internalType": "uint256",
          "name": "totalValue",
          "type": "uint256"
        }
      ],
      "stateMutability": "view",
      "type": "function"
    },
    {
      "inputs": [
        {
          "internalType": "uint256",
          "name": "",
          "type": "uint256"
        }
      ],
      "name": "leagues",
      "outputs": [
        {
          "internalType": "string",
          "name": "description",
          "type": "string"
        },
        {
          "internalType": "uint256",
          "name": "resolveTime",
          "type": "uint256"
        },
        {
          "internalType": "uint256",
          "name": "totalStakes",
          "type": "uint256"
        },
        {
          "internalType": "bool",
          "name": "resolved",
          "type": "bool"
        },
        {
          "internalType": "bool",
          "name": "outcome",
          "type": "bool"
        }
      ],
      "stateMutability": "view",
      "type": "function"
    },
    {
      "inputs": [],
      "name": "owner",
      "outputs": [
        {
          "internalType": "address",
          "name": "",
          "type": "address"
        }
      ],
      "stateMutability": "view",
      "type": "function"
    },
    {
      "inputs": [],
      "name": "playerTokenAMM",
      "outputs": [
        {
          "internalType": "contract IPlayerTokenAMM",
          "name": "",
          "type": "address"
        }
      ],
      "stateMutability": "view",
      "type": "function"
    },
    {
      "inputs": [
        {
          "internalType": "address",
          "name": "",
          "type": "address"
        }
      ],
      "name": "players",
      "outputs": [
        {
          "internalType": "contract PlayerToken",
          "name": "token",
          "type": "address"
        },
        {
          "internalType": "uint256",
          "name": "price",
          "type": "uint256"
        }
      ],
      "stateMutability": "view",
      "type": "function"
    },
    {
      "inputs": [
        {
          "internalType": "address",
          "name": "_sellPlayerToken",
          "type": "address"
        },
        {
          "internalType": "uint256",
          "name": "_leagueId",
          "type": "uint256"
        }
      ],
      "name": "sellPLayer",
      "outputs": [],
      "stateMutability": "payable",
      "type": "function"
    },
    {
      "inputs": [],
      "name": "virtualBalance",
      "outputs": [
        {
          "internalType": "uint256",
          "name": "",
          "type": "uint256"
        }
      ],
      "stateMutability": "view",
      "type": "function"
    }
  ],
  "bytecode": "0x60806040526001600455678ac7230489e800006005553480156200002257600080fd5b506040516200612b3803806200612b833981810160405281019062000048919062000186565b600160008190555082600360006101000a81548173ffffffffffffffffffffffffffffffffffffffff021916908373ffffffffffffffffffffffffffffffffffffffff16021790555081600260006101000a81548173ffffffffffffffffffffffffffffffffffffffff021916908373ffffffffffffffffffffffffffffffffffffffff16021790555080600160006101000a81548173ffffffffffffffffffffffffffffffffffffffff021916908373ffffffffffffffffffffffffffffffffffffffff160217905550505050620001e2565b600080fd5b600073ffffffffffffffffffffffffffffffffffffffff82169050919050565b60006200014e8262000121565b9050919050565b620001608162000141565b81146200016c57600080fd5b50565b600081519050620001808162000155565b92915050565b600080600060608486031215620001a257620001a16200011c565b5b6000620001b2868287016200016f565b9350506020620001c5868287016200016f565b9250506040620001d8868287016200016f565b9150509250925092565b615f3980620001f26000396000f3fe6080604052600436106200010a5760003560e01c806393b6a5731162000097578063dcd2af171162000061578063dcd2af17146200036f578063e2769ca4146200039f578063e2eb41ff14620003e4578063f5a973e81462000429576200010a565b806393b6a57314620002a9578063a3c6eb7914620002c9578063c55dae6314620002f7578063c648fefe1462000327576200010a565b8063694688de11620000d9578063694688de14620001e55780638418992014620002055780638812cfc514620002355780638da5cb5b1462000279576200010a565b80630962ef79146200010f578063103492da146200013d57806336944db914620001815780635d73ab9a14620001a1575b600080fd5b3480156200011c57600080fd5b506200013b600480360381019062000135919062002de8565b62000457565b005b3480156200014a57600080fd5b5062000169600480360381019062000163919062002de8565b620007b7565b60405162000178919062002e5f565b60405180910390f35b6200019f600480360381019062000199919062002ead565b6200090b565b005b348015620001ae57600080fd5b50620001cd6004803603810190620001c7919062002de8565b62001086565b604051620001dc919062002fc2565b60405180910390f35b620002036004803603810190620001fd919062003054565b62001129565b005b3480156200021257600080fd5b506200021d620019e5565b6040516200022c919062003129565b60405180910390f35b3480156200024257600080fd5b506200026160048036038101906200025b919062003146565b62001a0b565b6040516200027091906200319e565b60405180910390f35b3480156200028657600080fd5b506200029162001a69565b604051620002a0919062002e5f565b60405180910390f35b620002c76004803603810190620002c1919062002ead565b62001a8f565b005b348015620002d657600080fd5b50620002f56004803603810190620002ef919062003318565b62002236565b005b3480156200030457600080fd5b506200030f62002714565b6040516200031e91906200342e565b60405180910390f35b3480156200033457600080fd5b506200035360048036038101906200034d919062002de8565b6200273a565b60405162000366959493929190620034f1565b60405180910390f35b3480156200037c57600080fd5b50620003876200281a565b6040516200039691906200319e565b60405180910390f35b348015620003ac57600080fd5b50620003cb6004803603810190620003c5919062003146565b62002820565b604051620003db92919062003555565b60405180910390f35b348015620003f157600080fd5b506200041060048036038101906200040a919062003582565b62002851565b60405162000420929190620035d9565b60405180910390f35b3480156200043657600080fd5b506200045560048036038101906200044f919062003606565b62002895565b005b8060006008600083815260200190815260200160002060003373ffffffffffffffffffffffffffffffffffffffff1673ffffffffffffffffffffffffffffffffffffffff1681526020019081526020016000206001018054905003620004f4576040517f08c379a0000000000000000000000000000000000000000000000000000000008152600401620004eb90620036bc565b60405180910390fd5b620004fe62002a00565b6004548210801562000511575060008214155b62000553576040517f08c379a00000000000000000000000000000000000000000000000000000000081526004016200054a906200372e565b60405180910390fd5b60006007600084815260200190815260200160002090508060040160009054906101000a900460ff16620005be576040517f08c379a0000000000000000000000000000000000000000000000000000000008152600401620005b590620037a0565b60405180910390fd5b3373ffffffffffffffffffffffffffffffffffffffff16620005e084620007b7565b73ffffffffffffffffffffffffffffffffffffffff161462000639576040517f08c379a0000000000000000000000000000000000000000000000000000000008152600401620006309062003812565b60405180910390fd5b60008160030160003373ffffffffffffffffffffffffffffffffffffffff1673ffffffffffffffffffffffffffffffffffffffff16815260200190815260200160002054905060008111620006c5576040517f08c379a0000000000000000000000000000000000000000000000000000000008152600401620006bc9062003884565b60405180910390fd5b60008260020154905060003373ffffffffffffffffffffffffffffffffffffffff1682604051620006f690620038db565b60006040518083038185875af1925050503d806000811462000735576040519150601f19603f3d011682016040523d82523d6000602084013e6200073a565b606091505b50509050600115158115151462000788576040517f08c379a00000000000000000000000000000000000000000000000000000000081526004016200077f9062003942565b60405180910390fd5b60018460040160006101000a81548160ff02191690831515021790555050505050620007b362002a47565b5050565b60008060009050600080600090505b60096000868152602001908152602001600020805490508110156200090057600060086000878152602001908152602001600020600060096000898152602001908152602001600020848154811062000824576200082362003964565b5b9060005260206000200160009054906101000a900473ffffffffffffffffffffffffffffffffffffffff1673ffffffffffffffffffffffffffffffffffffffff1673ffffffffffffffffffffffffffffffffffffffff16815260200190815260200160002060030154905083811115620008f157809350600960008781526020019081526020016000208281548110620008c357620008c262003964565b5b9060005260206000200160009054906101000a900473ffffffffffffffffffffffffffffffffffffffff1692505b508080600101915050620007c6565b508092505050919050565b8060006008600083815260200190815260200160002060003373ffffffffffffffffffffffffffffffffffffffff1673ffffffffffffffffffffffffffffffffffffffff1681526020019081526020016000206001018054905003620009a8576040517f08c379a00000000000000000000000000000000000000000000000000000000081526004016200099f90620036bc565b60405180910390fd5b60045482108015620009bb575060008214155b620009fd576040517f08c379a0000000000000000000000000000000000000000000000000000000008152600401620009f4906200372e565b60405180910390fd5b60006008600084815260200190815260200160002060003373ffffffffffffffffffffffffffffffffffffffff1673ffffffffffffffffffffffffffffffffffffffff16815260200190815260200160002060000160008573ffffffffffffffffffffffffffffffffffffffff1673ffffffffffffffffffffffffffffffffffffffff168152602001908152602001600020541462000ad3576040517f08c379a000000000000000000000000000000000000000000000000000000000815260040162000aca90620039e3565b60405180910390fd5b66b1a2bc2ec50000341462000b1f576040517f08c379a000000000000000000000000000000000000000000000000000000000815260040162000b169062003a55565b60405180910390fd5b6000600260009054906101000a900473ffffffffffffffffffffffffffffffffffffffff1673ffffffffffffffffffffffffffffffffffffffff16638b232511856040518263ffffffff1660e01b815260040162000b7e919062002e5f565b602060405180830381865afa15801562000b9c573d6000803e3d6000fd5b505050506040513d601f19601f8201168201806040525081019062000bc2919062003a8e565b905060006008600085815260200190815260200160002060003373ffffffffffffffffffffffffffffffffffffffff1673ffffffffffffffffffffffffffffffffffffffff168152602001908152602001600020600301549050816008600086815260200190815260200160002060003373ffffffffffffffffffffffffffffffffffffffff1673ffffffffffffffffffffffffffffffffffffffff16815260200190815260200160002060020154101562000cb5576040517f08c379a000000000000000000000000000000000000000000000000000000000815260040162000cac9062003b36565b60405180910390fd5b818162000cc3919062003b87565b9050806008600086815260200190815260200160002060003373ffffffffffffffffffffffffffffffffffffffff1673ffffffffffffffffffffffffffffffffffffffff16815260200190815260200160002060030181905550600360009054906101000a900473ffffffffffffffffffffffffffffffffffffffff1673ffffffffffffffffffffffffffffffffffffffff1663095ea7b3600260009054906101000a900473ffffffffffffffffffffffffffffffffffffffff16846040518363ffffffff1660e01b815260040162000d9e92919062003bc2565b6020604051808303816000875af115801562000dbe573d6000803e3d6000fd5b505050506040513d601f19601f8201168201806040525081019062000de4919062003c20565b50600260009054906101000a900473ffffffffffffffffffffffffffffffffffffffff1673ffffffffffffffffffffffffffffffffffffffff16631abde1fc866040518263ffffffff1660e01b815260040162000e42919062002e5f565b600060405180830381600087803b15801562000e5d57600080fd5b505af115801562000e72573d6000803e3d6000fd5b505050506008600085815260200190815260200160002060003373ffffffffffffffffffffffffffffffffffffffff1673ffffffffffffffffffffffffffffffffffffffff168152602001908152602001600020600101859080600181540180825580915050600190039060005260206000200160009091909190916101000a81548173ffffffffffffffffffffffffffffffffffffffff021916908373ffffffffffffffffffffffffffffffffffffffff160217905550816008600086815260200190815260200160002060003373ffffffffffffffffffffffffffffffffffffffff1673ffffffffffffffffffffffffffffffffffffffff16815260200190815260200160002060000160008773ffffffffffffffffffffffffffffffffffffffff1673ffffffffffffffffffffffffffffffffffffffff16815260200190815260200160002081905550816008600086815260200190815260200160002060003373ffffffffffffffffffffffffffffffffffffffff1673ffffffffffffffffffffffffffffffffffffffff168152602001908152602001600020600201600082825462001024919062003c52565b925050819055508473ffffffffffffffffffffffffffffffffffffffff167fa1e60355d160a01c592376fde5eef7bfa4aaccb2730c65225c30bd4307265fe9338487604051620010779392919062003c8d565b60405180910390a25050505050565b6060600960008381526020019081526020016000208054806020026020016040519081016040528092919081815260200182805480156200111d57602002820191906000526020600020905b8160009054906101000a900473ffffffffffffffffffffffffffffffffffffffff1673ffffffffffffffffffffffffffffffffffffffff1681526020019060010190808311620010d2575b50505050509050919050565b600b83839050111562001173576040517f08c379a00000000000000000000000000000000000000000000000000000000081526004016200116a9062003d40565b60405180910390fd5b6004548110801562001186575060008114155b620011c8576040517f08c379a0000000000000000000000000000000000000000000000000000000008152600401620011bf906200372e565b60405180910390fd5b60006008600083815260200190815260200160002060003373ffffffffffffffffffffffffffffffffffffffff1673ffffffffffffffffffffffffffffffffffffffff168152602001908152602001600020600101805490501462001264576040517f08c379a00000000000000000000000000000000000000000000000000000000081526004016200125b9062003db2565b60405180910390fd5b678ac7230489e800003414620012b1576040517f08c379a0000000000000000000000000000000000000000000000000000000008152600401620012a89062003e24565b60405180910390fd5b678ac7230489e800006007600083815260200190815260200160002060030160003373ffffffffffffffffffffffffffffffffffffffff1673ffffffffffffffffffffffffffffffffffffffff16815260200190815260200160002081905550678ac7230489e8000060076000838152602001908152602001600020600201600082825462001341919062003b87565b9250508190555060096000828152602001908152602001600020339080600181540180825580915050600190039060005260206000200160009091909190916101000a81548173ffffffffffffffffffffffffffffffffffffffff021916908373ffffffffffffffffffffffffffffffffffffffff1602179055506005546008600083815260200190815260200160002060003373ffffffffffffffffffffffffffffffffffffffff1673ffffffffffffffffffffffffffffffffffffffff1681526020019081526020016000206002018190555060055462001465848480806020026020016040519081016040528093929190818152602001838360200280828437600081840152601f19601f8201169050808301925050505050505062002a51565b1115620014a9576040517f08c379a0000000000000000000000000000000000000000000000000000000008152600401620014a09062003ebc565b60405180910390fd5b6000805b84849050811015620018c6576000858583818110620014d157620014d062003964565b5b9050602002016020810190620014e8919062003582565b90506000600660008373ffffffffffffffffffffffffffffffffffffffff1673ffffffffffffffffffffffffffffffffffffffff168152602001908152602001600020600101541162001572576040517f08c379a0000000000000000000000000000000000000000000000000000000008152600401620015699062003f2e565b60405180910390fd5b60006008600086815260200190815260200160002060003373ffffffffffffffffffffffffffffffffffffffff1673ffffffffffffffffffffffffffffffffffffffff16815260200190815260200160002060000160008373ffffffffffffffffffffffffffffffffffffffff1673ffffffffffffffffffffffffffffffffffffffff168152602001908152602001600020541462001648576040517f08c379a00000000000000000000000000000000000000000000000000000000081526004016200163f9062003fa0565b60405180910390fd5b600660008273ffffffffffffffffffffffffffffffffffffffff1673ffffffffffffffffffffffffffffffffffffffff168152602001908152602001600020600101546008600086815260200190815260200160002060003373ffffffffffffffffffffffffffffffffffffffff1673ffffffffffffffffffffffffffffffffffffffff16815260200190815260200160002060000160008373ffffffffffffffffffffffffffffffffffffffff1673ffffffffffffffffffffffffffffffffffffffff168152602001908152602001600020819055506008600085815260200190815260200160002060003373ffffffffffffffffffffffffffffffffffffffff1673ffffffffffffffffffffffffffffffffffffffff168152602001908152602001600020600101819080600181540180825580915050600190039060005260206000200160009091909190916101000a81548173ffffffffffffffffffffffffffffffffffffffff021916908373ffffffffffffffffffffffffffffffffffffffff16021790555060008190508073ffffffffffffffffffffffffffffffffffffffff1663a9059cbb33670de0b6b3a76400006040518363ffffffff1660e01b81526004016200181d92919062004005565b6020604051808303816000875af11580156200183d573d6000803e3d6000fd5b505050506040513d601f19601f8201168201806040525081019062001863919062003c20565b50600660008373ffffffffffffffffffffffffffffffffffffffff1673ffffffffffffffffffffffffffffffffffffffff1681526020019081526020016000206001015484620018b4919062003b87565b935050508080600101915050620014ad565b50806008600084815260200190815260200160002060003373ffffffffffffffffffffffffffffffffffffffff1673ffffffffffffffffffffffffffffffffffffffff16815260200190815260200160002060030181905550806008600084815260200190815260200160002060003373ffffffffffffffffffffffffffffffffffffffff1673ffffffffffffffffffffffffffffffffffffffff168152602001908152602001600020600201600082825462001984919062003c52565b925050819055503373ffffffffffffffffffffffffffffffffffffffff167fc3b3ba29b15ce32797443d535d5a1caf347575b868d4a816f749dfb61e603612858585604051620019d793929190620040cb565b60405180910390a250505050565b600260009054906101000a900473ffffffffffffffffffffffffffffffffffffffff1681565b60006008600084815260200190815260200160002060008373ffffffffffffffffffffffffffffffffffffffff1673ffffffffffffffffffffffffffffffffffffffff16815260200190815260200160002060030154905092915050565b600160009054906101000a900473ffffffffffffffffffffffffffffffffffffffff1681565b8060006008600083815260200190815260200160002060003373ffffffffffffffffffffffffffffffffffffffff1673ffffffffffffffffffffffffffffffffffffffff168152602001908152602001600020600101805490500362001b2c576040517f08c379a000000000000000000000000000000000000000000000000000000000815260040162001b2390620036bc565b60405180910390fd5b60006008600084815260200190815260200160002060003373ffffffffffffffffffffffffffffffffffffffff1673ffffffffffffffffffffffffffffffffffffffff16815260200190815260200160002060000160008573ffffffffffffffffffffffffffffffffffffffff1673ffffffffffffffffffffffffffffffffffffffff168152602001908152602001600020540362001c02576040517f08c379a000000000000000000000000000000000000000000000000000000000815260040162001bf99062004151565b60405180910390fd5b6004548210801562001c15575060008214155b62001c57576040517f08c379a000000000000000000000000000000000000000000000000000000000815260040162001c4e906200372e565b60405180910390fd5b66b1a2bc2ec50000341462001ca3576040517f08c379a000000000000000000000000000000000000000000000000000000000815260040162001c9a9062003a55565b60405180910390fd5b6000600260009054906101000a900473ffffffffffffffffffffffffffffffffffffffff1673ffffffffffffffffffffffffffffffffffffffff16638b232511856040518263ffffffff1660e01b815260040162001d02919062002e5f565b602060405180830381865afa15801562001d20573d6000803e3d6000fd5b505050506040513d601f19601f8201168201806040525081019062001d46919062003a8e565b9050600062001de6826008600087815260200190815260200160002060003373ffffffffffffffffffffffffffffffffffffffff1673ffffffffffffffffffffffffffffffffffffffff16815260200190815260200160002060000160008873ffffffffffffffffffffffffffffffffffffffff1673ffffffffffffffffffffffffffffffffffffffff1681526020019081526020016000205462002b91565b905060006008600086815260200190815260200160002060003373ffffffffffffffffffffffffffffffffffffffff1673ffffffffffffffffffffffffffffffffffffffff1681526020019081526020016000206003015490506008600086815260200190815260200160002060003373ffffffffffffffffffffffffffffffffffffffff1673ffffffffffffffffffffffffffffffffffffffff16815260200190815260200160002060000160008773ffffffffffffffffffffffffffffffffffffffff1673ffffffffffffffffffffffffffffffffffffffff168152602001908152602001600020548162001ede919062003c52565b9050806008600087815260200190815260200160002060003373ffffffffffffffffffffffffffffffffffffffff1673ffffffffffffffffffffffffffffffffffffffff1681526020019081526020016000206003018190555060008690508073ffffffffffffffffffffffffffffffffffffffff1663095ea7b3600260009054906101000a900473ffffffffffffffffffffffffffffffffffffffff16670de0b6b3a76400006040518363ffffffff1660e01b815260040162001fa492919062004005565b6020604051808303816000875af115801562001fc4573d6000803e3d6000fd5b505050506040513d601f19601f8201168201806040525081019062001fea919062003c20565b50600260009054906101000a900473ffffffffffffffffffffffffffffffffffffffff1673ffffffffffffffffffffffffffffffffffffffff16635e30d9c288856040518363ffffffff1660e01b81526004016200204a92919062003bc2565b600060405180830381600087803b1580156200206557600080fd5b505af11580156200207a573d6000803e3d6000fd5b50505050826008600088815260200190815260200160002060003373ffffffffffffffffffffffffffffffffffffffff1673ffffffffffffffffffffffffffffffffffffffff1681526020019081526020016000206002016000828254620020e3919062003b87565b925050819055506008600087815260200190815260200160002060003373ffffffffffffffffffffffffffffffffffffffff1673ffffffffffffffffffffffffffffffffffffffff16815260200190815260200160002060000160008873ffffffffffffffffffffffffffffffffffffffff1673ffffffffffffffffffffffffffffffffffffffff16815260200190815260200160002060009055620021d96008600088815260200190815260200160002060003373ffffffffffffffffffffffffffffffffffffffff1673ffffffffffffffffffffffffffffffffffffffff1681526020019081526020016000208862002be3565b8673ffffffffffffffffffffffffffffffffffffffff167f4562c6fa7a49a234abe2ae8f10320911cbf02c687f41c77d034934340f6de5c1338589604051620022259392919062003c8d565b60405180910390a250505050505050565b3373ffffffffffffffffffffffffffffffffffffffff16600160009054906101000a900473ffffffffffffffffffffffffffffffffffffffff1673ffffffffffffffffffffffffffffffffffffffff1614620022c9576040517f08c379a0000000000000000000000000000000000000000000000000000000008152600401620022c090620041c3565b60405180910390fd5b600087878787604051620022dd9062002d8b565b620022ec9493929190620041e5565b604051809103906000f08015801562002309573d6000803e3d6000fd5b50905060405180604001604052808273ffffffffffffffffffffffffffffffffffffffff168152602001670de0b6b3a76400008662002349919062004240565b815250600660008373ffffffffffffffffffffffffffffffffffffffff1673ffffffffffffffffffffffffffffffffffffffff16815260200190815260200160002060008201518160000160006101000a81548173ffffffffffffffffffffffffffffffffffffffff021916908373ffffffffffffffffffffffffffffffffffffffff160217905550602082015181600101559050508073ffffffffffffffffffffffffffffffffffffffff166340c10f1930856040518363ffffffff1660e01b81526004016200241c92919062003bc2565b600060405180830381600087803b1580156200243757600080fd5b505af11580156200244c573d6000803e3d6000fd5b50505050600360009054906101000a900473ffffffffffffffffffffffffffffffffffffffff1673ffffffffffffffffffffffffffffffffffffffff1663095ea7b3600260009054906101000a900473ffffffffffffffffffffffffffffffffffffffff16670de0b6b3a76400008588620024c8919062004240565b620024d4919062004240565b6040518363ffffffff1660e01b8152600401620024f392919062003bc2565b6020604051808303816000875af115801562002513573d6000803e3d6000fd5b505050506040513d601f19601f8201168201806040525081019062002539919062003c20565b508073ffffffffffffffffffffffffffffffffffffffff1663095ea7b3600260009054906101000a900473ffffffffffffffffffffffffffffffffffffffff16670de0b6b3a7640000856200258f919062004240565b6040518363ffffffff1660e01b8152600401620025ae92919062003bc2565b6020604051808303816000875af1158015620025ce573d6000803e3d6000fd5b505050506040513d601f19601f82011682018060405250810190620025f4919062003c20565b50600260009054906101000a900473ffffffffffffffffffffffffffffffffffffffff1673ffffffffffffffffffffffffffffffffffffffff1663b039ddf682670de0b6b3a7640000856200264a919062004240565b876040518463ffffffff1660e01b81526004016200266b9392919062003c8d565b600060405180830381600087803b1580156200268657600080fd5b505af11580156200269b573d6000803e3d6000fd5b505050508073ffffffffffffffffffffffffffffffffffffffff167f9a2cd5f74d0cdfb2a81e76ec4d47d9a7f5d7451e797a8262443095b582651bcb898888670de0b6b3a764000089620026f0919062004240565b6040516200270294939291906200428b565b60405180910390a25050505050505050565b600360009054906101000a900473ffffffffffffffffffffffffffffffffffffffff1681565b60076020528060005260406000206000915090508060000180546200275f906200430e565b80601f01602080910402602001604051908101604052809291908181526020018280546200278d906200430e565b8015620027de5780601f10620027b257610100808354040283529160200191620027de565b820191906000526020600020905b815481529060010190602001808311620027c057829003601f168201915b5050505050908060010154908060020154908060040160009054906101000a900460ff16908060040160019054906101000a900460ff16905085565b60055481565b6008602052816000526040600020602052806000526040600020600091509150508060020154908060030154905082565b60066020528060005260406000206000915090508060000160009054906101000a900473ffffffffffffffffffffffffffffffffffffffff16908060010154905082565b3373ffffffffffffffffffffffffffffffffffffffff16600160009054906101000a900473ffffffffffffffffffffffffffffffffffffffff1673ffffffffffffffffffffffffffffffffffffffff161462002928576040517f08c379a00000000000000000000000000000000000000000000000000000000081526004016200291f90620041c3565b60405180910390fd5b4281116200296d576040517f08c379a0000000000000000000000000000000000000000000000000000000008152600401620029649062004393565b60405180910390fd5b60006007600060045481526020019081526020016000209050828160000190816200299991906200457d565b508181600101819055506004547f865fc74c92cff2de2a3ee31b1625c2c6a5d60e00cd9e026b4161d7cf73c51ad68484604051620029d992919062004664565b60405180910390a260046000815480929190620029f69062004698565b9190505550505050565b60026000540362002a3d576040517f3ee5aeb500000000000000000000000000000000000000000000000000000000815260040160405180910390fd5b6002600081905550565b6001600081905550565b6000806000905060005b835181101562002b875760006006600086848151811062002a815762002a8062003964565b5b602002602001015173ffffffffffffffffffffffffffffffffffffffff1673ffffffffffffffffffffffffffffffffffffffff168152602001908152602001600020600101541162002b0a576040517f08c379a000000000000000000000000000000000000000000000000000000000815260040162002b019062003f2e565b60405180910390fd5b6006600085838151811062002b245762002b2362003964565b5b602002602001015173ffffffffffffffffffffffffffffffffffffffff1673ffffffffffffffffffffffffffffffffffffffff168152602001908152602001600020600101548262002b77919062003b87565b9150808060010191505062002a5b565b5080915050919050565b60008183111562002bd9576000828462002bac919062003c52565b9050600060028262002bbf919062004714565b8462002bcc919062003b87565b9050809250505062002bdd565b8290505b92915050565b60008260010180549050905060005b8181101562002d85578273ffffffffffffffffffffffffffffffffffffffff1684600101828154811062002c2b5762002c2a62003964565b5b9060005260206000200160009054906101000a900473ffffffffffffffffffffffffffffffffffffffff1673ffffffffffffffffffffffffffffffffffffffff160362002d77578360010160018362002c85919062003c52565b8154811062002c995762002c9862003964565b5b9060005260206000200160009054906101000a900473ffffffffffffffffffffffffffffffffffffffff1684600101828154811062002cdd5762002cdc62003964565b5b9060005260206000200160006101000a81548173ffffffffffffffffffffffffffffffffffffffff021916908373ffffffffffffffffffffffffffffffffffffffff1602179055508360010180548062002d3c5762002d3b6200474c565b5b6001900381819060005260206000200160006101000a81549073ffffffffffffffffffffffffffffffffffffffff0219169055905562002d85565b808060010191505062002bf2565b50505050565b611788806200477c83390190565b6000604051905090565b600080fd5b600080fd5b6000819050919050565b62002dc28162002dad565b811462002dce57600080fd5b50565b60008135905062002de28162002db7565b92915050565b60006020828403121562002e015762002e0062002da3565b5b600062002e118482850162002dd1565b91505092915050565b600073ffffffffffffffffffffffffffffffffffffffff82169050919050565b600062002e478262002e1a565b9050919050565b62002e598162002e3a565b82525050565b600060208201905062002e76600083018462002e4e565b92915050565b62002e878162002e3a565b811462002e9357600080fd5b50565b60008135905062002ea78162002e7c565b92915050565b6000806040838503121562002ec75762002ec662002da3565b5b600062002ed78582860162002e96565b925050602062002eea8582860162002dd1565b9150509250929050565b600081519050919050565b600082825260208201905092915050565b6000819050602082019050919050565b62002f2b8162002e3a565b82525050565b600062002f3f838362002f20565b60208301905092915050565b6000602082019050919050565b600062002f658262002ef4565b62002f71818562002eff565b935062002f7e8362002f10565b8060005b8381101562002fb557815162002f99888262002f31565b975062002fa68362002f4b565b92505060018101905062002f82565b5085935050505092915050565b6000602082019050818103600083015262002fde818462002f58565b905092915050565b600080fd5b600080fd5b600080fd5b60008083601f8401126200300e576200300d62002fe6565b5b8235905067ffffffffffffffff8111156200302e576200302d62002feb565b5b6020830191508360208202830111156200304d576200304c62002ff0565b5b9250929050565b60008060006040848603121562003070576200306f62002da3565b5b600084013567ffffffffffffffff81111562003091576200309062002da8565b5b6200309f8682870162002ff5565b93509350506020620030b48682870162002dd1565b9150509250925092565b6000819050919050565b6000620030e9620030e3620030dd8462002e1a565b620030be565b62002e1a565b9050919050565b6000620030fd82620030c8565b9050919050565b60006200311182620030f0565b9050919050565b620031238162003104565b82525050565b600060208201905062003140600083018462003118565b92915050565b6000806040838503121562003160576200315f62002da3565b5b6000620031708582860162002dd1565b9250506020620031838582860162002e96565b9150509250929050565b620031988162002dad565b82525050565b6000602082019050620031b560008301846200318d565b92915050565b600080fd5b6000601f19601f8301169050919050565b7f4e487b7100000000000000000000000000000000000000000000000000000000600052604160045260246000fd5b6200320b82620031c0565b810181811067ffffffffffffffff821117156200322d576200322c620031d1565b5b80604052505050565b60006200324262002d99565b905062003250828262003200565b919050565b600067ffffffffffffffff821115620032735762003272620031d1565b5b6200327e82620031c0565b9050602081019050919050565b82818337600083830152505050565b6000620032b1620032ab8462003255565b62003236565b905082815260208101848484011115620032d057620032cf620031bb565b5b620032dd8482856200328b565b509392505050565b600082601f830112620032fd57620032fc62002fe6565b5b81356200330f8482602086016200329a565b91505092915050565b600080600080600080600060e0888a0312156200333a576200333962002da3565b5b600088013567ffffffffffffffff8111156200335b576200335a62002da8565b5b620033698a828b01620032e5565b975050602088013567ffffffffffffffff8111156200338d576200338c62002da8565b5b6200339b8a828b01620032e5565b9650506040620033ae8a828b0162002dd1565b9550506060620033c18a828b0162002dd1565b9450506080620033d48a828b0162002dd1565b93505060a0620033e78a828b0162002dd1565b92505060c0620033fa8a828b0162002dd1565b91505092959891949750929550565b60006200341682620030f0565b9050919050565b620034288162003409565b82525050565b60006020820190506200344560008301846200341d565b92915050565b600081519050919050565b600082825260208201905092915050565b60005b83811015620034875780820151818401526020810190506200346a565b60008484015250505050565b6000620034a0826200344b565b620034ac818562003456565b9350620034be81856020860162003467565b620034c981620031c0565b840191505092915050565b60008115159050919050565b620034eb81620034d4565b82525050565b600060a08201905081810360008301526200350d818862003493565b90506200351e60208301876200318d565b6200352d60408301866200318d565b6200353c6060830185620034e0565b6200354b6080830184620034e0565b9695505050505050565b60006040820190506200356c60008301856200318d565b6200357b60208301846200318d565b9392505050565b6000602082840312156200359b576200359a62002da3565b5b6000620035ab8482850162002e96565b91505092915050565b6000620035c182620030f0565b9050919050565b620035d381620035b4565b82525050565b6000604082019050620035f06000830185620035c8565b620035ff60208301846200318d565b9392505050565b6000806040838503121562003620576200361f62002da3565b5b600083013567ffffffffffffffff81111562003641576200364062002da8565b5b6200364f85828601620032e5565b9250506020620036628582860162002dd1565b9150509250929050565b7f596f75206469646e2774206f776e2061207465616d0000000000000000000000600082015250565b6000620036a460158362003456565b9150620036b1826200366c565b602082019050919050565b60006020820190508181036000830152620036d78162003695565b9050919050565b7f4c656167756520646f65736e2774206578697374000000000000000000000000600082015250565b60006200371660148362003456565b91506200372382620036de565b602082019050919050565b60006020820190508181036000830152620037498162003707565b9050919050565b7f4c6561677565206e6f74207265736f6c76656400000000000000000000000000600082015250565b60006200378860138362003456565b9150620037958262003750565b602082019050919050565b60006020820190508181036000830152620037bb8162003779565b9050919050565b7f596f752063616e277420636c61696d2072657761726473000000000000000000600082015250565b6000620037fa60178362003456565b91506200380782620037c2565b602082019050919050565b600060208201905081810360008301526200382d81620037eb565b9050919050565b7f4e6f2077696e6e696e67207374616b6500000000000000000000000000000000600082015250565b60006200386c60108362003456565b9150620038798262003834565b602082019050919050565b600060208201905081810360008301526200389f816200385d565b9050919050565b600081905092915050565b50565b6000620038c3600083620038a6565b9150620038d082620038b1565b600082019050919050565b6000620038e882620038b4565b9150819050919050565b7f7472616e73666572206661696c65640000000000000000000000000000000000600082015250565b60006200392a600f8362003456565b91506200393782620038f2565b602082019050919050565b600060208201905081810360008301526200395d816200391b565b9050919050565b7f4e487b7100000000000000000000000000000000000000000000000000000000600052603260045260246000fd5b7f596f7520616c7265616479206f776e207468697320706c617965720000000000600082015250565b6000620039cb601b8362003456565b9150620039d88262003993565b602082019050919050565b60006020820190508181036000830152620039fe81620039bc565b9050919050565b7f4769766520746865206665657320666f72207472616e73666572696e67000000600082015250565b600062003a3d601d8362003456565b915062003a4a8262003a05565b602082019050919050565b6000602082019050818103600083015262003a708162003a2e565b9050919050565b60008151905062003a888162002db7565b92915050565b60006020828403121562003aa75762003aa662002da3565b5b600062003ab78482850162003a77565b91505092915050565b7f796f7520646f6e277420686176652062616c616e636520746f2062757920746860008201527f697320706c617965720000000000000000000000000000000000000000000000602082015250565b600062003b1e60298362003456565b915062003b2b8262003ac0565b604082019050919050565b6000602082019050818103600083015262003b518162003b0f565b9050919050565b7f4e487b7100000000000000000000000000000000000000000000000000000000600052601160045260246000fd5b600062003b948262002dad565b915062003ba18362002dad565b925082820190508082111562003bbc5762003bbb62003b58565b5b92915050565b600060408201905062003bd9600083018562002e4e565b62003be860208301846200318d565b9392505050565b62003bfa81620034d4565b811462003c0657600080fd5b50565b60008151905062003c1a8162003bef565b92915050565b60006020828403121562003c395762003c3862002da3565b5b600062003c498482850162003c09565b91505092915050565b600062003c5f8262002dad565b915062003c6c8362002dad565b925082820390508181111562003c875762003c8662003b58565b5b92915050565b600060608201905062003ca4600083018662002e4e565b62003cb360208301856200318d565b62003cc260408301846200318d565b949350505050565b7f43616e27742073656c656374206d6f7265207468616e20313120706c6179657260008201527f7300000000000000000000000000000000000000000000000000000000000000602082015250565b600062003d2860218362003456565b915062003d358262003cca565b604082019050919050565b6000602082019050818103600083015262003d5b8162003d19565b9050919050565b7f596f7520616c7265616479206f776e2061207465616d00000000000000000000600082015250565b600062003d9a60168362003456565b915062003da78262003d62565b602082019050919050565b6000602082019050818103600083015262003dcd8162003d8b565b9050919050565b7f5374616b652063687a20746f20637265617465207465616d0000000000000000600082015250565b600062003e0c60188362003456565b915062003e198262003dd4565b602082019050919050565b6000602082019050818103600083015262003e3f8162003dfd565b9050919050565b7f546f74616c2070726963652065786365656473203130204261736520746f6b6560008201527f6e00000000000000000000000000000000000000000000000000000000000000602082015250565b600062003ea460218362003456565b915062003eb18262003e46565b604082019050919050565b6000602082019050818103600083015262003ed78162003e95565b9050919050565b7f496e76616c696420706c61796572000000000000000000000000000000000000600082015250565b600062003f16600e8362003456565b915062003f238262003ede565b602082019050919050565b6000602082019050818103600083015262003f498162003f07565b9050919050565b7f416c7265616479206f776e656400000000000000000000000000000000000000600082015250565b600062003f88600d8362003456565b915062003f958262003f50565b602082019050919050565b6000602082019050818103600083015262003fbb8162003f79565b9050919050565b6000819050919050565b600062003fed62003fe762003fe18462003fc2565b620030be565b62002dad565b9050919050565b62003fff8162003fcc565b82525050565b60006040820190506200401c600083018562002e4e565b6200402b602083018462003ff4565b9392505050565b6000819050919050565b60006200404d602084018462002e96565b905092915050565b6000602082019050919050565b600062004070838562002eff565b93506200407d8262004032565b8060005b85811015620040be576200409682846200403c565b620040a2888262002f31565b9750620040af8362004055565b92505060018101905062004081565b5085925050509392505050565b60006040820190508181036000830152620040e881858762004062565b9050620040f960208301846200318d565b949350505050565b7f596f7520646f6e2774206f776e207468697320706c6179657200000000000000600082015250565b60006200413960198362003456565b9150620041468262004101565b602082019050919050565b600060208201905081810360008301526200416c816200412a565b9050919050565b7f796f7520617265206e6f7420746865206f776e65720000000000000000000000600082015250565b6000620041ab60158362003456565b9150620041b88262004173565b602082019050919050565b60006020820190508181036000830152620041de816200419c565b9050919050565b6000608082019050818103600083015262004201818762003493565b9050818103602083015262004217818662003493565b90506200422860408301856200318d565b6200423760608301846200318d565b95945050505050565b60006200424d8262002dad565b91506200425a8362002dad565b92508282026200426a8162002dad565b9150828204841483151762004284576200428362003b58565b5b5092915050565b60006080820190508181036000830152620042a7818762003493565b9050620042b860208301866200318d565b620042c760408301856200318d565b620042d660608301846200318d565b95945050505050565b7f4e487b7100000000000000000000000000000000000000000000000000000000600052602260045260246000fd5b600060028204905060018216806200432757607f821691505b6020821081036200433d576200433c620042df565b5b50919050565b7f496e76616c6964207265736f6c76652074696d65000000000000000000000000600082015250565b60006200437b60148362003456565b9150620043888262004343565b602082019050919050565b60006020820190508181036000830152620043ae816200436c565b9050919050565b60008190508160005260206000209050919050565b60006020601f8301049050919050565b600082821b905092915050565b600060088302620044197fffffffffffffffffffffffffffffffffffffffffffffffffffffffffffffffff82620043da565b620044258683620043da565b95508019841693508086168417925050509392505050565b60006200445e62004458620044528462002dad565b620030be565b62002dad565b9050919050565b6000819050919050565b6200447a836200443d565b62004492620044898262004465565b848454620043e7565b825550505050565b600090565b620044a96200449a565b620044b68184846200446f565b505050565b5b81811015620044de57620044d26000826200449f565b600181019050620044bc565b5050565b601f8211156200452d57620044f781620043b5565b6200450284620043ca565b8101602085101562004512578190505b6200452a6200452185620043ca565b830182620044bb565b50505b505050565b600082821c905092915050565b6000620045526000198460080262004532565b1980831691505092915050565b60006200456d83836200453f565b9150826002028217905092915050565b62004588826200344b565b67ffffffffffffffff811115620045a457620045a3620031d1565b5b620045b082546200430e565b620045bd828285620044e2565b600060209050601f831160018114620045f55760008415620045e0578287015190505b620045ec85826200455f565b8655506200465c565b601f1984166200460586620043b5565b60005b828110156200462f5784890151825560018201915060208501945060208101905062004608565b868310156200464f57848901516200464b601f8916826200453f565b8355505b6001600288020188555050505b505050505050565b6000604082019050818103600083015262004680818562003493565b90506200469160208301846200318d565b9392505050565b6000620046a58262002dad565b91507fffffffffffffffffffffffffffffffffffffffffffffffffffffffffffffffff8203620046da57620046d962003b58565b5b600182019050919050565b7f4e487b7100000000000000000000000000000000000000000000000000000000600052601260045260246000fd5b6000620047218262002dad565b91506200472e8362002dad565b925082620047415762004740620046e5565b5b828204905092915050565b7f4e487b7100000000000000000000000000000000000000000000000000000000600052603160045260246000fdfe60806040523480156200001157600080fd5b506040516200178838038062001788833981810160405281019062000037919062000286565b838381600390816200004a919062000577565b5080600490816200005c919062000577565b505050816005819055508060068190555033600760006101000a81548173ffffffffffffffffffffffffffffffffffffffff021916908373ffffffffffffffffffffffffffffffffffffffff160217905550505050506200065e565b6000604051905090565b600080fd5b600080fd5b600080fd5b600080fd5b6000601f19601f8301169050919050565b7f4e487b7100000000000000000000000000000000000000000000000000000000600052604160045260246000fd5b6200012182620000d6565b810181811067ffffffffffffffff82111715620001435762000142620000e7565b5b80604052505050565b600062000158620000b8565b905062000166828262000116565b919050565b600067ffffffffffffffff821115620001895762000188620000e7565b5b6200019482620000d6565b9050602081019050919050565b60005b83811015620001c1578082015181840152602081019050620001a4565b60008484015250505050565b6000620001e4620001de846200016b565b6200014c565b905082815260208101848484011115620002035762000202620000d1565b5b62000210848285620001a1565b509392505050565b600082601f83011262000230576200022f620000cc565b5b815162000242848260208601620001cd565b91505092915050565b6000819050919050565b62000260816200024b565b81146200026c57600080fd5b50565b600081519050620002808162000255565b92915050565b60008060008060808587031215620002a357620002a2620000c2565b5b600085015167ffffffffffffffff811115620002c457620002c3620000c7565b5b620002d28782880162000218565b945050602085015167ffffffffffffffff811115620002f657620002f5620000c7565b5b620003048782880162000218565b935050604062000317878288016200026f565b92505060606200032a878288016200026f565b91505092959194509250565b600081519050919050565b7f4e487b7100000000000000000000000000000000000000000000000000000000600052602260045260246000fd5b600060028204905060018216806200038957607f821691505b6020821081036200039f576200039e62000341565b5b50919050565b60008190508160005260206000209050919050565b60006020601f8301049050919050565b600082821b905092915050565b600060088302620004097fffffffffffffffffffffffffffffffffffffffffffffffffffffffffffffffff82620003ca565b620004158683620003ca565b95508019841693508086168417925050509392505050565b6000819050919050565b600062000458620004526200044c846200024b565b6200042d565b6200024b565b9050919050565b6000819050919050565b620004748362000437565b6200048c62000483826200045f565b848454620003d7565b825550505050565b600090565b620004a362000494565b620004b081848462000469565b505050565b5b81811015620004d857620004cc60008262000499565b600181019050620004b6565b5050565b601f8211156200052757620004f181620003a5565b620004fc84620003ba565b810160208510156200050c578190505b620005246200051b85620003ba565b830182620004b5565b50505b505050565b600082821c905092915050565b60006200054c600019846008026200052c565b1980831691505092915050565b600062000567838362000539565b9150826002028217905092915050565b620005828262000336565b67ffffffffffffffff8111156200059e576200059d620000e7565b5b620005aa825462000370565b620005b7828285620004dc565b600060209050601f831160018114620005ef5760008415620005da578287015190505b620005e6858262000559565b86555062000656565b601f198416620005ff86620003a5565b60005b82811015620006295784890151825560018201915060208501945060208101905062000602565b8683101562000649578489015162000645601f89168262000539565b8355505b6001600288020188555050505b505050505050565b61111a806200066e6000396000f3fe608060405234801561001057600080fd5b50600436106100cf5760003560e01c806340c10f191161008c5780638da5cb5b116100665780638da5cb5b1461021657806395d89b4114610234578063a9059cbb14610252578063dd62ed3e14610282576100cf565b806340c10f19146101ac57806370a08231146101c857806385f2aef2146101f8576100cf565b806306fdde03146100d457806309218e91146100f2578063095ea7b31461011057806318160ddd1461014057806323b872dd1461015e578063313ce5671461018e575b600080fd5b6100dc6102b2565b6040516100e99190610cc0565b60405180910390f35b6100fa610344565b6040516101079190610cfb565b60405180910390f35b61012a60048036038101906101259190610da5565b61034a565b6040516101379190610e00565b60405180910390f35b61014861036d565b6040516101559190610cfb565b60405180910390f35b61017860048036038101906101739190610e1b565b610377565b6040516101859190610e00565b60405180910390f35b6101966103a6565b6040516101a39190610e8a565b60405180910390f35b6101c660048036038101906101c19190610da5565b6103af565b005b6101e260048036038101906101dd9190610ea5565b610460565b6040516101ef9190610cfb565b60405180910390f35b6102006104a8565b60405161020d9190610cfb565b60405180910390f35b61021e6104ae565b60405161022b9190610ee1565b60405180910390f35b61023c6104d4565b6040516102499190610cc0565b60405180910390f35b61026c60048036038101906102679190610da5565b610566565b6040516102799190610e00565b60405180910390f35b61029c60048036038101906102979190610efc565b610589565b6040516102a99190610cfb565b60405180910390f35b6060600380546102c190610f6b565b80601f01602080910402602001604051908101604052809291908181526020018280546102ed90610f6b565b801561033a5780601f1061030f5761010080835404028352916020019161033a565b820191906000526020600020905b81548152906001019060200180831161031d57829003601f168201915b5050505050905090565b60055481565b600080610355610610565b9050610362818585610618565b600191505092915050565b6000600254905090565b600080610382610610565b905061038f85828561062a565b61039a8585856106be565b60019150509392505050565b60006012905090565b3373ffffffffffffffffffffffffffffffffffffffff16600760009054906101000a900473ffffffffffffffffffffffffffffffffffffffff1673ffffffffffffffffffffffffffffffffffffffff161461043f576040517f08c379a000000000000000000000000000000000000000000000000000000000815260040161043690610fe8565b60405180910390fd5b61045c82670de0b6b3a7640000836104579190611037565b6107b2565b5050565b60008060008373ffffffffffffffffffffffffffffffffffffffff1673ffffffffffffffffffffffffffffffffffffffff168152602001908152602001600020549050919050565b60065481565b600760009054906101000a900473ffffffffffffffffffffffffffffffffffffffff1681565b6060600480546104e390610f6b565b80601f016020809104026020016040519081016040528092919081815260200182805461050f90610f6b565b801561055c5780601f106105315761010080835404028352916020019161055c565b820191906000526020600020905b81548152906001019060200180831161053f57829003601f168201915b5050505050905090565b600080610571610610565b905061057e8185856106be565b600191505092915050565b6000600160008473ffffffffffffffffffffffffffffffffffffffff1673ffffffffffffffffffffffffffffffffffffffff16815260200190815260200160002060008373ffffffffffffffffffffffffffffffffffffffff1673ffffffffffffffffffffffffffffffffffffffff16815260200190815260200160002054905092915050565b600033905090565b6106258383836001610834565b505050565b60006106368484610589565b90507fffffffffffffffffffffffffffffffffffffffffffffffffffffffffffffffff81146106b857818110156106a8578281836040517ffb8f41b200000000000000000000000000000000000000000000000000000000815260040161069f93929190611079565b60405180910390fd5b6106b784848484036000610834565b5b50505050565b600073ffffffffffffffffffffffffffffffffffffffff168373ffffffffffffffffffffffffffffffffffffffff16036107305760006040517f96c6fd1e0000000000000000000000000000000000000000000000000000000081526004016107279190610ee1565b60405180910390fd5b600073ffffffffffffffffffffffffffffffffffffffff168273ffffffffffffffffffffffffffffffffffffffff16036107a25760006040517fec442f050000000000000000000000000000000000000000000000000000000081526004016107999190610ee1565b60405180910390fd5b6107ad838383610a0b565b505050565b600073ffffffffffffffffffffffffffffffffffffffff168273ffffffffffffffffffffffffffffffffffffffff16036108245760006040517fec442f0500000000000000000000000000000000000000000000000000000000815260040161081b9190610ee1565b60405180910390fd5b61083060008383610a0b565b5050565b600073ffffffffffffffffffffffffffffffffffffffff168473ffffffffffffffffffffffffffffffffffffffff16036108a65760006040517fe602df0500000000000000000000000000000000000000000000000000000000815260040161089d9190610ee1565b60405180910390fd5b600073ffffffffffffffffffffffffffffffffffffffff168373ffffffffffffffffffffffffffffffffffffffff16036109185760006040517f94280d6200000000000000000000000000000000000000000000000000000000815260040161090f9190610ee1565b60405180910390fd5b81600160008673ffffffffffffffffffffffffffffffffffffffff1673ffffffffffffffffffffffffffffffffffffffff16815260200190815260200160002060008573ffffffffffffffffffffffffffffffffffffffff1673ffffffffffffffffffffffffffffffffffffffff168152602001908152602001600020819055508015610a05578273ffffffffffffffffffffffffffffffffffffffff168473ffffffffffffffffffffffffffffffffffffffff167f8c5be1e5ebec7d5bd14f71427d1e84f3dd0314c0f7b2291e5b200ac8c7c3b925846040516109fc9190610cfb565b60405180910390a35b50505050565b600073ffffffffffffffffffffffffffffffffffffffff168373ffffffffffffffffffffffffffffffffffffffff1603610a5d578060026000828254610a5191906110b0565b92505081905550610b30565b60008060008573ffffffffffffffffffffffffffffffffffffffff1673ffffffffffffffffffffffffffffffffffffffff16815260200190815260200160002054905081811015610ae9578381836040517fe450d38c000000000000000000000000000000000000000000000000000000008152600401610ae093929190611079565b60405180910390fd5b8181036000808673ffffffffffffffffffffffffffffffffffffffff1673ffffffffffffffffffffffffffffffffffffffff16815260200190815260200160002081905550505b600073ffffffffffffffffffffffffffffffffffffffff168273ffffffffffffffffffffffffffffffffffffffff1603610b795780600260008282540392505081905550610bc6565b806000808473ffffffffffffffffffffffffffffffffffffffff1673ffffffffffffffffffffffffffffffffffffffff168152602001908152602001600020600082825401925050819055505b8173ffffffffffffffffffffffffffffffffffffffff168373ffffffffffffffffffffffffffffffffffffffff167fddf252ad1be2c89b69c2b068fc378daa952ba7f163c4a11628f55a4df523b3ef83604051610c239190610cfb565b60405180910390a3505050565b600081519050919050565b600082825260208201905092915050565b60005b83811015610c6a578082015181840152602081019050610c4f565b60008484015250505050565b6000601f19601f8301169050919050565b6000610c9282610c30565b610c9c8185610c3b565b9350610cac818560208601610c4c565b610cb581610c76565b840191505092915050565b60006020820190508181036000830152610cda8184610c87565b905092915050565b6000819050919050565b610cf581610ce2565b82525050565b6000602082019050610d106000830184610cec565b92915050565b600080fd5b600073ffffffffffffffffffffffffffffffffffffffff82169050919050565b6000610d4682610d1b565b9050919050565b610d5681610d3b565b8114610d6157600080fd5b50565b600081359050610d7381610d4d565b92915050565b610d8281610ce2565b8114610d8d57600080fd5b50565b600081359050610d9f81610d79565b92915050565b60008060408385031215610dbc57610dbb610d16565b5b6000610dca85828601610d64565b9250506020610ddb85828601610d90565b9150509250929050565b60008115159050919050565b610dfa81610de5565b82525050565b6000602082019050610e156000830184610df1565b92915050565b600080600060608486031215610e3457610e33610d16565b5b6000610e4286828701610d64565b9350506020610e5386828701610d64565b9250506040610e6486828701610d90565b9150509250925092565b600060ff82169050919050565b610e8481610e6e565b82525050565b6000602082019050610e9f6000830184610e7b565b92915050565b600060208284031215610ebb57610eba610d16565b5b6000610ec984828501610d64565b91505092915050565b610edb81610d3b565b82525050565b6000602082019050610ef66000830184610ed2565b92915050565b60008060408385031215610f1357610f12610d16565b5b6000610f2185828601610d64565b9250506020610f3285828601610d64565b9150509250929050565b7f4e487b7100000000000000000000000000000000000000000000000000000000600052602260045260246000fd5b60006002820490506001821680610f8357607f821691505b602082108103610f9657610f95610f3c565b5b50919050565b7f796f7520617265206e6f7420746865206f776e65720000000000000000000000600082015250565b6000610fd2601583610c3b565b9150610fdd82610f9c565b602082019050919050565b6000602082019050818103600083015261100181610fc5565b9050919050565b7f4e487b7100000000000000000000000000000000000000000000000000000000600052601160045260246000fd5b600061104282610ce2565b915061104d83610ce2565b925082820261105b81610ce2565b9150828204841483151761107257611071611008565b5b5092915050565b600060608201905061108e6000830186610ed2565b61109b6020830185610cec565b6110a86040830184610cec565b949350505050565b60006110bb82610ce2565b91506110c683610ce2565b92508282019050808211156110de576110dd611008565b5b9291505056fea264697066735822122058bb8a2e5ef81224123ca98b459bfd798c699ba6cf064c15d68ae13774b23b9c64736f6c63430008180033a2646970667358221220c0d8431383e1a582fe2299cd6695bdddea0dd30cd374e8e893cdecb6de503fe064736f6c63430008180033",
  "linkReferences": {},
  "deployedLinkReferences": {}
}