{
  "_format": "hh-sol-artifact-1",
  "contractName": "BanterFantasySports",
  "sourceName": "contracts/Main.sol",
  "abi": [
    {
      "inputs": [
        {
          "internalType": "address",
          "name": "_baseTokenAddress",
          "type": "address"
        },
        {
          "internalType": "address",
          "name": "_playerTokenAMMAddress",
          "type": "address"
        },
        {
          "internalType": "address",
          "name": "_owner",
          "type": "address"
        }
      ],
      "stateMutability": "nonpayable",
      "type": "constructor"
    },
    {
      "inputs": [],
      "name": "ReentrancyGuardReentrantCall",
      "type": "error"
    },
    {
      "anonymous": false,
      "inputs": [
        {
          "indexed": true,
          "internalType": "uint256",
          "name": "leagueId",
          "type": "uint256"
        },
        {
          "indexed": false,
          "internalType": "string",
          "name": "description",
          "type": "string"
        },
        {
          "indexed": false,
          "internalType": "uint256",
          "name": "resolveTime",
          "type": "uint256"
        }
      ],
      "name": "LeagueCreated",
      "type": "event"
    },
    {
      "anonymous": false,
      "inputs": [
        {
          "indexed": true,
          "internalType": "address",
          "name": "tokenAddress",
          "type": "address"
        },
        {
          "indexed": false,
          "internalType": "string",
          "name": "name",
          "type": "string"
        },
        {
          "indexed": false,
          "internalType": "uint256",
          "name": "position",
          "type": "uint256"
        },
        {
          "indexed": false,
          "internalType": "uint256",
          "name": "team",
          "type": "uint256"
        },
        {
          "indexed": false,
          "internalType": "uint256",
          "name": "price",
          "type": "uint256"
        }
      ],
      "name": "PlayerAdded",
      "type": "event"
    },
    {
      "anonymous": false,
      "inputs": [
        {
          "indexed": true,
          "internalType": "address",
          "name": "player",
          "type": "address"
        },
        {
          "indexed": false,
          "internalType": "address",
          "name": "owner",
          "type": "address"
        },
        {
          "indexed": false,
          "internalType": "uint256",
          "name": "buyPrice",
          "type": "uint256"
        },
        {
          "indexed": false,
          "internalType": "uint256",
          "name": "leagueId",
          "type": "uint256"
        }
      ],
      "name": "PlayerBought",
      "type": "event"
    },
    {
      "anonymous": false,
      "inputs": [
        {
          "indexed": true,
          "internalType": "address",
          "name": "player",
          "type": "address"
        },
        {
          "indexed": false,
          "internalType": "address",
          "name": "owner",
          "type": "address"
        },
        {
          "indexed": false,
          "internalType": "uint256",
          "name": "soldPrice",
          "type": "uint256"
        },
        {
          "indexed": false,
          "internalType": "uint256",
          "name": "leagueId",
          "type": "uint256"
        }
      ],
      "name": "PlayerSold",
      "type": "event"
    },
    {
      "anonymous": false,
      "inputs": [
        {
          "indexed": true,
          "internalType": "address",
          "name": "user",
          "type": "address"
        },
        {
          "indexed": false,
          "internalType": "address[]",
          "name": "playyerTokens",
          "type": "address[]"
        },
        {
          "indexed": false,
          "internalType": "uint256",
          "name": "leagueId",
          "type": "uint256"
        }
      ],
      "name": "TeamCreated",
      "type": "event"
    },
    {
      "inputs": [
        {
          "internalType": "string",
          "name": "_name",
          "type": "string"
        },
        {
          "internalType": "string",
          "name": "_symbol",
          "type": "string"
        },
        {
          "internalType": "uint256",
          "name": "_position",
          "type": "uint256"
        },
        {
          "internalType": "uint256",
          "name": "_team",
          "type": "uint256"
        },
        {
          "internalType": "uint256",
          "name": "_price",
          "type": "uint256"
        },
        {
          "internalType": "uint256",
          "name": "_initialSupply",
          "type": "uint256"
        },
        {
          "internalType": "uint256",
          "name": "_poolSupply",
          "type": "uint256"
        }
      ],
      "name": "addPlayer",
      "outputs": [],
      "stateMutability": "nonpayable",
      "type": "function"
    },
    {
      "inputs": [],
      "name": "baseToken",
      "outputs": [
        {
          "internalType": "contract IERC20",
          "name": "",
          "type": "address"
        }
      ],
      "stateMutability": "view",
      "type": "function"
    },
    {
      "inputs": [
        {
          "internalType": "address",
          "name": "_buyPlayerToken",
          "type": "address"
        },
        {
          "internalType": "uint256",
          "name": "_leagueId",
          "type": "uint256"
        }
      ],
      "name": "buyPLayer",
      "outputs": [],
      "stateMutability": "payable",
      "type": "function"
    },
    {
      "inputs": [
        {
          "internalType": "uint256",
          "name": "_leagueId",
          "type": "uint256"
        }
      ],
      "name": "claimRewards",
      "outputs": [],
      "stateMutability": "nonpayable",
      "type": "function"
    },
    {
      "inputs": [
        {
          "internalType": "string",
          "name": "_description",
          "type": "string"
        },
        {
          "internalType": "uint256",
          "name": "_resolveTime",
          "type": "uint256"
        }
      ],
      "name": "createLeagues",
      "outputs": [],
      "stateMutability": "nonpayable",
      "type": "function"
    },
    {
      "inputs": [
        {
          "internalType": "address[]",
          "name": "_playerTokens",
          "type": "address[]"
        },
        {
          "internalType": "uint256",
          "name": "_leagueId",
          "type": "uint256"
        }
      ],
      "name": "createTeam",
      "outputs": [],
      "stateMutability": "payable",
      "type": "function"
    },
    {
      "inputs": [
        {
          "internalType": "uint256",
          "name": "_leagueId",
          "type": "uint256"
        }
      ],
      "name": "getTopUser",
      "outputs": [
        {
          "internalType": "address",
          "name": "",
          "type": "address"
        }
      ],
      "stateMutability": "view",
      "type": "function"
    },
    {
      "inputs": [
        {
          "internalType": "uint256",
          "name": "_leagueId",
          "type": "uint256"
        }
      ],
      "name": "getTotalValue",
      "outputs": [
        {
          "internalType": "uint256",
          "name": "",
          "type": "uint256"
        }
      ],
      "stateMutability": "view",
      "type": "function"
    },
    {
      "inputs": [
        {
          "internalType": "uint256",
          "name": "_leagueId",
          "type": "uint256"
        }
      ],
      "name": "getUserPlayers",
      "outputs": [
        {
          "internalType": "address[]",
          "name": "",
          "type": "address[]"
        }
      ],
      "stateMutability": "view",
      "type": "function"
    },
    {
      "inputs": [
        {
          "internalType": "uint256",
          "name": "_leagueId",
          "type": "uint256"
        }
      ],
      "name": "getUsers",
      "outputs": [
        {
          "internalType": "address[]",
          "name": "",
          "type": "address[]"
        }
      ],
      "stateMutability": "view",
      "type": "function"
    },
    {
      "inputs": [
        {
          "internalType": "uint256",
          "name": "",
          "type": "uint256"
        },
        {
          "internalType": "address",
          "name": "",
          "type": "address"
        }
      ],
      "name": "leagueTeams",
      "outputs": [
        {
          "internalType": "uint256",
          "name": "allotedBalance",
          "type": "uint256"
        },
        {
          "internalType": "uint256",
          "name": "totalValue",
          "type": "uint256"
        }
      ],
      "stateMutability": "view",
      "type": "function"
    },
    {
      "inputs": [
        {
          "internalType": "uint256",
          "name": "",
          "type": "uint256"
        }
      ],
      "name": "leagues",
      "outputs": [
        {
          "internalType": "string",
          "name": "description",
          "type": "string"
        },
        {
          "internalType": "uint256",
          "name": "resolveTime",
          "type": "uint256"
        },
        {
          "internalType": "uint256",
          "name": "totalStakes",
          "type": "uint256"
        },
        {
          "internalType": "bool",
          "name": "resolved",
          "type": "bool"
        },
        {
          "internalType": "bool",
          "name": "outcome",
          "type": "bool"
        }
      ],
      "stateMutability": "view",
      "type": "function"
    },
    {
      "inputs": [],
      "name": "owner",
      "outputs": [
        {
          "internalType": "address",
          "name": "",
          "type": "address"
        }
      ],
      "stateMutability": "view",
      "type": "function"
    },
    {
      "inputs": [],
      "name": "playerTokenAMM",
      "outputs": [
        {
          "internalType": "contract IPlayerTokenAMM",
          "name": "",
          "type": "address"
        }
      ],
      "stateMutability": "view",
      "type": "function"
    },
    {
      "inputs": [
        {
          "internalType": "address",
          "name": "",
          "type": "address"
        }
      ],
      "name": "players",
      "outputs": [
        {
          "internalType": "contract PlayerToken",
          "name": "token",
          "type": "address"
        },
        {
          "internalType": "uint256",
          "name": "price",
          "type": "uint256"
        }
      ],
      "stateMutability": "view",
      "type": "function"
    },
    {
      "inputs": [
        {
          "internalType": "address",
          "name": "_sellPlayerToken",
          "type": "address"
        },
        {
          "internalType": "uint256",
          "name": "_leagueId",
          "type": "uint256"
        }
      ],
      "name": "sellPLayer",
      "outputs": [],
      "stateMutability": "payable",
      "type": "function"
    },
    {
      "inputs": [],
      "name": "virtualBalance",
      "outputs": [
        {
          "internalType": "uint256",
          "name": "",
          "type": "uint256"
        }
      ],
      "stateMutability": "view",
      "type": "function"
    }
  ],
  "bytecode": "0x60806040526001600455678ac7230489e800006005553480156200002257600080fd5b506040516200615f3803806200615f833981810160405281019062000048919062000186565b600160008190555082600360006101000a81548173ffffffffffffffffffffffffffffffffffffffff021916908373ffffffffffffffffffffffffffffffffffffffff16021790555081600260006101000a81548173ffffffffffffffffffffffffffffffffffffffff021916908373ffffffffffffffffffffffffffffffffffffffff16021790555080600160006101000a81548173ffffffffffffffffffffffffffffffffffffffff021916908373ffffffffffffffffffffffffffffffffffffffff160217905550505050620001e2565b600080fd5b600073ffffffffffffffffffffffffffffffffffffffff82169050919050565b60006200014e8262000121565b9050919050565b620001608162000141565b81146200016c57600080fd5b50565b600081519050620001808162000155565b92915050565b600080600060608486031215620001a257620001a16200011c565b5b6000620001b2868287016200016f565b9350506020620001c5868287016200016f565b9250506040620001d8868287016200016f565b9150509250925092565b615f6d80620001f26000396000f3fe608060405260043610620001165760003560e01c806393b6a57311620000a3578063d41f283c116200006d578063d41f283c146200037b578063dcd2af1714620003bf578063e2769ca414620003ef578063e2eb41ff1462000434578063f5a973e814620004795762000116565b806393b6a57314620002b5578063a3c6eb7914620002d5578063c55dae631462000303578063c648fefe14620003335762000116565b8063694688de11620000e5578063694688de14620001f15780636bc0705f14620002115780638418992014620002555780638da5cb5b14620002855762000116565b80630962ef79146200011b578063103492da146200014957806336944db9146200018d5780635d73ab9a14620001ad575b600080fd5b3480156200012857600080fd5b5062000147600480360381019062000141919062002e1c565b620004a7565b005b3480156200015657600080fd5b506200017560048036038101906200016f919062002e1c565b620007b2565b60405162000184919062002e93565b60405180910390f35b620001ab6004803603810190620001a5919062002ee1565b62000906565b005b348015620001ba57600080fd5b50620001d96004803603810190620001d3919062002e1c565b6200102c565b604051620001e8919062002ff6565b60405180910390f35b6200020f600480360381019062000209919062003088565b620010cf565b005b3480156200021e57600080fd5b506200023d600480360381019062000237919062002e1c565b6200198c565b6040516200024c919062002ff6565b60405180910390f35b3480156200026257600080fd5b506200026d62001a6f565b6040516200027c91906200315d565b60405180910390f35b3480156200029257600080fd5b506200029d62001a95565b604051620002ac919062002e93565b60405180910390f35b620002d36004803603810190620002cd919062002ee1565b62001abb565b005b348015620002e257600080fd5b50620003016004803603810190620002fb9190620032d7565b6200220d565b005b3480156200031057600080fd5b506200031b620026eb565b6040516200032a9190620033ed565b60405180910390f35b3480156200034057600080fd5b506200035f600480360381019062000359919062002e1c565b62002711565b60405162000372959493929190620034c1565b60405180910390f35b3480156200038857600080fd5b50620003a76004803603810190620003a1919062002e1c565b620027f1565b604051620003b6919062003525565b60405180910390f35b348015620003cc57600080fd5b50620003d76200284e565b604051620003e6919062003525565b60405180910390f35b348015620003fc57600080fd5b506200041b600480360381019062000415919062003542565b62002854565b6040516200042b92919062003589565b60405180910390f35b3480156200044157600080fd5b506200046060048036038101906200045a9190620035b6565b62002885565b604051620004709291906200360d565b60405180910390f35b3480156200048657600080fd5b50620004a560048036038101906200049f91906200363a565b620028c9565b005b8060006008600083815260200190815260200160002060003373ffffffffffffffffffffffffffffffffffffffff1673ffffffffffffffffffffffffffffffffffffffff168152602001908152602001600020600101805490500362000544576040517f08c379a00000000000000000000000000000000000000000000000000000000081526004016200053b90620036f0565b60405180910390fd5b6200054e62002a34565b60006007600084815260200190815260200160002090508060040160009054906101000a900460ff16620005b9576040517f08c379a0000000000000000000000000000000000000000000000000000000008152600401620005b09062003762565b60405180910390fd5b3373ffffffffffffffffffffffffffffffffffffffff16620005db84620007b2565b73ffffffffffffffffffffffffffffffffffffffff161462000634576040517f08c379a00000000000000000000000000000000000000000000000000000000081526004016200062b90620037d4565b60405180910390fd5b60008160030160003373ffffffffffffffffffffffffffffffffffffffff1673ffffffffffffffffffffffffffffffffffffffff16815260200190815260200160002054905060008111620006c0576040517f08c379a0000000000000000000000000000000000000000000000000000000008152600401620006b79062003846565b60405180910390fd5b60008260020154905060003373ffffffffffffffffffffffffffffffffffffffff1682604051620006f1906200389d565b60006040518083038185875af1925050503d806000811462000730576040519150601f19603f3d011682016040523d82523d6000602084013e62000735565b606091505b50509050600115158115151462000783576040517f08c379a00000000000000000000000000000000000000000000000000000000081526004016200077a9062003904565b60405180910390fd5b60018460040160006101000a81548160ff02191690831515021790555050505050620007ae62002a7b565b5050565b60008060009050600080600090505b6009600086815260200190815260200160002080549050811015620008fb5760006008600087815260200190815260200160002060006009600089815260200190815260200160002084815481106200081f576200081e62003926565b5b9060005260206000200160009054906101000a900473ffffffffffffffffffffffffffffffffffffffff1673ffffffffffffffffffffffffffffffffffffffff1673ffffffffffffffffffffffffffffffffffffffff16815260200190815260200160002060030154905083811115620008ec57809350600960008781526020019081526020016000208281548110620008be57620008bd62003926565b5b9060005260206000200160009054906101000a900473ffffffffffffffffffffffffffffffffffffffff1692505b508080600101915050620007c1565b508092505050919050565b8060006008600083815260200190815260200160002060003373ffffffffffffffffffffffffffffffffffffffff1673ffffffffffffffffffffffffffffffffffffffff1681526020019081526020016000206001018054905003620009a3576040517f08c379a00000000000000000000000000000000000000000000000000000000081526004016200099a90620036f0565b60405180910390fd5b60006008600084815260200190815260200160002060003373ffffffffffffffffffffffffffffffffffffffff1673ffffffffffffffffffffffffffffffffffffffff16815260200190815260200160002060000160008573ffffffffffffffffffffffffffffffffffffffff1673ffffffffffffffffffffffffffffffffffffffff168152602001908152602001600020541462000a79576040517f08c379a000000000000000000000000000000000000000000000000000000000815260040162000a7090620039a5565b60405180910390fd5b66b1a2bc2ec50000341462000ac5576040517f08c379a000000000000000000000000000000000000000000000000000000000815260040162000abc9062003a17565b60405180910390fd5b6000600260009054906101000a900473ffffffffffffffffffffffffffffffffffffffff1673ffffffffffffffffffffffffffffffffffffffff16638b232511856040518263ffffffff1660e01b815260040162000b24919062002e93565b602060405180830381865afa15801562000b42573d6000803e3d6000fd5b505050506040513d601f19601f8201168201806040525081019062000b68919062003a50565b905060006008600085815260200190815260200160002060003373ffffffffffffffffffffffffffffffffffffffff1673ffffffffffffffffffffffffffffffffffffffff168152602001908152602001600020600301549050816008600086815260200190815260200160002060003373ffffffffffffffffffffffffffffffffffffffff1673ffffffffffffffffffffffffffffffffffffffff16815260200190815260200160002060020154101562000c5b576040517f08c379a000000000000000000000000000000000000000000000000000000000815260040162000c529062003af8565b60405180910390fd5b818162000c69919062003b49565b9050806008600086815260200190815260200160002060003373ffffffffffffffffffffffffffffffffffffffff1673ffffffffffffffffffffffffffffffffffffffff16815260200190815260200160002060030181905550600360009054906101000a900473ffffffffffffffffffffffffffffffffffffffff1673ffffffffffffffffffffffffffffffffffffffff1663095ea7b3600260009054906101000a900473ffffffffffffffffffffffffffffffffffffffff16846040518363ffffffff1660e01b815260040162000d4492919062003b84565b6020604051808303816000875af115801562000d64573d6000803e3d6000fd5b505050506040513d601f19601f8201168201806040525081019062000d8a919062003be2565b50600260009054906101000a900473ffffffffffffffffffffffffffffffffffffffff1673ffffffffffffffffffffffffffffffffffffffff16631abde1fc866040518263ffffffff1660e01b815260040162000de8919062002e93565b600060405180830381600087803b15801562000e0357600080fd5b505af115801562000e18573d6000803e3d6000fd5b505050506008600085815260200190815260200160002060003373ffffffffffffffffffffffffffffffffffffffff1673ffffffffffffffffffffffffffffffffffffffff168152602001908152602001600020600101859080600181540180825580915050600190039060005260206000200160009091909190916101000a81548173ffffffffffffffffffffffffffffffffffffffff021916908373ffffffffffffffffffffffffffffffffffffffff160217905550816008600086815260200190815260200160002060003373ffffffffffffffffffffffffffffffffffffffff1673ffffffffffffffffffffffffffffffffffffffff16815260200190815260200160002060000160008773ffffffffffffffffffffffffffffffffffffffff1673ffffffffffffffffffffffffffffffffffffffff16815260200190815260200160002081905550816008600086815260200190815260200160002060003373ffffffffffffffffffffffffffffffffffffffff1673ffffffffffffffffffffffffffffffffffffffff168152602001908152602001600020600201600082825462000fca919062003c14565b925050819055508473ffffffffffffffffffffffffffffffffffffffff167fa1e60355d160a01c592376fde5eef7bfa4aaccb2730c65225c30bd4307265fe93384876040516200101d9392919062003c4f565b60405180910390a25050505050565b606060096000838152602001908152602001600020805480602002602001604051908101604052809291908181526020018280548015620010c357602002820191906000526020600020905b8160009054906101000a900473ffffffffffffffffffffffffffffffffffffffff1673ffffffffffffffffffffffffffffffffffffffff168152602001906001019080831162001078575b50505050509050919050565b600b83839050111562001119576040517f08c379a0000000000000000000000000000000000000000000000000000000008152600401620011109062003d02565b60405180910390fd5b60045481111580156200112d575060008114155b6200116f576040517f08c379a0000000000000000000000000000000000000000000000000000000008152600401620011669062003d74565b60405180910390fd5b60006008600083815260200190815260200160002060003373ffffffffffffffffffffffffffffffffffffffff1673ffffffffffffffffffffffffffffffffffffffff16815260200190815260200160002060010180549050146200120b576040517f08c379a0000000000000000000000000000000000000000000000000000000008152600401620012029062003de6565b60405180910390fd5b678ac7230489e80000341462001258576040517f08c379a00000000000000000000000000000000000000000000000000000000081526004016200124f9062003e58565b60405180910390fd5b678ac7230489e800006007600083815260200190815260200160002060030160003373ffffffffffffffffffffffffffffffffffffffff1673ffffffffffffffffffffffffffffffffffffffff16815260200190815260200160002081905550678ac7230489e80000600760008381526020019081526020016000206002016000828254620012e8919062003b49565b9250508190555060096000828152602001908152602001600020339080600181540180825580915050600190039060005260206000200160009091909190916101000a81548173ffffffffffffffffffffffffffffffffffffffff021916908373ffffffffffffffffffffffffffffffffffffffff1602179055506005546008600083815260200190815260200160002060003373ffffffffffffffffffffffffffffffffffffffff1673ffffffffffffffffffffffffffffffffffffffff168152602001908152602001600020600201819055506005546200140c848480806020026020016040519081016040528093929190818152602001838360200280828437600081840152601f19601f8201169050808301925050505050505062002a85565b111562001450576040517f08c379a0000000000000000000000000000000000000000000000000000000008152600401620014479062003ef0565b60405180910390fd5b6000805b848490508110156200186d57600085858381811062001478576200147762003926565b5b90506020020160208101906200148f9190620035b6565b90506000600660008373ffffffffffffffffffffffffffffffffffffffff1673ffffffffffffffffffffffffffffffffffffffff168152602001908152602001600020600101541162001519576040517f08c379a0000000000000000000000000000000000000000000000000000000008152600401620015109062003f62565b60405180910390fd5b60006008600086815260200190815260200160002060003373ffffffffffffffffffffffffffffffffffffffff1673ffffffffffffffffffffffffffffffffffffffff16815260200190815260200160002060000160008373ffffffffffffffffffffffffffffffffffffffff1673ffffffffffffffffffffffffffffffffffffffff1681526020019081526020016000205414620015ef576040517f08c379a0000000000000000000000000000000000000000000000000000000008152600401620015e69062003fd4565b60405180910390fd5b600660008273ffffffffffffffffffffffffffffffffffffffff1673ffffffffffffffffffffffffffffffffffffffff168152602001908152602001600020600101546008600086815260200190815260200160002060003373ffffffffffffffffffffffffffffffffffffffff1673ffffffffffffffffffffffffffffffffffffffff16815260200190815260200160002060000160008373ffffffffffffffffffffffffffffffffffffffff1673ffffffffffffffffffffffffffffffffffffffff168152602001908152602001600020819055506008600085815260200190815260200160002060003373ffffffffffffffffffffffffffffffffffffffff1673ffffffffffffffffffffffffffffffffffffffff168152602001908152602001600020600101819080600181540180825580915050600190039060005260206000200160009091909190916101000a81548173ffffffffffffffffffffffffffffffffffffffff021916908373ffffffffffffffffffffffffffffffffffffffff16021790555060008190508073ffffffffffffffffffffffffffffffffffffffff1663a9059cbb33670de0b6b3a76400006040518363ffffffff1660e01b8152600401620017c492919062004039565b6020604051808303816000875af1158015620017e4573d6000803e3d6000fd5b505050506040513d601f19601f820116820180604052508101906200180a919062003be2565b50600660008373ffffffffffffffffffffffffffffffffffffffff1673ffffffffffffffffffffffffffffffffffffffff16815260200190815260200160002060010154846200185b919062003b49565b93505050808060010191505062001454565b50806008600084815260200190815260200160002060003373ffffffffffffffffffffffffffffffffffffffff1673ffffffffffffffffffffffffffffffffffffffff16815260200190815260200160002060030181905550806008600084815260200190815260200160002060003373ffffffffffffffffffffffffffffffffffffffff1673ffffffffffffffffffffffffffffffffffffffff16815260200190815260200160002060020160008282546200192b919062003c14565b925050819055503373ffffffffffffffffffffffffffffffffffffffff167fc3b3ba29b15ce32797443d535d5a1caf347575b868d4a816f749dfb61e6036128585856040516200197e93929190620040ff565b60405180910390a250505050565b60606008600083815260200190815260200160002060003373ffffffffffffffffffffffffffffffffffffffff1673ffffffffffffffffffffffffffffffffffffffff16815260200190815260200160002060010180548060200260200160405190810160405280929190818152602001828054801562001a6357602002820191906000526020600020905b8160009054906101000a900473ffffffffffffffffffffffffffffffffffffffff1673ffffffffffffffffffffffffffffffffffffffff168152602001906001019080831162001a18575b50505050509050919050565b600260009054906101000a900473ffffffffffffffffffffffffffffffffffffffff1681565b600160009054906101000a900473ffffffffffffffffffffffffffffffffffffffff1681565b8060006008600083815260200190815260200160002060003373ffffffffffffffffffffffffffffffffffffffff1673ffffffffffffffffffffffffffffffffffffffff168152602001908152602001600020600101805490500362001b58576040517f08c379a000000000000000000000000000000000000000000000000000000000815260040162001b4f90620036f0565b60405180910390fd5b60006008600084815260200190815260200160002060003373ffffffffffffffffffffffffffffffffffffffff1673ffffffffffffffffffffffffffffffffffffffff16815260200190815260200160002060000160008573ffffffffffffffffffffffffffffffffffffffff1673ffffffffffffffffffffffffffffffffffffffff168152602001908152602001600020540362001c2e576040517f08c379a000000000000000000000000000000000000000000000000000000000815260040162001c259062004185565b60405180910390fd5b66b1a2bc2ec50000341462001c7a576040517f08c379a000000000000000000000000000000000000000000000000000000000815260040162001c719062003a17565b60405180910390fd5b6000600260009054906101000a900473ffffffffffffffffffffffffffffffffffffffff1673ffffffffffffffffffffffffffffffffffffffff16638b232511856040518263ffffffff1660e01b815260040162001cd9919062002e93565b602060405180830381865afa15801562001cf7573d6000803e3d6000fd5b505050506040513d601f19601f8201168201806040525081019062001d1d919062003a50565b9050600062001dbd826008600087815260200190815260200160002060003373ffffffffffffffffffffffffffffffffffffffff1673ffffffffffffffffffffffffffffffffffffffff16815260200190815260200160002060000160008873ffffffffffffffffffffffffffffffffffffffff1673ffffffffffffffffffffffffffffffffffffffff1681526020019081526020016000205462002bc5565b905060006008600086815260200190815260200160002060003373ffffffffffffffffffffffffffffffffffffffff1673ffffffffffffffffffffffffffffffffffffffff1681526020019081526020016000206003015490506008600086815260200190815260200160002060003373ffffffffffffffffffffffffffffffffffffffff1673ffffffffffffffffffffffffffffffffffffffff16815260200190815260200160002060000160008773ffffffffffffffffffffffffffffffffffffffff1673ffffffffffffffffffffffffffffffffffffffff168152602001908152602001600020548162001eb5919062003c14565b9050806008600087815260200190815260200160002060003373ffffffffffffffffffffffffffffffffffffffff1673ffffffffffffffffffffffffffffffffffffffff1681526020019081526020016000206003018190555060008690508073ffffffffffffffffffffffffffffffffffffffff1663095ea7b3600260009054906101000a900473ffffffffffffffffffffffffffffffffffffffff16670de0b6b3a76400006040518363ffffffff1660e01b815260040162001f7b92919062004039565b6020604051808303816000875af115801562001f9b573d6000803e3d6000fd5b505050506040513d601f19601f8201168201806040525081019062001fc1919062003be2565b50600260009054906101000a900473ffffffffffffffffffffffffffffffffffffffff1673ffffffffffffffffffffffffffffffffffffffff16635e30d9c288856040518363ffffffff1660e01b81526004016200202192919062003b84565b600060405180830381600087803b1580156200203c57600080fd5b505af115801562002051573d6000803e3d6000fd5b50505050826008600088815260200190815260200160002060003373ffffffffffffffffffffffffffffffffffffffff1673ffffffffffffffffffffffffffffffffffffffff1681526020019081526020016000206002016000828254620020ba919062003b49565b925050819055506008600087815260200190815260200160002060003373ffffffffffffffffffffffffffffffffffffffff1673ffffffffffffffffffffffffffffffffffffffff16815260200190815260200160002060000160008873ffffffffffffffffffffffffffffffffffffffff1673ffffffffffffffffffffffffffffffffffffffff16815260200190815260200160002060009055620021b06008600088815260200190815260200160002060003373ffffffffffffffffffffffffffffffffffffffff1673ffffffffffffffffffffffffffffffffffffffff1681526020019081526020016000208862002c17565b8673ffffffffffffffffffffffffffffffffffffffff167f4562c6fa7a49a234abe2ae8f10320911cbf02c687f41c77d034934340f6de5c1338589604051620021fc9392919062003c4f565b60405180910390a250505050505050565b3373ffffffffffffffffffffffffffffffffffffffff16600160009054906101000a900473ffffffffffffffffffffffffffffffffffffffff1673ffffffffffffffffffffffffffffffffffffffff1614620022a0576040517f08c379a00000000000000000000000000000000000000000000000000000000081526004016200229790620041f7565b60405180910390fd5b600087878787604051620022b49062002dbf565b620022c3949392919062004219565b604051809103906000f080158015620022e0573d6000803e3d6000fd5b50905060405180604001604052808273ffffffffffffffffffffffffffffffffffffffff168152602001670de0b6b3a76400008662002320919062004274565b815250600660008373ffffffffffffffffffffffffffffffffffffffff1673ffffffffffffffffffffffffffffffffffffffff16815260200190815260200160002060008201518160000160006101000a81548173ffffffffffffffffffffffffffffffffffffffff021916908373ffffffffffffffffffffffffffffffffffffffff160217905550602082015181600101559050508073ffffffffffffffffffffffffffffffffffffffff166340c10f1930856040518363ffffffff1660e01b8152600401620023f392919062003b84565b600060405180830381600087803b1580156200240e57600080fd5b505af115801562002423573d6000803e3d6000fd5b50505050600360009054906101000a900473ffffffffffffffffffffffffffffffffffffffff1673ffffffffffffffffffffffffffffffffffffffff1663095ea7b3600260009054906101000a900473ffffffffffffffffffffffffffffffffffffffff16670de0b6b3a764000085886200249f919062004274565b620024ab919062004274565b6040518363ffffffff1660e01b8152600401620024ca92919062003b84565b6020604051808303816000875af1158015620024ea573d6000803e3d6000fd5b505050506040513d601f19601f8201168201806040525081019062002510919062003be2565b508073ffffffffffffffffffffffffffffffffffffffff1663095ea7b3600260009054906101000a900473ffffffffffffffffffffffffffffffffffffffff16670de0b6b3a76400008562002566919062004274565b6040518363ffffffff1660e01b81526004016200258592919062003b84565b6020604051808303816000875af1158015620025a5573d6000803e3d6000fd5b505050506040513d601f19601f82011682018060405250810190620025cb919062003be2565b50600260009054906101000a900473ffffffffffffffffffffffffffffffffffffffff1673ffffffffffffffffffffffffffffffffffffffff1663b039ddf682670de0b6b3a76400008562002621919062004274565b876040518463ffffffff1660e01b8152600401620026429392919062003c4f565b600060405180830381600087803b1580156200265d57600080fd5b505af115801562002672573d6000803e3d6000fd5b505050508073ffffffffffffffffffffffffffffffffffffffff167f9a2cd5f74d0cdfb2a81e76ec4d47d9a7f5d7451e797a8262443095b582651bcb898888670de0b6b3a764000089620026c7919062004274565b604051620026d99493929190620042bf565b60405180910390a25050505050505050565b600360009054906101000a900473ffffffffffffffffffffffffffffffffffffffff1681565b6007602052806000526040600020600091509050806000018054620027369062004342565b80601f0160208091040260200160405190810160405280929190818152602001828054620027649062004342565b8015620027b55780601f106200278957610100808354040283529160200191620027b5565b820191906000526020600020905b8154815290600101906020018083116200279757829003601f168201915b5050505050908060010154908060020154908060040160009054906101000a900460ff16908060040160019054906101000a900460ff16905085565b60006008600083815260200190815260200160002060003373ffffffffffffffffffffffffffffffffffffffff1673ffffffffffffffffffffffffffffffffffffffff168152602001908152602001600020600301549050919050565b60055481565b6008602052816000526040600020602052806000526040600020600091509150508060020154908060030154905082565b60066020528060005260406000206000915090508060000160009054906101000a900473ffffffffffffffffffffffffffffffffffffffff16908060010154905082565b3373ffffffffffffffffffffffffffffffffffffffff16600160009054906101000a900473ffffffffffffffffffffffffffffffffffffffff1673ffffffffffffffffffffffffffffffffffffffff16146200295c576040517f08c379a00000000000000000000000000000000000000000000000000000000081526004016200295390620041f7565b60405180910390fd5b428111620029a1576040517f08c379a00000000000000000000000000000000000000000000000000000000081526004016200299890620043c7565b60405180910390fd5b6000600760006004548152602001908152602001600020905082816000019081620029cd9190620045b1565b508181600101819055506004547f865fc74c92cff2de2a3ee31b1625c2c6a5d60e00cd9e026b4161d7cf73c51ad6848460405162002a0d92919062004698565b60405180910390a26004600081548092919062002a2a90620046cc565b9190505550505050565b60026000540362002a71576040517f3ee5aeb500000000000000000000000000000000000000000000000000000000815260040160405180910390fd5b6002600081905550565b6001600081905550565b6000806000905060005b835181101562002bbb5760006006600086848151811062002ab55762002ab462003926565b5b602002602001015173ffffffffffffffffffffffffffffffffffffffff1673ffffffffffffffffffffffffffffffffffffffff168152602001908152602001600020600101541162002b3e576040517f08c379a000000000000000000000000000000000000000000000000000000000815260040162002b359062003f62565b60405180910390fd5b6006600085838151811062002b585762002b5762003926565b5b602002602001015173ffffffffffffffffffffffffffffffffffffffff1673ffffffffffffffffffffffffffffffffffffffff168152602001908152602001600020600101548262002bab919062003b49565b9150808060010191505062002a8f565b5080915050919050565b60008183111562002c0d576000828462002be0919062003c14565b9050600060028262002bf3919062004748565b8462002c00919062003b49565b9050809250505062002c11565b8290505b92915050565b60008260010180549050905060005b8181101562002db9578273ffffffffffffffffffffffffffffffffffffffff1684600101828154811062002c5f5762002c5e62003926565b5b9060005260206000200160009054906101000a900473ffffffffffffffffffffffffffffffffffffffff1673ffffffffffffffffffffffffffffffffffffffff160362002dab578360010160018362002cb9919062003c14565b8154811062002ccd5762002ccc62003926565b5b9060005260206000200160009054906101000a900473ffffffffffffffffffffffffffffffffffffffff1684600101828154811062002d115762002d1062003926565b5b9060005260206000200160006101000a81548173ffffffffffffffffffffffffffffffffffffffff021916908373ffffffffffffffffffffffffffffffffffffffff1602179055508360010180548062002d705762002d6f62004780565b5b6001900381819060005260206000200160006101000a81549073ffffffffffffffffffffffffffffffffffffffff0219169055905562002db9565b808060010191505062002c26565b50505050565b61178880620047b083390190565b6000604051905090565b600080fd5b600080fd5b6000819050919050565b62002df68162002de1565b811462002e0257600080fd5b50565b60008135905062002e168162002deb565b92915050565b60006020828403121562002e355762002e3462002dd7565b5b600062002e458482850162002e05565b91505092915050565b600073ffffffffffffffffffffffffffffffffffffffff82169050919050565b600062002e7b8262002e4e565b9050919050565b62002e8d8162002e6e565b82525050565b600060208201905062002eaa600083018462002e82565b92915050565b62002ebb8162002e6e565b811462002ec757600080fd5b50565b60008135905062002edb8162002eb0565b92915050565b6000806040838503121562002efb5762002efa62002dd7565b5b600062002f0b8582860162002eca565b925050602062002f1e8582860162002e05565b9150509250929050565b600081519050919050565b600082825260208201905092915050565b6000819050602082019050919050565b62002f5f8162002e6e565b82525050565b600062002f73838362002f54565b60208301905092915050565b6000602082019050919050565b600062002f998262002f28565b62002fa5818562002f33565b935062002fb28362002f44565b8060005b8381101562002fe957815162002fcd888262002f65565b975062002fda8362002f7f565b92505060018101905062002fb6565b5085935050505092915050565b6000602082019050818103600083015262003012818462002f8c565b905092915050565b600080fd5b600080fd5b600080fd5b60008083601f8401126200304257620030416200301a565b5b8235905067ffffffffffffffff8111156200306257620030616200301f565b5b60208301915083602082028301111562003081576200308062003024565b5b9250929050565b600080600060408486031215620030a457620030a362002dd7565b5b600084013567ffffffffffffffff811115620030c557620030c462002ddc565b5b620030d38682870162003029565b93509350506020620030e88682870162002e05565b9150509250925092565b6000819050919050565b60006200311d62003117620031118462002e4e565b620030f2565b62002e4e565b9050919050565b60006200313182620030fc565b9050919050565b6000620031458262003124565b9050919050565b620031578162003138565b82525050565b60006020820190506200317460008301846200314c565b92915050565b600080fd5b6000601f19601f8301169050919050565b7f4e487b7100000000000000000000000000000000000000000000000000000000600052604160045260246000fd5b620031ca826200317f565b810181811067ffffffffffffffff82111715620031ec57620031eb62003190565b5b80604052505050565b60006200320162002dcd565b90506200320f8282620031bf565b919050565b600067ffffffffffffffff82111562003232576200323162003190565b5b6200323d826200317f565b9050602081019050919050565b82818337600083830152505050565b6000620032706200326a8462003214565b620031f5565b9050828152602081018484840111156200328f576200328e6200317a565b5b6200329c8482856200324a565b509392505050565b600082601f830112620032bc57620032bb6200301a565b5b8135620032ce84826020860162003259565b91505092915050565b600080600080600080600060e0888a031215620032f957620032f862002dd7565b5b600088013567ffffffffffffffff8111156200331a576200331962002ddc565b5b620033288a828b01620032a4565b975050602088013567ffffffffffffffff8111156200334c576200334b62002ddc565b5b6200335a8a828b01620032a4565b96505060406200336d8a828b0162002e05565b9550506060620033808a828b0162002e05565b9450506080620033938a828b0162002e05565b93505060a0620033a68a828b0162002e05565b92505060c0620033b98a828b0162002e05565b91505092959891949750929550565b6000620033d58262003124565b9050919050565b620033e781620033c8565b82525050565b6000602082019050620034046000830184620033dc565b92915050565b600081519050919050565b600082825260208201905092915050565b60005b838110156200344657808201518184015260208101905062003429565b60008484015250505050565b60006200345f826200340a565b6200346b818562003415565b93506200347d81856020860162003426565b62003488816200317f565b840191505092915050565b6200349e8162002de1565b82525050565b60008115159050919050565b620034bb81620034a4565b82525050565b600060a0820190508181036000830152620034dd818862003452565b9050620034ee602083018762003493565b620034fd604083018662003493565b6200350c6060830185620034b0565b6200351b6080830184620034b0565b9695505050505050565b60006020820190506200353c600083018462003493565b92915050565b600080604083850312156200355c576200355b62002dd7565b5b60006200356c8582860162002e05565b92505060206200357f8582860162002eca565b9150509250929050565b6000604082019050620035a0600083018562003493565b620035af602083018462003493565b9392505050565b600060208284031215620035cf57620035ce62002dd7565b5b6000620035df8482850162002eca565b91505092915050565b6000620035f58262003124565b9050919050565b6200360781620035e8565b82525050565b6000604082019050620036246000830185620035fc565b62003633602083018462003493565b9392505050565b6000806040838503121562003654576200365362002dd7565b5b600083013567ffffffffffffffff81111562003675576200367462002ddc565b5b6200368385828601620032a4565b9250506020620036968582860162002e05565b9150509250929050565b7f596f75206469646e2774206f776e2061207465616d0000000000000000000000600082015250565b6000620036d860158362003415565b9150620036e582620036a0565b602082019050919050565b600060208201905081810360008301526200370b81620036c9565b9050919050565b7f4c6561677565206e6f74207265736f6c76656400000000000000000000000000600082015250565b60006200374a60138362003415565b9150620037578262003712565b602082019050919050565b600060208201905081810360008301526200377d816200373b565b9050919050565b7f596f752063616e277420636c61696d2072657761726473000000000000000000600082015250565b6000620037bc60178362003415565b9150620037c98262003784565b602082019050919050565b60006020820190508181036000830152620037ef81620037ad565b9050919050565b7f4e6f2077696e6e696e67207374616b6500000000000000000000000000000000600082015250565b60006200382e60108362003415565b91506200383b82620037f6565b602082019050919050565b6000602082019050818103600083015262003861816200381f565b9050919050565b600081905092915050565b50565b60006200388560008362003868565b9150620038928262003873565b600082019050919050565b6000620038aa8262003876565b9150819050919050565b7f7472616e73666572206661696c65640000000000000000000000000000000000600082015250565b6000620038ec600f8362003415565b9150620038f982620038b4565b602082019050919050565b600060208201905081810360008301526200391f81620038dd565b9050919050565b7f4e487b7100000000000000000000000000000000000000000000000000000000600052603260045260246000fd5b7f596f7520616c7265616479206f776e207468697320706c617965720000000000600082015250565b60006200398d601b8362003415565b91506200399a8262003955565b602082019050919050565b60006020820190508181036000830152620039c0816200397e565b9050919050565b7f4769766520746865206665657320666f72207472616e73666572696e67000000600082015250565b6000620039ff601d8362003415565b915062003a0c82620039c7565b602082019050919050565b6000602082019050818103600083015262003a3281620039f0565b9050919050565b60008151905062003a4a8162002deb565b92915050565b60006020828403121562003a695762003a6862002dd7565b5b600062003a798482850162003a39565b91505092915050565b7f796f7520646f6e277420686176652062616c616e636520746f2062757920746860008201527f697320706c617965720000000000000000000000000000000000000000000000602082015250565b600062003ae060298362003415565b915062003aed8262003a82565b604082019050919050565b6000602082019050818103600083015262003b138162003ad1565b9050919050565b7f4e487b7100000000000000000000000000000000000000000000000000000000600052601160045260246000fd5b600062003b568262002de1565b915062003b638362002de1565b925082820190508082111562003b7e5762003b7d62003b1a565b5b92915050565b600060408201905062003b9b600083018562002e82565b62003baa602083018462003493565b9392505050565b62003bbc81620034a4565b811462003bc857600080fd5b50565b60008151905062003bdc8162003bb1565b92915050565b60006020828403121562003bfb5762003bfa62002dd7565b5b600062003c0b8482850162003bcb565b91505092915050565b600062003c218262002de1565b915062003c2e8362002de1565b925082820390508181111562003c495762003c4862003b1a565b5b92915050565b600060608201905062003c66600083018662002e82565b62003c75602083018562003493565b62003c84604083018462003493565b949350505050565b7f43616e27742073656c656374206d6f7265207468616e20313120706c6179657260008201527f7300000000000000000000000000000000000000000000000000000000000000602082015250565b600062003cea60218362003415565b915062003cf78262003c8c565b604082019050919050565b6000602082019050818103600083015262003d1d8162003cdb565b9050919050565b7f4c656167756520646f65736e2774206578697374000000000000000000000000600082015250565b600062003d5c60148362003415565b915062003d698262003d24565b602082019050919050565b6000602082019050818103600083015262003d8f8162003d4d565b9050919050565b7f596f7520616c7265616479206f776e2061207465616d00000000000000000000600082015250565b600062003dce60168362003415565b915062003ddb8262003d96565b602082019050919050565b6000602082019050818103600083015262003e018162003dbf565b9050919050565b7f5374616b652063687a20746f20637265617465207465616d0000000000000000600082015250565b600062003e4060188362003415565b915062003e4d8262003e08565b602082019050919050565b6000602082019050818103600083015262003e738162003e31565b9050919050565b7f546f74616c2070726963652065786365656473203130204261736520746f6b6560008201527f6e00000000000000000000000000000000000000000000000000000000000000602082015250565b600062003ed860218362003415565b915062003ee58262003e7a565b604082019050919050565b6000602082019050818103600083015262003f0b8162003ec9565b9050919050565b7f496e76616c696420706c61796572000000000000000000000000000000000000600082015250565b600062003f4a600e8362003415565b915062003f578262003f12565b602082019050919050565b6000602082019050818103600083015262003f7d8162003f3b565b9050919050565b7f416c7265616479206f776e656400000000000000000000000000000000000000600082015250565b600062003fbc600d8362003415565b915062003fc98262003f84565b602082019050919050565b6000602082019050818103600083015262003fef8162003fad565b9050919050565b6000819050919050565b6000620040216200401b620040158462003ff6565b620030f2565b62002de1565b9050919050565b620040338162004000565b82525050565b600060408201905062004050600083018562002e82565b6200405f602083018462004028565b9392505050565b6000819050919050565b600062004081602084018462002eca565b905092915050565b6000602082019050919050565b6000620040a4838562002f33565b9350620040b18262004066565b8060005b85811015620040f257620040ca828462004070565b620040d6888262002f65565b9750620040e38362004089565b925050600181019050620040b5565b5085925050509392505050565b600060408201905081810360008301526200411c81858762004096565b90506200412d602083018462003493565b949350505050565b7f596f7520646f6e2774206f776e207468697320706c6179657200000000000000600082015250565b60006200416d60198362003415565b91506200417a8262004135565b602082019050919050565b60006020820190508181036000830152620041a0816200415e565b9050919050565b7f796f7520617265206e6f7420746865206f776e65720000000000000000000000600082015250565b6000620041df60158362003415565b9150620041ec82620041a7565b602082019050919050565b600060208201905081810360008301526200421281620041d0565b9050919050565b6000608082019050818103600083015262004235818762003452565b905081810360208301526200424b818662003452565b90506200425c604083018562003493565b6200426b606083018462003493565b95945050505050565b6000620042818262002de1565b91506200428e8362002de1565b92508282026200429e8162002de1565b91508282048414831517620042b857620042b762003b1a565b5b5092915050565b60006080820190508181036000830152620042db818762003452565b9050620042ec602083018662003493565b620042fb604083018562003493565b6200430a606083018462003493565b95945050505050565b7f4e487b7100000000000000000000000000000000000000000000000000000000600052602260045260246000fd5b600060028204905060018216806200435b57607f821691505b60208210810362004371576200437062004313565b5b50919050565b7f496e76616c6964207265736f6c76652074696d65000000000000000000000000600082015250565b6000620043af60148362003415565b9150620043bc8262004377565b602082019050919050565b60006020820190508181036000830152620043e281620043a0565b9050919050565b60008190508160005260206000209050919050565b60006020601f8301049050919050565b600082821b905092915050565b6000600883026200444d7fffffffffffffffffffffffffffffffffffffffffffffffffffffffffffffffff826200440e565b6200445986836200440e565b95508019841693508086168417925050509392505050565b6000620044926200448c620044868462002de1565b620030f2565b62002de1565b9050919050565b6000819050919050565b620044ae8362004471565b620044c6620044bd8262004499565b8484546200441b565b825550505050565b600090565b620044dd620044ce565b620044ea818484620044a3565b505050565b5b81811015620045125762004506600082620044d3565b600181019050620044f0565b5050565b601f82111562004561576200452b81620043e9565b6200453684620043fe565b8101602085101562004546578190505b6200455e6200455585620043fe565b830182620044ef565b50505b505050565b600082821c905092915050565b6000620045866000198460080262004566565b1980831691505092915050565b6000620045a1838362004573565b9150826002028217905092915050565b620045bc826200340a565b67ffffffffffffffff811115620045d857620045d762003190565b5b620045e4825462004342565b620045f182828562004516565b600060209050601f83116001811462004629576000841562004614578287015190505b62004620858262004593565b86555062004690565b601f1984166200463986620043e9565b60005b8281101562004663578489015182556001820191506020850194506020810190506200463c565b868310156200468357848901516200467f601f89168262004573565b8355505b6001600288020188555050505b505050505050565b60006040820190508181036000830152620046b4818562003452565b9050620046c5602083018462003493565b9392505050565b6000620046d98262002de1565b91507fffffffffffffffffffffffffffffffffffffffffffffffffffffffffffffffff82036200470e576200470d62003b1a565b5b600182019050919050565b7f4e487b7100000000000000000000000000000000000000000000000000000000600052601260045260246000fd5b6000620047558262002de1565b9150620047628362002de1565b92508262004775576200477462004719565b5b828204905092915050565b7f4e487b7100000000000000000000000000000000000000000000000000000000600052603160045260246000fdfe60806040523480156200001157600080fd5b506040516200178838038062001788833981810160405281019062000037919062000286565b838381600390816200004a919062000577565b5080600490816200005c919062000577565b505050816005819055508060068190555033600760006101000a81548173ffffffffffffffffffffffffffffffffffffffff021916908373ffffffffffffffffffffffffffffffffffffffff160217905550505050506200065e565b6000604051905090565b600080fd5b600080fd5b600080fd5b600080fd5b6000601f19601f8301169050919050565b7f4e487b7100000000000000000000000000000000000000000000000000000000600052604160045260246000fd5b6200012182620000d6565b810181811067ffffffffffffffff82111715620001435762000142620000e7565b5b80604052505050565b600062000158620000b8565b905062000166828262000116565b919050565b600067ffffffffffffffff821115620001895762000188620000e7565b5b6200019482620000d6565b9050602081019050919050565b60005b83811015620001c1578082015181840152602081019050620001a4565b60008484015250505050565b6000620001e4620001de846200016b565b6200014c565b905082815260208101848484011115620002035762000202620000d1565b5b62000210848285620001a1565b509392505050565b600082601f83011262000230576200022f620000cc565b5b815162000242848260208601620001cd565b91505092915050565b6000819050919050565b62000260816200024b565b81146200026c57600080fd5b50565b600081519050620002808162000255565b92915050565b60008060008060808587031215620002a357620002a2620000c2565b5b600085015167ffffffffffffffff811115620002c457620002c3620000c7565b5b620002d28782880162000218565b945050602085015167ffffffffffffffff811115620002f657620002f5620000c7565b5b620003048782880162000218565b935050604062000317878288016200026f565b92505060606200032a878288016200026f565b91505092959194509250565b600081519050919050565b7f4e487b7100000000000000000000000000000000000000000000000000000000600052602260045260246000fd5b600060028204905060018216806200038957607f821691505b6020821081036200039f576200039e62000341565b5b50919050565b60008190508160005260206000209050919050565b60006020601f8301049050919050565b600082821b905092915050565b600060088302620004097fffffffffffffffffffffffffffffffffffffffffffffffffffffffffffffffff82620003ca565b620004158683620003ca565b95508019841693508086168417925050509392505050565b6000819050919050565b600062000458620004526200044c846200024b565b6200042d565b6200024b565b9050919050565b6000819050919050565b620004748362000437565b6200048c62000483826200045f565b848454620003d7565b825550505050565b600090565b620004a362000494565b620004b081848462000469565b505050565b5b81811015620004d857620004cc60008262000499565b600181019050620004b6565b5050565b601f8211156200052757620004f181620003a5565b620004fc84620003ba565b810160208510156200050c578190505b620005246200051b85620003ba565b830182620004b5565b50505b505050565b600082821c905092915050565b60006200054c600019846008026200052c565b1980831691505092915050565b600062000567838362000539565b9150826002028217905092915050565b620005828262000336565b67ffffffffffffffff8111156200059e576200059d620000e7565b5b620005aa825462000370565b620005b7828285620004dc565b600060209050601f831160018114620005ef5760008415620005da578287015190505b620005e6858262000559565b86555062000656565b601f198416620005ff86620003a5565b60005b82811015620006295784890151825560018201915060208501945060208101905062000602565b8683101562000649578489015162000645601f89168262000539565b8355505b6001600288020188555050505b505050505050565b61111a806200066e6000396000f3fe608060405234801561001057600080fd5b50600436106100cf5760003560e01c806340c10f191161008c5780638da5cb5b116100665780638da5cb5b1461021657806395d89b4114610234578063a9059cbb14610252578063dd62ed3e14610282576100cf565b806340c10f19146101ac57806370a08231146101c857806385f2aef2146101f8576100cf565b806306fdde03146100d457806309218e91146100f2578063095ea7b31461011057806318160ddd1461014057806323b872dd1461015e578063313ce5671461018e575b600080fd5b6100dc6102b2565b6040516100e99190610cc0565b60405180910390f35b6100fa610344565b6040516101079190610cfb565b60405180910390f35b61012a60048036038101906101259190610da5565b61034a565b6040516101379190610e00565b60405180910390f35b61014861036d565b6040516101559190610cfb565b60405180910390f35b61017860048036038101906101739190610e1b565b610377565b6040516101859190610e00565b60405180910390f35b6101966103a6565b6040516101a39190610e8a565b60405180910390f35b6101c660048036038101906101c19190610da5565b6103af565b005b6101e260048036038101906101dd9190610ea5565b610460565b6040516101ef9190610cfb565b60405180910390f35b6102006104a8565b60405161020d9190610cfb565b60405180910390f35b61021e6104ae565b60405161022b9190610ee1565b60405180910390f35b61023c6104d4565b6040516102499190610cc0565b60405180910390f35b61026c60048036038101906102679190610da5565b610566565b6040516102799190610e00565b60405180910390f35b61029c60048036038101906102979190610efc565b610589565b6040516102a99190610cfb565b60405180910390f35b6060600380546102c190610f6b565b80601f01602080910402602001604051908101604052809291908181526020018280546102ed90610f6b565b801561033a5780601f1061030f5761010080835404028352916020019161033a565b820191906000526020600020905b81548152906001019060200180831161031d57829003601f168201915b5050505050905090565b60055481565b600080610355610610565b9050610362818585610618565b600191505092915050565b6000600254905090565b600080610382610610565b905061038f85828561062a565b61039a8585856106be565b60019150509392505050565b60006012905090565b3373ffffffffffffffffffffffffffffffffffffffff16600760009054906101000a900473ffffffffffffffffffffffffffffffffffffffff1673ffffffffffffffffffffffffffffffffffffffff161461043f576040517f08c379a000000000000000000000000000000000000000000000000000000000815260040161043690610fe8565b60405180910390fd5b61045c82670de0b6b3a7640000836104579190611037565b6107b2565b5050565b60008060008373ffffffffffffffffffffffffffffffffffffffff1673ffffffffffffffffffffffffffffffffffffffff168152602001908152602001600020549050919050565b60065481565b600760009054906101000a900473ffffffffffffffffffffffffffffffffffffffff1681565b6060600480546104e390610f6b565b80601f016020809104026020016040519081016040528092919081815260200182805461050f90610f6b565b801561055c5780601f106105315761010080835404028352916020019161055c565b820191906000526020600020905b81548152906001019060200180831161053f57829003601f168201915b5050505050905090565b600080610571610610565b905061057e8185856106be565b600191505092915050565b6000600160008473ffffffffffffffffffffffffffffffffffffffff1673ffffffffffffffffffffffffffffffffffffffff16815260200190815260200160002060008373ffffffffffffffffffffffffffffffffffffffff1673ffffffffffffffffffffffffffffffffffffffff16815260200190815260200160002054905092915050565b600033905090565b6106258383836001610834565b505050565b60006106368484610589565b90507fffffffffffffffffffffffffffffffffffffffffffffffffffffffffffffffff81146106b857818110156106a8578281836040517ffb8f41b200000000000000000000000000000000000000000000000000000000815260040161069f93929190611079565b60405180910390fd5b6106b784848484036000610834565b5b50505050565b600073ffffffffffffffffffffffffffffffffffffffff168373ffffffffffffffffffffffffffffffffffffffff16036107305760006040517f96c6fd1e0000000000000000000000000000000000000000000000000000000081526004016107279190610ee1565b60405180910390fd5b600073ffffffffffffffffffffffffffffffffffffffff168273ffffffffffffffffffffffffffffffffffffffff16036107a25760006040517fec442f050000000000000000000000000000000000000000000000000000000081526004016107999190610ee1565b60405180910390fd5b6107ad838383610a0b565b505050565b600073ffffffffffffffffffffffffffffffffffffffff168273ffffffffffffffffffffffffffffffffffffffff16036108245760006040517fec442f0500000000000000000000000000000000000000000000000000000000815260040161081b9190610ee1565b60405180910390fd5b61083060008383610a0b565b5050565b600073ffffffffffffffffffffffffffffffffffffffff168473ffffffffffffffffffffffffffffffffffffffff16036108a65760006040517fe602df0500000000000000000000000000000000000000000000000000000000815260040161089d9190610ee1565b60405180910390fd5b600073ffffffffffffffffffffffffffffffffffffffff168373ffffffffffffffffffffffffffffffffffffffff16036109185760006040517f94280d6200000000000000000000000000000000000000000000000000000000815260040161090f9190610ee1565b60405180910390fd5b81600160008673ffffffffffffffffffffffffffffffffffffffff1673ffffffffffffffffffffffffffffffffffffffff16815260200190815260200160002060008573ffffffffffffffffffffffffffffffffffffffff1673ffffffffffffffffffffffffffffffffffffffff168152602001908152602001600020819055508015610a05578273ffffffffffffffffffffffffffffffffffffffff168473ffffffffffffffffffffffffffffffffffffffff167f8c5be1e5ebec7d5bd14f71427d1e84f3dd0314c0f7b2291e5b200ac8c7c3b925846040516109fc9190610cfb565b60405180910390a35b50505050565b600073ffffffffffffffffffffffffffffffffffffffff168373ffffffffffffffffffffffffffffffffffffffff1603610a5d578060026000828254610a5191906110b0565b92505081905550610b30565b60008060008573ffffffffffffffffffffffffffffffffffffffff1673ffffffffffffffffffffffffffffffffffffffff16815260200190815260200160002054905081811015610ae9578381836040517fe450d38c000000000000000000000000000000000000000000000000000000008152600401610ae093929190611079565b60405180910390fd5b8181036000808673ffffffffffffffffffffffffffffffffffffffff1673ffffffffffffffffffffffffffffffffffffffff16815260200190815260200160002081905550505b600073ffffffffffffffffffffffffffffffffffffffff168273ffffffffffffffffffffffffffffffffffffffff1603610b795780600260008282540392505081905550610bc6565b806000808473ffffffffffffffffffffffffffffffffffffffff1673ffffffffffffffffffffffffffffffffffffffff168152602001908152602001600020600082825401925050819055505b8173ffffffffffffffffffffffffffffffffffffffff168373ffffffffffffffffffffffffffffffffffffffff167fddf252ad1be2c89b69c2b068fc378daa952ba7f163c4a11628f55a4df523b3ef83604051610c239190610cfb565b60405180910390a3505050565b600081519050919050565b600082825260208201905092915050565b60005b83811015610c6a578082015181840152602081019050610c4f565b60008484015250505050565b6000601f19601f8301169050919050565b6000610c9282610c30565b610c9c8185610c3b565b9350610cac818560208601610c4c565b610cb581610c76565b840191505092915050565b60006020820190508181036000830152610cda8184610c87565b905092915050565b6000819050919050565b610cf581610ce2565b82525050565b6000602082019050610d106000830184610cec565b92915050565b600080fd5b600073ffffffffffffffffffffffffffffffffffffffff82169050919050565b6000610d4682610d1b565b9050919050565b610d5681610d3b565b8114610d6157600080fd5b50565b600081359050610d7381610d4d565b92915050565b610d8281610ce2565b8114610d8d57600080fd5b50565b600081359050610d9f81610d79565b92915050565b60008060408385031215610dbc57610dbb610d16565b5b6000610dca85828601610d64565b9250506020610ddb85828601610d90565b9150509250929050565b60008115159050919050565b610dfa81610de5565b82525050565b6000602082019050610e156000830184610df1565b92915050565b600080600060608486031215610e3457610e33610d16565b5b6000610e4286828701610d64565b9350506020610e5386828701610d64565b9250506040610e6486828701610d90565b9150509250925092565b600060ff82169050919050565b610e8481610e6e565b82525050565b6000602082019050610e9f6000830184610e7b565b92915050565b600060208284031215610ebb57610eba610d16565b5b6000610ec984828501610d64565b91505092915050565b610edb81610d3b565b82525050565b6000602082019050610ef66000830184610ed2565b92915050565b60008060408385031215610f1357610f12610d16565b5b6000610f2185828601610d64565b9250506020610f3285828601610d64565b9150509250929050565b7f4e487b7100000000000000000000000000000000000000000000000000000000600052602260045260246000fd5b60006002820490506001821680610f8357607f821691505b602082108103610f9657610f95610f3c565b5b50919050565b7f796f7520617265206e6f7420746865206f776e65720000000000000000000000600082015250565b6000610fd2601583610c3b565b9150610fdd82610f9c565b602082019050919050565b6000602082019050818103600083015261100181610fc5565b9050919050565b7f4e487b7100000000000000000000000000000000000000000000000000000000600052601160045260246000fd5b600061104282610ce2565b915061104d83610ce2565b925082820261105b81610ce2565b9150828204841483151761107257611071611008565b5b5092915050565b600060608201905061108e6000830186610ed2565b61109b6020830185610cec565b6110a86040830184610cec565b949350505050565b60006110bb82610ce2565b91506110c683610ce2565b92508282019050808211156110de576110dd611008565b5b9291505056fea264697066735822122058bb8a2e5ef81224123ca98b459bfd798c699ba6cf064c15d68ae13774b23b9c64736f6c63430008180033a264697066735822122058127fd42838133db0c372faabbc5828bf051299ab89bce97f4469ebd2816e9f64736f6c63430008180033",
  "linkReferences": {},
  "deployedLinkReferences": {}
}