{
  "_format": "hh-sol-artifact-1",
  "contractName": "PlayerTokenAMM",
  "sourceName": "contracts/TransferMarket.sol",
  "abi": [
    {
      "inputs": [
        {
          "internalType": "address",
          "name": "_baseToken",
          "type": "address"
        },
        {
          "internalType": "address",
          "name": "_owner",
          "type": "address"
        }
      ],
      "stateMutability": "nonpayable",
      "type": "constructor"
    },
    {
      "inputs": [
        {
          "internalType": "address",
          "name": "target",
          "type": "address"
        }
      ],
      "name": "AddressEmptyCode",
      "type": "error"
    },
    {
      "inputs": [
        {
          "internalType": "address",
          "name": "account",
          "type": "address"
        }
      ],
      "name": "AddressInsufficientBalance",
      "type": "error"
    },
    {
      "inputs": [],
      "name": "FailedInnerCall",
      "type": "error"
    },
    {
      "inputs": [
        {
          "internalType": "address",
          "name": "token",
          "type": "address"
        }
      ],
      "name": "SafeERC20FailedOperation",
      "type": "error"
    },
    {
      "inputs": [],
      "name": "baseToken",
      "outputs": [
        {
          "internalType": "contract IERC20",
          "name": "",
          "type": "address"
        }
      ],
      "stateMutability": "view",
      "type": "function"
    },
    {
      "inputs": [
        {
          "internalType": "address",
          "name": "_playerToken",
          "type": "address"
        }
      ],
      "name": "buyPlayerToken",
      "outputs": [],
      "stateMutability": "nonpayable",
      "type": "function"
    },
    {
      "inputs": [
        {
          "internalType": "address",
          "name": "_playerToken",
          "type": "address"
        },
        {
          "internalType": "uint256",
          "name": "_initialLiquidity",
          "type": "uint256"
        },
        {
          "internalType": "uint256",
          "name": "_price",
          "type": "uint256"
        }
      ],
      "name": "createPool",
      "outputs": [],
      "stateMutability": "nonpayable",
      "type": "function"
    },
    {
      "inputs": [
        {
          "internalType": "address",
          "name": "_playerToken",
          "type": "address"
        }
      ],
      "name": "getCurrentPlayerPrice",
      "outputs": [
        {
          "internalType": "uint256",
          "name": "",
          "type": "uint256"
        }
      ],
      "stateMutability": "view",
      "type": "function"
    },
    {
      "inputs": [
        {
          "internalType": "address",
          "name": "_playerToken",
          "type": "address"
        }
      ],
      "name": "getPoolInfo",
      "outputs": [
        {
          "internalType": "uint256",
          "name": "",
          "type": "uint256"
        },
        {
          "internalType": "uint256",
          "name": "",
          "type": "uint256"
        }
      ],
      "stateMutability": "view",
      "type": "function"
    },
    {
      "inputs": [],
      "name": "owner",
      "outputs": [
        {
          "internalType": "address",
          "name": "",
          "type": "address"
        }
      ],
      "stateMutability": "view",
      "type": "function"
    },
    {
      "inputs": [
        {
          "internalType": "address",
          "name": "",
          "type": "address"
        }
      ],
      "name": "pools",
      "outputs": [
        {
          "internalType": "uint256",
          "name": "baseTokenReserve",
          "type": "uint256"
        },
        {
          "internalType": "uint256",
          "name": "playerTokenReserve",
          "type": "uint256"
        }
      ],
      "stateMutability": "view",
      "type": "function"
    },
    {
      "inputs": [
        {
          "internalType": "address",
          "name": "_playerToken",
          "type": "address"
        },
        {
          "internalType": "uint256",
          "name": "price",
          "type": "uint256"
        }
      ],
      "name": "sellPlayerToken",
      "outputs": [],
      "stateMutability": "nonpayable",
      "type": "function"
    },
    {
      "inputs": [
        {
          "internalType": "address",
          "name": "_newOwner",
          "type": "address"
        }
      ],
      "name": "setNewOwner",
      "outputs": [],
      "stateMutability": "nonpayable",
      "type": "function"
    }
  ],
  "bytecode": "0x60806040523480156200001157600080fd5b50604051620017003803806200170083398181016040528101906200003791906200012a565b81600160006101000a81548173ffffffffffffffffffffffffffffffffffffffff021916908373ffffffffffffffffffffffffffffffffffffffff160217905550806000806101000a81548173ffffffffffffffffffffffffffffffffffffffff021916908373ffffffffffffffffffffffffffffffffffffffff160217905550505062000171565b600080fd5b600073ffffffffffffffffffffffffffffffffffffffff82169050919050565b6000620000f282620000c5565b9050919050565b6200010481620000e5565b81146200011057600080fd5b50565b6000815190506200012481620000f9565b92915050565b60008060408385031215620001445762000143620000c0565b5b6000620001548582860162000113565b9250506020620001678582860162000113565b9150509250929050565b61157f80620001816000396000f3fe608060405234801561001057600080fd5b50600436106100935760003560e01c80638da5cb5b116100665780638da5cb5b14610131578063a4063dbc1461014f578063b039ddf614610180578063c55dae631461019c578063f5a1f5b4146101ba57610093565b806306bfa938146100985780631abde1fc146100c95780635e30d9c2146100e55780638b23251114610101575b600080fd5b6100b260048036038101906100ad9190610e87565b6101d6565b6040516100c0929190610ecd565b60405180910390f35b6100e360048036038101906100de9190610e87565b610230565b005b6100ff60048036038101906100fa9190610f22565b6104f8565b005b61011b60048036038101906101169190610e87565b6106d5565b6040516101289190610f62565b60405180910390f35b61013961078f565b6040516101469190610f8c565b60405180910390f35b61016960048036038101906101649190610e87565b6107b3565b604051610177929190610ecd565b60405180910390f35b61019a60048036038101906101959190610fa7565b6107d7565b005b6101a46109de565b6040516101b19190611059565b60405180910390f35b6101d460048036038101906101cf9190610e87565b610a04565b005b6000806000600260008573ffffffffffffffffffffffffffffffffffffffff1673ffffffffffffffffffffffffffffffffffffffff1681526020019081526020016000209050806000015481600101549250925050915091565b60008054906101000a900473ffffffffffffffffffffffffffffffffffffffff1673ffffffffffffffffffffffffffffffffffffffff163373ffffffffffffffffffffffffffffffffffffffff16146102be576040517f08c379a00000000000000000000000000000000000000000000000000000000081526004016102b5906110f7565b60405180910390fd5b6000600260008373ffffffffffffffffffffffffffffffffffffffff1673ffffffffffffffffffffffffffffffffffffffff16815260200190815260200160002090506000816000015411610348576040517f08c379a000000000000000000000000000000000000000000000000000000000815260040161033f90611163565b60405180910390fd5b6000610353836106d5565b905080600160009054906101000a900473ffffffffffffffffffffffffffffffffffffffff1673ffffffffffffffffffffffffffffffffffffffff166370a08231336040518263ffffffff1660e01b81526004016103b19190610f8c565b602060405180830381865afa1580156103ce573d6000803e3d6000fd5b505050506040513d601f19601f820116820180604052508101906103f29190611198565b1015610433576040517f08c379a000000000000000000000000000000000000000000000000000000000815260040161042a90611237565b60405180910390fd5b610482333083600160009054906101000a900473ffffffffffffffffffffffffffffffffffffffff1673ffffffffffffffffffffffffffffffffffffffff16610ad5909392919063ffffffff16565b6104b533670de0b6b3a76400008573ffffffffffffffffffffffffffffffffffffffff16610b579092919063ffffffff16565b808260000160008282546104c99190611286565b92505081905550670de0b6b3a76400008260010160008282546104ec91906112ba565b92505081905550505050565b60008054906101000a900473ffffffffffffffffffffffffffffffffffffffff1673ffffffffffffffffffffffffffffffffffffffff163373ffffffffffffffffffffffffffffffffffffffff1614610586576040517f08c379a000000000000000000000000000000000000000000000000000000000815260040161057d906110f7565b60405180910390fd5b6000600260008473ffffffffffffffffffffffffffffffffffffffff1673ffffffffffffffffffffffffffffffffffffffff16815260200190815260200160002090506000816000015411610610576040517f08c379a000000000000000000000000000000000000000000000000000000000815260040161060790611163565b60405180910390fd5b6106453330670de0b6b3a76400008673ffffffffffffffffffffffffffffffffffffffff16610ad5909392919063ffffffff16565b6106923383600160009054906101000a900473ffffffffffffffffffffffffffffffffffffffff1673ffffffffffffffffffffffffffffffffffffffff16610b579092919063ffffffff16565b670de0b6b3a76400008160010160008282546106ae9190611286565b92505081905550818160000160008282546106c991906112ba565b92505081905550505050565b600080600260008473ffffffffffffffffffffffffffffffffffffffff1673ffffffffffffffffffffffffffffffffffffffff16815260200190815260200160002090506000816000015411610760576040517f08c379a000000000000000000000000000000000000000000000000000000000815260040161075790611163565b60405180910390fd5b8060010154670de0b6b3a7640000826000015461077d91906112ee565b610787919061135f565b915050919050565b60008054906101000a900473ffffffffffffffffffffffffffffffffffffffff1681565b60026020528060005260406000206000915090508060000154908060010154905082565b60008054906101000a900473ffffffffffffffffffffffffffffffffffffffff1673ffffffffffffffffffffffffffffffffffffffff163373ffffffffffffffffffffffffffffffffffffffff1614610865576040517f08c379a000000000000000000000000000000000000000000000000000000000815260040161085c906110f7565b60405180910390fd5b6000600260008573ffffffffffffffffffffffffffffffffffffffff1673ffffffffffffffffffffffffffffffffffffffff16815260200190815260200160002060000154146108ea576040517f08c379a00000000000000000000000000000000000000000000000000000000081526004016108e1906113dc565b60405180910390fd5b6000839050600083836108fd91906112ee565b90506000849050610953333084600160009054906101000a900473ffffffffffffffffffffffffffffffffffffffff1673ffffffffffffffffffffffffffffffffffffffff16610ad5909392919063ffffffff16565b6109803330838673ffffffffffffffffffffffffffffffffffffffff16610ad5909392919063ffffffff16565b6000600260008873ffffffffffffffffffffffffffffffffffffffff1673ffffffffffffffffffffffffffffffffffffffff168152602001908152602001600020905082816000018190555081816001018190555050505050505050565b600160009054906101000a900473ffffffffffffffffffffffffffffffffffffffff1681565b60008054906101000a900473ffffffffffffffffffffffffffffffffffffffff1673ffffffffffffffffffffffffffffffffffffffff163373ffffffffffffffffffffffffffffffffffffffff1614610a92576040517f08c379a0000000000000000000000000000000000000000000000000000000008152600401610a89906110f7565b60405180910390fd5b806000806101000a81548173ffffffffffffffffffffffffffffffffffffffff021916908373ffffffffffffffffffffffffffffffffffffffff16021790555050565b610b51848573ffffffffffffffffffffffffffffffffffffffff166323b872dd868686604051602401610b0a939291906113fc565b604051602081830303815290604052915060e01b6020820180517bffffffffffffffffffffffffffffffffffffffffffffffffffffffff8381831617835250505050610bd6565b50505050565b610bd1838473ffffffffffffffffffffffffffffffffffffffff1663a9059cbb8585604051602401610b8a929190611433565b604051602081830303815290604052915060e01b6020820180517bffffffffffffffffffffffffffffffffffffffffffffffffffffffff8381831617835250505050610bd6565b505050565b6000610c01828473ffffffffffffffffffffffffffffffffffffffff16610c6d90919063ffffffff16565b90506000815114158015610c26575080806020019051810190610c249190611494565b155b15610c6857826040517f5274afe7000000000000000000000000000000000000000000000000000000008152600401610c5f9190610f8c565b60405180910390fd5b505050565b6060610c7b83836000610c83565b905092915050565b606081471015610cca57306040517fcd786059000000000000000000000000000000000000000000000000000000008152600401610cc19190610f8c565b60405180910390fd5b6000808573ffffffffffffffffffffffffffffffffffffffff168486604051610cf39190611532565b60006040518083038185875af1925050503d8060008114610d30576040519150601f19603f3d011682016040523d82523d6000602084013e610d35565b606091505b5091509150610d45868383610d50565b925050509392505050565b606082610d6557610d6082610ddf565b610dd7565b60008251148015610d8d575060008473ffffffffffffffffffffffffffffffffffffffff163b145b15610dcf57836040517f9996b315000000000000000000000000000000000000000000000000000000008152600401610dc69190610f8c565b60405180910390fd5b819050610dd8565b5b9392505050565b600081511115610df25780518082602001fd5b6040517f1425ea4200000000000000000000000000000000000000000000000000000000815260040160405180910390fd5b600080fd5b600073ffffffffffffffffffffffffffffffffffffffff82169050919050565b6000610e5482610e29565b9050919050565b610e6481610e49565b8114610e6f57600080fd5b50565b600081359050610e8181610e5b565b92915050565b600060208284031215610e9d57610e9c610e24565b5b6000610eab84828501610e72565b91505092915050565b6000819050919050565b610ec781610eb4565b82525050565b6000604082019050610ee26000830185610ebe565b610eef6020830184610ebe565b9392505050565b610eff81610eb4565b8114610f0a57600080fd5b50565b600081359050610f1c81610ef6565b92915050565b60008060408385031215610f3957610f38610e24565b5b6000610f4785828601610e72565b9250506020610f5885828601610f0d565b9150509250929050565b6000602082019050610f776000830184610ebe565b92915050565b610f8681610e49565b82525050565b6000602082019050610fa16000830184610f7d565b92915050565b600080600060608486031215610fc057610fbf610e24565b5b6000610fce86828701610e72565b9350506020610fdf86828701610f0d565b9250506040610ff086828701610f0d565b9150509250925092565b6000819050919050565b600061101f61101a61101584610e29565b610ffa565b610e29565b9050919050565b600061103182611004565b9050919050565b600061104382611026565b9050919050565b61105381611038565b82525050565b600060208201905061106e600083018461104a565b92915050565b600082825260208201905092915050565b7f4f6e6c79206f776e65722063616e2063616c6c20746869732066756e6374696f60008201527f6e00000000000000000000000000000000000000000000000000000000000000602082015250565b60006110e1602183611074565b91506110ec82611085565b604082019050919050565b60006020820190508181036000830152611110816110d4565b9050919050565b7f506f6f6c20646f6573206e6f7420657869737400000000000000000000000000600082015250565b600061114d601383611074565b915061115882611117565b602082019050919050565b6000602082019050818103600083015261117c81611140565b9050919050565b60008151905061119281610ef6565b92915050565b6000602082840312156111ae576111ad610e24565b5b60006111bc84828501611183565b91505092915050565b7f496e73756666696369656e74206261736520746f6b656e7320746f206275792060008201527f506c6179657220746f6b656e2e00000000000000000000000000000000000000602082015250565b6000611221602d83611074565b915061122c826111c5565b604082019050919050565b6000602082019050818103600083015261125081611214565b9050919050565b7f4e487b7100000000000000000000000000000000000000000000000000000000600052601160045260246000fd5b600061129182610eb4565b915061129c83610eb4565b92508282019050808211156112b4576112b3611257565b5b92915050565b60006112c582610eb4565b91506112d083610eb4565b92508282039050818111156112e8576112e7611257565b5b92915050565b60006112f982610eb4565b915061130483610eb4565b925082820261131281610eb4565b9150828204841483151761132957611328611257565b5b5092915050565b7f4e487b7100000000000000000000000000000000000000000000000000000000600052601260045260246000fd5b600061136a82610eb4565b915061137583610eb4565b92508261138557611384611330565b5b828204905092915050565b7f506f6f6c20616c72656164792065786973747300000000000000000000000000600082015250565b60006113c6601383611074565b91506113d182611390565b602082019050919050565b600060208201905081810360008301526113f5816113b9565b9050919050565b60006060820190506114116000830186610f7d565b61141e6020830185610f7d565b61142b6040830184610ebe565b949350505050565b60006040820190506114486000830185610f7d565b6114556020830184610ebe565b9392505050565b60008115159050919050565b6114718161145c565b811461147c57600080fd5b50565b60008151905061148e81611468565b92915050565b6000602082840312156114aa576114a9610e24565b5b60006114b88482850161147f565b91505092915050565b600081519050919050565b600081905092915050565b60005b838110156114f55780820151818401526020810190506114da565b60008484015250505050565b600061150c826114c1565b61151681856114cc565b93506115268185602086016114d7565b80840191505092915050565b600061153e8284611501565b91508190509291505056fea264697066735822122048d79031a8f1c42f05304eb11b6fa04dba9b87d41d6fc17a0cb6afbb28f3c7b364736f6c63430008180033",
  "linkReferences": {},
  "deployedLinkReferences": {}
}