{
  "_format": "hh-sol-artifact-1",
  "contractName": "PlayerToken",
  "sourceName": "contracts/PlayerToken.sol",
  "abi": [
    {
      "inputs": [
        {
          "internalType": "string",
          "name": "name",
          "type": "string"
        },
        {
          "internalType": "string",
          "name": "symbol",
          "type": "string"
        },
        {
          "internalType": "uint256",
          "name": "_position",
          "type": "uint256"
        },
        {
          "internalType": "uint256",
          "name": "_team",
          "type": "uint256"
        }
      ],
      "stateMutability": "nonpayable",
      "type": "constructor"
    },
    {
      "inputs": [
        {
          "internalType": "address",
          "name": "spender",
          "type": "address"
        },
        {
          "internalType": "uint256",
          "name": "allowance",
          "type": "uint256"
        },
        {
          "internalType": "uint256",
          "name": "needed",
          "type": "uint256"
        }
      ],
      "name": "ERC20InsufficientAllowance",
      "type": "error"
    },
    {
      "inputs": [
        {
          "internalType": "address",
          "name": "sender",
          "type": "address"
        },
        {
          "internalType": "uint256",
          "name": "balance",
          "type": "uint256"
        },
        {
          "internalType": "uint256",
          "name": "needed",
          "type": "uint256"
        }
      ],
      "name": "ERC20InsufficientBalance",
      "type": "error"
    },
    {
      "inputs": [
        {
          "internalType": "address",
          "name": "approver",
          "type": "address"
        }
      ],
      "name": "ERC20InvalidApprover",
      "type": "error"
    },
    {
      "inputs": [
        {
          "internalType": "address",
          "name": "receiver",
          "type": "address"
        }
      ],
      "name": "ERC20InvalidReceiver",
      "type": "error"
    },
    {
      "inputs": [
        {
          "internalType": "address",
          "name": "sender",
          "type": "address"
        }
      ],
      "name": "ERC20InvalidSender",
      "type": "error"
    },
    {
      "inputs": [
        {
          "internalType": "address",
          "name": "spender",
          "type": "address"
        }
      ],
      "name": "ERC20InvalidSpender",
      "type": "error"
    },
    {
      "anonymous": false,
      "inputs": [
        {
          "indexed": true,
          "internalType": "address",
          "name": "owner",
          "type": "address"
        },
        {
          "indexed": true,
          "internalType": "address",
          "name": "spender",
          "type": "address"
        },
        {
          "indexed": false,
          "internalType": "uint256",
          "name": "value",
          "type": "uint256"
        }
      ],
      "name": "Approval",
      "type": "event"
    },
    {
      "anonymous": false,
      "inputs": [
        {
          "indexed": true,
          "internalType": "address",
          "name": "from",
          "type": "address"
        },
        {
          "indexed": true,
          "internalType": "address",
          "name": "to",
          "type": "address"
        },
        {
          "indexed": false,
          "internalType": "uint256",
          "name": "value",
          "type": "uint256"
        }
      ],
      "name": "Transfer",
      "type": "event"
    },
    {
      "inputs": [
        {
          "internalType": "address",
          "name": "owner",
          "type": "address"
        },
        {
          "internalType": "address",
          "name": "spender",
          "type": "address"
        }
      ],
      "name": "allowance",
      "outputs": [
        {
          "internalType": "uint256",
          "name": "",
          "type": "uint256"
        }
      ],
      "stateMutability": "view",
      "type": "function"
    },
    {
      "inputs": [
        {
          "internalType": "address",
          "name": "spender",
          "type": "address"
        },
        {
          "internalType": "uint256",
          "name": "value",
          "type": "uint256"
        }
      ],
      "name": "approve",
      "outputs": [
        {
          "internalType": "bool",
          "name": "",
          "type": "bool"
        }
      ],
      "stateMutability": "nonpayable",
      "type": "function"
    },
    {
      "inputs": [
        {
          "internalType": "address",
          "name": "account",
          "type": "address"
        }
      ],
      "name": "balanceOf",
      "outputs": [
        {
          "internalType": "uint256",
          "name": "",
          "type": "uint256"
        }
      ],
      "stateMutability": "view",
      "type": "function"
    },
    {
      "inputs": [],
      "name": "decimals",
      "outputs": [
        {
          "internalType": "uint8",
          "name": "",
          "type": "uint8"
        }
      ],
      "stateMutability": "view",
      "type": "function"
    },
    {
      "inputs": [
        {
          "internalType": "address",
          "name": "to",
          "type": "address"
        },
        {
          "internalType": "uint256",
          "name": "amount",
          "type": "uint256"
        }
      ],
      "name": "mint",
      "outputs": [],
      "stateMutability": "nonpayable",
      "type": "function"
    },
    {
      "inputs": [],
      "name": "name",
      "outputs": [
        {
          "internalType": "string",
          "name": "",
          "type": "string"
        }
      ],
      "stateMutability": "view",
      "type": "function"
    },
    {
      "inputs": [],
      "name": "owner",
      "outputs": [
        {
          "internalType": "address",
          "name": "",
          "type": "address"
        }
      ],
      "stateMutability": "view",
      "type": "function"
    },
    {
      "inputs": [],
      "name": "position",
      "outputs": [
        {
          "internalType": "uint256",
          "name": "",
          "type": "uint256"
        }
      ],
      "stateMutability": "view",
      "type": "function"
    },
    {
      "inputs": [],
      "name": "symbol",
      "outputs": [
        {
          "internalType": "string",
          "name": "",
          "type": "string"
        }
      ],
      "stateMutability": "view",
      "type": "function"
    },
    {
      "inputs": [],
      "name": "team",
      "outputs": [
        {
          "internalType": "uint256",
          "name": "",
          "type": "uint256"
        }
      ],
      "stateMutability": "view",
      "type": "function"
    },
    {
      "inputs": [],
      "name": "totalSupply",
      "outputs": [
        {
          "internalType": "uint256",
          "name": "",
          "type": "uint256"
        }
      ],
      "stateMutability": "view",
      "type": "function"
    },
    {
      "inputs": [
        {
          "internalType": "address",
          "name": "to",
          "type": "address"
        },
        {
          "internalType": "uint256",
          "name": "value",
          "type": "uint256"
        }
      ],
      "name": "transfer",
      "outputs": [
        {
          "internalType": "bool",
          "name": "",
          "type": "bool"
        }
      ],
      "stateMutability": "nonpayable",
      "type": "function"
    },
    {
      "inputs": [
        {
          "internalType": "address",
          "name": "from",
          "type": "address"
        },
        {
          "internalType": "address",
          "name": "to",
          "type": "address"
        },
        {
          "internalType": "uint256",
          "name": "value",
          "type": "uint256"
        }
      ],
      "name": "transferFrom",
      "outputs": [
        {
          "internalType": "bool",
          "name": "",
          "type": "bool"
        }
      ],
      "stateMutability": "nonpayable",
      "type": "function"
    }
  ],
  "bytecode": "0x60806040523480156200001157600080fd5b506040516200178838038062001788833981810160405281019062000037919062000286565b838381600390816200004a919062000577565b5080600490816200005c919062000577565b505050816005819055508060068190555033600760006101000a81548173ffffffffffffffffffffffffffffffffffffffff021916908373ffffffffffffffffffffffffffffffffffffffff160217905550505050506200065e565b6000604051905090565b600080fd5b600080fd5b600080fd5b600080fd5b6000601f19601f8301169050919050565b7f4e487b7100000000000000000000000000000000000000000000000000000000600052604160045260246000fd5b6200012182620000d6565b810181811067ffffffffffffffff82111715620001435762000142620000e7565b5b80604052505050565b600062000158620000b8565b905062000166828262000116565b919050565b600067ffffffffffffffff821115620001895762000188620000e7565b5b6200019482620000d6565b9050602081019050919050565b60005b83811015620001c1578082015181840152602081019050620001a4565b60008484015250505050565b6000620001e4620001de846200016b565b6200014c565b905082815260208101848484011115620002035762000202620000d1565b5b62000210848285620001a1565b509392505050565b600082601f83011262000230576200022f620000cc565b5b815162000242848260208601620001cd565b91505092915050565b6000819050919050565b62000260816200024b565b81146200026c57600080fd5b50565b600081519050620002808162000255565b92915050565b60008060008060808587031215620002a357620002a2620000c2565b5b600085015167ffffffffffffffff811115620002c457620002c3620000c7565b5b620002d28782880162000218565b945050602085015167ffffffffffffffff811115620002f657620002f5620000c7565b5b620003048782880162000218565b935050604062000317878288016200026f565b92505060606200032a878288016200026f565b91505092959194509250565b600081519050919050565b7f4e487b7100000000000000000000000000000000000000000000000000000000600052602260045260246000fd5b600060028204905060018216806200038957607f821691505b6020821081036200039f576200039e62000341565b5b50919050565b60008190508160005260206000209050919050565b60006020601f8301049050919050565b600082821b905092915050565b600060088302620004097fffffffffffffffffffffffffffffffffffffffffffffffffffffffffffffffff82620003ca565b620004158683620003ca565b95508019841693508086168417925050509392505050565b6000819050919050565b600062000458620004526200044c846200024b565b6200042d565b6200024b565b9050919050565b6000819050919050565b620004748362000437565b6200048c62000483826200045f565b848454620003d7565b825550505050565b600090565b620004a362000494565b620004b081848462000469565b505050565b5b81811015620004d857620004cc60008262000499565b600181019050620004b6565b5050565b601f8211156200052757620004f181620003a5565b620004fc84620003ba565b810160208510156200050c578190505b620005246200051b85620003ba565b830182620004b5565b50505b505050565b600082821c905092915050565b60006200054c600019846008026200052c565b1980831691505092915050565b600062000567838362000539565b9150826002028217905092915050565b620005828262000336565b67ffffffffffffffff8111156200059e576200059d620000e7565b5b620005aa825462000370565b620005b7828285620004dc565b600060209050601f831160018114620005ef5760008415620005da578287015190505b620005e6858262000559565b86555062000656565b601f198416620005ff86620003a5565b60005b82811015620006295784890151825560018201915060208501945060208101905062000602565b8683101562000649578489015162000645601f89168262000539565b8355505b6001600288020188555050505b505050505050565b61111a806200066e6000396000f3fe608060405234801561001057600080fd5b50600436106100cf5760003560e01c806340c10f191161008c5780638da5cb5b116100665780638da5cb5b1461021657806395d89b4114610234578063a9059cbb14610252578063dd62ed3e14610282576100cf565b806340c10f19146101ac57806370a08231146101c857806385f2aef2146101f8576100cf565b806306fdde03146100d457806309218e91146100f2578063095ea7b31461011057806318160ddd1461014057806323b872dd1461015e578063313ce5671461018e575b600080fd5b6100dc6102b2565b6040516100e99190610cc0565b60405180910390f35b6100fa610344565b6040516101079190610cfb565b60405180910390f35b61012a60048036038101906101259190610da5565b61034a565b6040516101379190610e00565b60405180910390f35b61014861036d565b6040516101559190610cfb565b60405180910390f35b61017860048036038101906101739190610e1b565b610377565b6040516101859190610e00565b60405180910390f35b6101966103a6565b6040516101a39190610e8a565b60405180910390f35b6101c660048036038101906101c19190610da5565b6103af565b005b6101e260048036038101906101dd9190610ea5565b610460565b6040516101ef9190610cfb565b60405180910390f35b6102006104a8565b60405161020d9190610cfb565b60405180910390f35b61021e6104ae565b60405161022b9190610ee1565b60405180910390f35b61023c6104d4565b6040516102499190610cc0565b60405180910390f35b61026c60048036038101906102679190610da5565b610566565b6040516102799190610e00565b60405180910390f35b61029c60048036038101906102979190610efc565b610589565b6040516102a99190610cfb565b60405180910390f35b6060600380546102c190610f6b565b80601f01602080910402602001604051908101604052809291908181526020018280546102ed90610f6b565b801561033a5780601f1061030f5761010080835404028352916020019161033a565b820191906000526020600020905b81548152906001019060200180831161031d57829003601f168201915b5050505050905090565b60055481565b600080610355610610565b9050610362818585610618565b600191505092915050565b6000600254905090565b600080610382610610565b905061038f85828561062a565b61039a8585856106be565b60019150509392505050565b60006012905090565b3373ffffffffffffffffffffffffffffffffffffffff16600760009054906101000a900473ffffffffffffffffffffffffffffffffffffffff1673ffffffffffffffffffffffffffffffffffffffff161461043f576040517f08c379a000000000000000000000000000000000000000000000000000000000815260040161043690610fe8565b60405180910390fd5b61045c82670de0b6b3a7640000836104579190611037565b6107b2565b5050565b60008060008373ffffffffffffffffffffffffffffffffffffffff1673ffffffffffffffffffffffffffffffffffffffff168152602001908152602001600020549050919050565b60065481565b600760009054906101000a900473ffffffffffffffffffffffffffffffffffffffff1681565b6060600480546104e390610f6b565b80601f016020809104026020016040519081016040528092919081815260200182805461050f90610f6b565b801561055c5780601f106105315761010080835404028352916020019161055c565b820191906000526020600020905b81548152906001019060200180831161053f57829003601f168201915b5050505050905090565b600080610571610610565b905061057e8185856106be565b600191505092915050565b6000600160008473ffffffffffffffffffffffffffffffffffffffff1673ffffffffffffffffffffffffffffffffffffffff16815260200190815260200160002060008373ffffffffffffffffffffffffffffffffffffffff1673ffffffffffffffffffffffffffffffffffffffff16815260200190815260200160002054905092915050565b600033905090565b6106258383836001610834565b505050565b60006106368484610589565b90507fffffffffffffffffffffffffffffffffffffffffffffffffffffffffffffffff81146106b857818110156106a8578281836040517ffb8f41b200000000000000000000000000000000000000000000000000000000815260040161069f93929190611079565b60405180910390fd5b6106b784848484036000610834565b5b50505050565b600073ffffffffffffffffffffffffffffffffffffffff168373ffffffffffffffffffffffffffffffffffffffff16036107305760006040517f96c6fd1e0000000000000000000000000000000000000000000000000000000081526004016107279190610ee1565b60405180910390fd5b600073ffffffffffffffffffffffffffffffffffffffff168273ffffffffffffffffffffffffffffffffffffffff16036107a25760006040517fec442f050000000000000000000000000000000000000000000000000000000081526004016107999190610ee1565b60405180910390fd5b6107ad838383610a0b565b505050565b600073ffffffffffffffffffffffffffffffffffffffff168273ffffffffffffffffffffffffffffffffffffffff16036108245760006040517fec442f0500000000000000000000000000000000000000000000000000000000815260040161081b9190610ee1565b60405180910390fd5b61083060008383610a0b565b5050565b600073ffffffffffffffffffffffffffffffffffffffff168473ffffffffffffffffffffffffffffffffffffffff16036108a65760006040517fe602df0500000000000000000000000000000000000000000000000000000000815260040161089d9190610ee1565b60405180910390fd5b600073ffffffffffffffffffffffffffffffffffffffff168373ffffffffffffffffffffffffffffffffffffffff16036109185760006040517f94280d6200000000000000000000000000000000000000000000000000000000815260040161090f9190610ee1565b60405180910390fd5b81600160008673ffffffffffffffffffffffffffffffffffffffff1673ffffffffffffffffffffffffffffffffffffffff16815260200190815260200160002060008573ffffffffffffffffffffffffffffffffffffffff1673ffffffffffffffffffffffffffffffffffffffff168152602001908152602001600020819055508015610a05578273ffffffffffffffffffffffffffffffffffffffff168473ffffffffffffffffffffffffffffffffffffffff167f8c5be1e5ebec7d5bd14f71427d1e84f3dd0314c0f7b2291e5b200ac8c7c3b925846040516109fc9190610cfb565b60405180910390a35b50505050565b600073ffffffffffffffffffffffffffffffffffffffff168373ffffffffffffffffffffffffffffffffffffffff1603610a5d578060026000828254610a5191906110b0565b92505081905550610b30565b60008060008573ffffffffffffffffffffffffffffffffffffffff1673ffffffffffffffffffffffffffffffffffffffff16815260200190815260200160002054905081811015610ae9578381836040517fe450d38c000000000000000000000000000000000000000000000000000000008152600401610ae093929190611079565b60405180910390fd5b8181036000808673ffffffffffffffffffffffffffffffffffffffff1673ffffffffffffffffffffffffffffffffffffffff16815260200190815260200160002081905550505b600073ffffffffffffffffffffffffffffffffffffffff168273ffffffffffffffffffffffffffffffffffffffff1603610b795780600260008282540392505081905550610bc6565b806000808473ffffffffffffffffffffffffffffffffffffffff1673ffffffffffffffffffffffffffffffffffffffff168152602001908152602001600020600082825401925050819055505b8173ffffffffffffffffffffffffffffffffffffffff168373ffffffffffffffffffffffffffffffffffffffff167fddf252ad1be2c89b69c2b068fc378daa952ba7f163c4a11628f55a4df523b3ef83604051610c239190610cfb565b60405180910390a3505050565b600081519050919050565b600082825260208201905092915050565b60005b83811015610c6a578082015181840152602081019050610c4f565b60008484015250505050565b6000601f19601f8301169050919050565b6000610c9282610c30565b610c9c8185610c3b565b9350610cac818560208601610c4c565b610cb581610c76565b840191505092915050565b60006020820190508181036000830152610cda8184610c87565b905092915050565b6000819050919050565b610cf581610ce2565b82525050565b6000602082019050610d106000830184610cec565b92915050565b600080fd5b600073ffffffffffffffffffffffffffffffffffffffff82169050919050565b6000610d4682610d1b565b9050919050565b610d5681610d3b565b8114610d6157600080fd5b50565b600081359050610d7381610d4d565b92915050565b610d8281610ce2565b8114610d8d57600080fd5b50565b600081359050610d9f81610d79565b92915050565b60008060408385031215610dbc57610dbb610d16565b5b6000610dca85828601610d64565b9250506020610ddb85828601610d90565b9150509250929050565b60008115159050919050565b610dfa81610de5565b82525050565b6000602082019050610e156000830184610df1565b92915050565b600080600060608486031215610e3457610e33610d16565b5b6000610e4286828701610d64565b9350506020610e5386828701610d64565b9250506040610e6486828701610d90565b9150509250925092565b600060ff82169050919050565b610e8481610e6e565b82525050565b6000602082019050610e9f6000830184610e7b565b92915050565b600060208284031215610ebb57610eba610d16565b5b6000610ec984828501610d64565b91505092915050565b610edb81610d3b565b82525050565b6000602082019050610ef66000830184610ed2565b92915050565b60008060408385031215610f1357610f12610d16565b5b6000610f2185828601610d64565b9250506020610f3285828601610d64565b9150509250929050565b7f4e487b7100000000000000000000000000000000000000000000000000000000600052602260045260246000fd5b60006002820490506001821680610f8357607f821691505b602082108103610f9657610f95610f3c565b5b50919050565b7f796f7520617265206e6f7420746865206f776e65720000000000000000000000600082015250565b6000610fd2601583610c3b565b9150610fdd82610f9c565b602082019050919050565b6000602082019050818103600083015261100181610fc5565b9050919050565b7f4e487b7100000000000000000000000000000000000000000000000000000000600052601160045260246000fd5b600061104282610ce2565b915061104d83610ce2565b925082820261105b81610ce2565b9150828204841483151761107257611071611008565b5b5092915050565b600060608201905061108e6000830186610ed2565b61109b6020830185610cec565b6110a86040830184610cec565b949350505050565b60006110bb82610ce2565b91506110c683610ce2565b92508282019050808211156110de576110dd611008565b5b9291505056fea264697066735822122058bb8a2e5ef81224123ca98b459bfd798c699ba6cf064c15d68ae13774b23b9c64736f6c63430008180033",
  "linkReferences": {},
  "deployedLinkReferences": {}
}